{
	"16-reverseArray.sol": {
		"Day1": {
			"abi": [
				{
					"inputs": [
						{
							"internalType": "uint256[]",
							"name": "arr",
							"type": "uint256[]"
						},
						{
							"internalType": "uint256",
							"name": "len",
							"type": "uint256"
						}
					],
					"name": "reverseArray",
					"outputs": [
						{
							"internalType": "uint256[]",
							"name": "",
							"type": "uint256[]"
						}
					],
					"stateMutability": "pure",
					"type": "function"
				}
			],
			"devdoc": {
				"kind": "dev",
				"methods": {},
				"version": 1
			},
			"evm": {
				"assembly": "    /* \"16-reverseArray.sol\":68:355  contract Day1 {\r... */\n  mstore(0x40, 0x80)\n  callvalue\n  dup1\n  iszero\n  tag_1\n  jumpi\n  0x00\n  dup1\n  revert\ntag_1:\n  pop\n  dataSize(sub_0)\n  dup1\n  dataOffset(sub_0)\n  0x00\n  codecopy\n  0x00\n  return\nstop\n\nsub_0: assembly {\n        /* \"16-reverseArray.sol\":68:355  contract Day1 {\r... */\n      mstore(0x40, 0x80)\n      callvalue\n      dup1\n      iszero\n      tag_1\n      jumpi\n      0x00\n      dup1\n      revert\n    tag_1:\n      pop\n      jumpi(tag_2, lt(calldatasize, 0x04))\n      shr(0xe0, calldataload(0x00))\n      dup1\n      0x7949d61a\n      eq\n      tag_3\n      jumpi\n    tag_2:\n      0x00\n      dup1\n      revert\n        /* \"16-reverseArray.sol\":87:346  function reverseArray(uint[] memory arr, uint len) pure public returns(uint[] memory){\r... */\n    tag_3:\n      tag_4\n      0x04\n      dup1\n      calldatasize\n      sub\n      dup2\n      add\n      swap1\n      tag_5\n      swap2\n      swap1\n      tag_6\n      jump\t// in\n    tag_5:\n      tag_7\n      jump\t// in\n    tag_4:\n      mload(0x40)\n      tag_8\n      swap2\n      swap1\n      tag_9\n      jump\t// in\n    tag_8:\n      mload(0x40)\n      dup1\n      swap2\n      sub\n      swap1\n      return\n    tag_7:\n        /* \"16-reverseArray.sol\":158:171  uint[] memory */\n      0x60\n        /* \"16-reverseArray.sol\":175:184  uint temp */\n      0x00\n        /* \"16-reverseArray.sol\":195:201  uint i */\n      dup1\n        /* \"16-reverseArray.sol\":202:203  0 */\n      0x00\n        /* \"16-reverseArray.sol\":195:203  uint i=0 */\n      swap1\n      pop\n        /* \"16-reverseArray.sol\":191:322  for(uint i=0; i< len /2; i++){\r... */\n    tag_11:\n        /* \"16-reverseArray.sol\":213:214  2 */\n      0x02\n        /* \"16-reverseArray.sol\":208:211  len */\n      dup5\n        /* \"16-reverseArray.sol\":208:214  len /2 */\n      tag_14\n      swap2\n      swap1\n      tag_15\n      jump\t// in\n    tag_14:\n        /* \"16-reverseArray.sol\":205:206  i */\n      dup2\n        /* \"16-reverseArray.sol\":205:214  i< len /2 */\n      lt\n        /* \"16-reverseArray.sol\":191:322  for(uint i=0; i< len /2; i++){\r... */\n      iszero\n      tag_12\n      jumpi\n        /* \"16-reverseArray.sol\":238:241  arr */\n      dup5\n        /* \"16-reverseArray.sol\":242:243  i */\n      dup2\n        /* \"16-reverseArray.sol\":238:244  arr[i] */\n      dup2\n      mload\n      dup2\n      lt\n      tag_16\n      jumpi\n      tag_17\n      tag_18\n      jump\t// in\n    tag_17:\n    tag_16:\n      0x20\n      mul\n      0x20\n      add\n      add\n      mload\n        /* \"16-reverseArray.sol\":231:244  temp = arr[i] */\n      swap2\n      pop\n        /* \"16-reverseArray.sol\":264:267  arr */\n      dup5\n        /* \"16-reverseArray.sol\":276:277  1 */\n      0x01\n        /* \"16-reverseArray.sol\":273:274  i */\n      dup3\n        /* \"16-reverseArray.sol\":268:271  len */\n      dup7\n        /* \"16-reverseArray.sol\":268:274  len -i */\n      tag_19\n      swap2\n      swap1\n      tag_20\n      jump\t// in\n    tag_19:\n        /* \"16-reverseArray.sol\":268:277  len -i -1 */\n      tag_21\n      swap2\n      swap1\n      tag_20\n      jump\t// in\n    tag_21:\n        /* \"16-reverseArray.sol\":264:278  arr[len -i -1] */\n      dup2\n      mload\n      dup2\n      lt\n      tag_22\n      jumpi\n      tag_23\n      tag_18\n      jump\t// in\n    tag_23:\n    tag_22:\n      0x20\n      mul\n      0x20\n      add\n      add\n      mload\n        /* \"16-reverseArray.sol\":255:258  arr */\n      dup6\n        /* \"16-reverseArray.sol\":259:260  i */\n      dup3\n        /* \"16-reverseArray.sol\":255:261  arr[i] */\n      dup2\n      mload\n      dup2\n      lt\n      tag_24\n      jumpi\n      tag_25\n      tag_18\n      jump\t// in\n    tag_25:\n    tag_24:\n      0x20\n      mul\n      0x20\n      add\n      add\n        /* \"16-reverseArray.sol\":255:278  arr[i] = arr[len -i -1] */\n      dup2\n      dup2\n      mstore\n      pop\n      pop\n        /* \"16-reverseArray.sol\":306:310  temp */\n      dup2\n        /* \"16-reverseArray.sol\":289:292  arr */\n      dup6\n        /* \"16-reverseArray.sol\":301:302  1 */\n      0x01\n        /* \"16-reverseArray.sol\":298:299  i */\n      dup4\n        /* \"16-reverseArray.sol\":293:296  len */\n      dup8\n        /* \"16-reverseArray.sol\":293:299  len -i */\n      tag_26\n      swap2\n      swap1\n      tag_20\n      jump\t// in\n    tag_26:\n        /* \"16-reverseArray.sol\":293:302  len -i -1 */\n      tag_27\n      swap2\n      swap1\n      tag_20\n      jump\t// in\n    tag_27:\n        /* \"16-reverseArray.sol\":289:303  arr[len -i -1] */\n      dup2\n      mload\n      dup2\n      lt\n      tag_28\n      jumpi\n      tag_29\n      tag_18\n      jump\t// in\n    tag_29:\n    tag_28:\n      0x20\n      mul\n      0x20\n      add\n      add\n        /* \"16-reverseArray.sol\":289:310  arr[len -i -1] = temp */\n      dup2\n      dup2\n      mstore\n      pop\n      pop\n        /* \"16-reverseArray.sol\":216:219  i++ */\n      dup1\n      dup1\n      tag_30\n      swap1\n      tag_31\n      jump\t// in\n    tag_30:\n      swap2\n      pop\n      pop\n        /* \"16-reverseArray.sol\":191:322  for(uint i=0; i< len /2; i++){\r... */\n      jump(tag_11)\n    tag_12:\n      pop\n        /* \"16-reverseArray.sol\":335:338  arr */\n      dup4\n        /* \"16-reverseArray.sol\":328:338  return arr */\n      swap2\n      pop\n      pop\n        /* \"16-reverseArray.sol\":87:346  function reverseArray(uint[] memory arr, uint len) pure public returns(uint[] memory){\r... */\n      swap3\n      swap2\n      pop\n      pop\n      jump\t// out\n        /* \"#utility.yul\":24:746   */\n    tag_33:\n        /* \"#utility.yul\":120:125   */\n      0x00\n        /* \"#utility.yul\":145:226   */\n      tag_35\n        /* \"#utility.yul\":161:225   */\n      tag_36\n        /* \"#utility.yul\":218:224   */\n      dup5\n        /* \"#utility.yul\":161:225   */\n      tag_37\n      jump\t// in\n    tag_36:\n        /* \"#utility.yul\":145:226   */\n      tag_38\n      jump\t// in\n    tag_35:\n        /* \"#utility.yul\":136:226   */\n      swap1\n      pop\n        /* \"#utility.yul\":246:251   */\n      dup1\n        /* \"#utility.yul\":275:281   */\n      dup4\n        /* \"#utility.yul\":268:273   */\n      dup3\n        /* \"#utility.yul\":261:282   */\n      mstore\n        /* \"#utility.yul\":309:313   */\n      0x20\n        /* \"#utility.yul\":302:307   */\n      dup3\n        /* \"#utility.yul\":298:314   */\n      add\n        /* \"#utility.yul\":291:314   */\n      swap1\n      pop\n        /* \"#utility.yul\":335:341   */\n      dup3\n        /* \"#utility.yul\":385:388   */\n      dup6\n        /* \"#utility.yul\":377:381   */\n      0x20\n        /* \"#utility.yul\":369:375   */\n      dup7\n        /* \"#utility.yul\":365:382   */\n      mul\n        /* \"#utility.yul\":360:363   */\n      dup3\n        /* \"#utility.yul\":356:383   */\n      add\n        /* \"#utility.yul\":353:389   */\n      gt\n        /* \"#utility.yul\":350:493   */\n      iszero\n      tag_39\n      jumpi\n        /* \"#utility.yul\":404:483   */\n      tag_40\n      tag_41\n      jump\t// in\n    tag_40:\n        /* \"#utility.yul\":350:493   */\n    tag_39:\n        /* \"#utility.yul\":517:518   */\n      0x00\n        /* \"#utility.yul\":502:740   */\n    tag_42:\n        /* \"#utility.yul\":527:533   */\n      dup6\n        /* \"#utility.yul\":524:525   */\n      dup2\n        /* \"#utility.yul\":521:534   */\n      lt\n        /* \"#utility.yul\":502:740   */\n      iszero\n      tag_44\n      jumpi\n        /* \"#utility.yul\":595:598   */\n      dup2\n        /* \"#utility.yul\":624:661   */\n      tag_45\n        /* \"#utility.yul\":657:660   */\n      dup9\n        /* \"#utility.yul\":645:655   */\n      dup3\n        /* \"#utility.yul\":624:661   */\n      tag_46\n      jump\t// in\n    tag_45:\n        /* \"#utility.yul\":619:622   */\n      dup5\n        /* \"#utility.yul\":612:662   */\n      mstore\n        /* \"#utility.yul\":691:695   */\n      0x20\n        /* \"#utility.yul\":686:689   */\n      dup5\n        /* \"#utility.yul\":682:696   */\n      add\n        /* \"#utility.yul\":675:696   */\n      swap4\n      pop\n        /* \"#utility.yul\":725:729   */\n      0x20\n        /* \"#utility.yul\":720:723   */\n      dup4\n        /* \"#utility.yul\":716:730   */\n      add\n        /* \"#utility.yul\":709:730   */\n      swap3\n      pop\n        /* \"#utility.yul\":562:740   */\n      pop\n        /* \"#utility.yul\":549:550   */\n      0x01\n        /* \"#utility.yul\":546:547   */\n      dup2\n        /* \"#utility.yul\":542:551   */\n      add\n        /* \"#utility.yul\":537:551   */\n      swap1\n      pop\n        /* \"#utility.yul\":502:740   */\n      jump(tag_42)\n    tag_44:\n        /* \"#utility.yul\":506:520   */\n      pop\n        /* \"#utility.yul\":126:746   */\n      pop\n      pop\n        /* \"#utility.yul\":24:746   */\n      swap4\n      swap3\n      pop\n      pop\n      pop\n      jump\t// out\n        /* \"#utility.yul\":769:1139   */\n    tag_47:\n        /* \"#utility.yul\":840:845   */\n      0x00\n        /* \"#utility.yul\":889:892   */\n      dup3\n        /* \"#utility.yul\":882:886   */\n      0x1f\n        /* \"#utility.yul\":874:880   */\n      dup4\n        /* \"#utility.yul\":870:887   */\n      add\n        /* \"#utility.yul\":866:893   */\n      slt\n        /* \"#utility.yul\":856:978   */\n      tag_49\n      jumpi\n        /* \"#utility.yul\":897:976   */\n      tag_50\n      tag_51\n      jump\t// in\n    tag_50:\n        /* \"#utility.yul\":856:978   */\n    tag_49:\n        /* \"#utility.yul\":1014:1020   */\n      dup2\n        /* \"#utility.yul\":1001:1021   */\n      calldataload\n        /* \"#utility.yul\":1039:1133   */\n      tag_52\n        /* \"#utility.yul\":1129:1132   */\n      dup5\n        /* \"#utility.yul\":1121:1127   */\n      dup3\n        /* \"#utility.yul\":1114:1118   */\n      0x20\n        /* \"#utility.yul\":1106:1112   */\n      dup7\n        /* \"#utility.yul\":1102:1119   */\n      add\n        /* \"#utility.yul\":1039:1133   */\n      tag_33\n      jump\t// in\n    tag_52:\n        /* \"#utility.yul\":1030:1133   */\n      swap2\n      pop\n        /* \"#utility.yul\":846:1139   */\n      pop\n        /* \"#utility.yul\":769:1139   */\n      swap3\n      swap2\n      pop\n      pop\n      jump\t// out\n        /* \"#utility.yul\":1145:1284   */\n    tag_46:\n        /* \"#utility.yul\":1191:1196   */\n      0x00\n        /* \"#utility.yul\":1229:1235   */\n      dup2\n        /* \"#utility.yul\":1216:1236   */\n      calldataload\n        /* \"#utility.yul\":1207:1236   */\n      swap1\n      pop\n        /* \"#utility.yul\":1245:1278   */\n      tag_54\n        /* \"#utility.yul\":1272:1277   */\n      dup2\n        /* \"#utility.yul\":1245:1278   */\n      tag_55\n      jump\t// in\n    tag_54:\n        /* \"#utility.yul\":1145:1284   */\n      swap3\n      swap2\n      pop\n      pop\n      jump\t// out\n        /* \"#utility.yul\":1290:1974   */\n    tag_6:\n        /* \"#utility.yul\":1383:1389   */\n      0x00\n        /* \"#utility.yul\":1391:1397   */\n      dup1\n        /* \"#utility.yul\":1440:1442   */\n      0x40\n        /* \"#utility.yul\":1428:1437   */\n      dup4\n        /* \"#utility.yul\":1419:1426   */\n      dup6\n        /* \"#utility.yul\":1415:1438   */\n      sub\n        /* \"#utility.yul\":1411:1443   */\n      slt\n        /* \"#utility.yul\":1408:1527   */\n      iszero\n      tag_57\n      jumpi\n        /* \"#utility.yul\":1446:1525   */\n      tag_58\n      tag_59\n      jump\t// in\n    tag_58:\n        /* \"#utility.yul\":1408:1527   */\n    tag_57:\n        /* \"#utility.yul\":1594:1595   */\n      0x00\n        /* \"#utility.yul\":1583:1592   */\n      dup4\n        /* \"#utility.yul\":1579:1596   */\n      add\n        /* \"#utility.yul\":1566:1597   */\n      calldataload\n        /* \"#utility.yul\":1624:1642   */\n      0xffffffffffffffff\n        /* \"#utility.yul\":1616:1622   */\n      dup2\n        /* \"#utility.yul\":1613:1643   */\n      gt\n        /* \"#utility.yul\":1610:1727   */\n      iszero\n      tag_60\n      jumpi\n        /* \"#utility.yul\":1646:1725   */\n      tag_61\n      tag_62\n      jump\t// in\n    tag_61:\n        /* \"#utility.yul\":1610:1727   */\n    tag_60:\n        /* \"#utility.yul\":1751:1829   */\n      tag_63\n        /* \"#utility.yul\":1821:1828   */\n      dup6\n        /* \"#utility.yul\":1812:1818   */\n      dup3\n        /* \"#utility.yul\":1801:1810   */\n      dup7\n        /* \"#utility.yul\":1797:1819   */\n      add\n        /* \"#utility.yul\":1751:1829   */\n      tag_47\n      jump\t// in\n    tag_63:\n        /* \"#utility.yul\":1741:1829   */\n      swap3\n      pop\n        /* \"#utility.yul\":1537:1839   */\n      pop\n        /* \"#utility.yul\":1878:1880   */\n      0x20\n        /* \"#utility.yul\":1904:1957   */\n      tag_64\n        /* \"#utility.yul\":1949:1956   */\n      dup6\n        /* \"#utility.yul\":1940:1946   */\n      dup3\n        /* \"#utility.yul\":1929:1938   */\n      dup7\n        /* \"#utility.yul\":1925:1947   */\n      add\n        /* \"#utility.yul\":1904:1957   */\n      tag_46\n      jump\t// in\n    tag_64:\n        /* \"#utility.yul\":1894:1957   */\n      swap2\n      pop\n        /* \"#utility.yul\":1849:1967   */\n      pop\n        /* \"#utility.yul\":1290:1974   */\n      swap3\n      pop\n      swap3\n      swap1\n      pop\n      jump\t// out\n        /* \"#utility.yul\":1980:2159   */\n    tag_65:\n        /* \"#utility.yul\":2049:2059   */\n      0x00\n        /* \"#utility.yul\":2070:2116   */\n      tag_67\n        /* \"#utility.yul\":2112:2115   */\n      dup4\n        /* \"#utility.yul\":2104:2110   */\n      dup4\n        /* \"#utility.yul\":2070:2116   */\n      tag_68\n      jump\t// in\n    tag_67:\n        /* \"#utility.yul\":2148:2152   */\n      0x20\n        /* \"#utility.yul\":2143:2146   */\n      dup4\n        /* \"#utility.yul\":2139:2153   */\n      add\n        /* \"#utility.yul\":2125:2153   */\n      swap1\n      pop\n        /* \"#utility.yul\":1980:2159   */\n      swap3\n      swap2\n      pop\n      pop\n      jump\t// out\n        /* \"#utility.yul\":2195:2927   */\n    tag_69:\n        /* \"#utility.yul\":2314:2317   */\n      0x00\n        /* \"#utility.yul\":2343:2397   */\n      tag_71\n        /* \"#utility.yul\":2391:2396   */\n      dup3\n        /* \"#utility.yul\":2343:2397   */\n      tag_72\n      jump\t// in\n    tag_71:\n        /* \"#utility.yul\":2413:2499   */\n      tag_73\n        /* \"#utility.yul\":2492:2498   */\n      dup2\n        /* \"#utility.yul\":2487:2490   */\n      dup6\n        /* \"#utility.yul\":2413:2499   */\n      tag_74\n      jump\t// in\n    tag_73:\n        /* \"#utility.yul\":2406:2499   */\n      swap4\n      pop\n        /* \"#utility.yul\":2523:2579   */\n      tag_75\n        /* \"#utility.yul\":2573:2578   */\n      dup4\n        /* \"#utility.yul\":2523:2579   */\n      tag_76\n      jump\t// in\n    tag_75:\n        /* \"#utility.yul\":2602:2609   */\n      dup1\n        /* \"#utility.yul\":2633:2634   */\n      0x00\n        /* \"#utility.yul\":2618:2902   */\n    tag_77:\n        /* \"#utility.yul\":2643:2649   */\n      dup4\n        /* \"#utility.yul\":2640:2641   */\n      dup2\n        /* \"#utility.yul\":2637:2650   */\n      lt\n        /* \"#utility.yul\":2618:2902   */\n      iszero\n      tag_79\n      jumpi\n        /* \"#utility.yul\":2719:2725   */\n      dup2\n        /* \"#utility.yul\":2713:2726   */\n      mload\n        /* \"#utility.yul\":2746:2809   */\n      tag_80\n        /* \"#utility.yul\":2805:2808   */\n      dup9\n        /* \"#utility.yul\":2790:2803   */\n      dup3\n        /* \"#utility.yul\":2746:2809   */\n      tag_65\n      jump\t// in\n    tag_80:\n        /* \"#utility.yul\":2739:2809   */\n      swap8\n      pop\n        /* \"#utility.yul\":2832:2892   */\n      tag_81\n        /* \"#utility.yul\":2885:2891   */\n      dup4\n        /* \"#utility.yul\":2832:2892   */\n      tag_82\n      jump\t// in\n    tag_81:\n        /* \"#utility.yul\":2822:2892   */\n      swap3\n      pop\n        /* \"#utility.yul\":2678:2902   */\n      pop\n        /* \"#utility.yul\":2665:2666   */\n      0x01\n        /* \"#utility.yul\":2662:2663   */\n      dup2\n        /* \"#utility.yul\":2658:2667   */\n      add\n        /* \"#utility.yul\":2653:2667   */\n      swap1\n      pop\n        /* \"#utility.yul\":2618:2902   */\n      jump(tag_77)\n    tag_79:\n        /* \"#utility.yul\":2622:2636   */\n      pop\n        /* \"#utility.yul\":2918:2921   */\n      dup6\n        /* \"#utility.yul\":2911:2921   */\n      swap4\n      pop\n        /* \"#utility.yul\":2319:2927   */\n      pop\n      pop\n      pop\n        /* \"#utility.yul\":2195:2927   */\n      swap3\n      swap2\n      pop\n      pop\n      jump\t// out\n        /* \"#utility.yul\":2933:3041   */\n    tag_68:\n        /* \"#utility.yul\":3010:3034   */\n      tag_84\n        /* \"#utility.yul\":3028:3033   */\n      dup2\n        /* \"#utility.yul\":3010:3034   */\n      tag_85\n      jump\t// in\n    tag_84:\n        /* \"#utility.yul\":3005:3008   */\n      dup3\n        /* \"#utility.yul\":2998:3035   */\n      mstore\n        /* \"#utility.yul\":2933:3041   */\n      pop\n      pop\n      jump\t// out\n        /* \"#utility.yul\":3047:3420   */\n    tag_9:\n        /* \"#utility.yul\":3190:3194   */\n      0x00\n        /* \"#utility.yul\":3228:3230   */\n      0x20\n        /* \"#utility.yul\":3217:3226   */\n      dup3\n        /* \"#utility.yul\":3213:3231   */\n      add\n        /* \"#utility.yul\":3205:3231   */\n      swap1\n      pop\n        /* \"#utility.yul\":3277:3286   */\n      dup2\n        /* \"#utility.yul\":3271:3275   */\n      dup2\n        /* \"#utility.yul\":3267:3287   */\n      sub\n        /* \"#utility.yul\":3263:3264   */\n      0x00\n        /* \"#utility.yul\":3252:3261   */\n      dup4\n        /* \"#utility.yul\":3248:3265   */\n      add\n        /* \"#utility.yul\":3241:3288   */\n      mstore\n        /* \"#utility.yul\":3305:3413   */\n      tag_87\n        /* \"#utility.yul\":3408:3412   */\n      dup2\n        /* \"#utility.yul\":3399:3405   */\n      dup5\n        /* \"#utility.yul\":3305:3413   */\n      tag_69\n      jump\t// in\n    tag_87:\n        /* \"#utility.yul\":3297:3413   */\n      swap1\n      pop\n        /* \"#utility.yul\":3047:3420   */\n      swap3\n      swap2\n      pop\n      pop\n      jump\t// out\n        /* \"#utility.yul\":3426:3555   */\n    tag_38:\n        /* \"#utility.yul\":3460:3466   */\n      0x00\n        /* \"#utility.yul\":3487:3507   */\n      tag_89\n      tag_90\n      jump\t// in\n    tag_89:\n        /* \"#utility.yul\":3477:3507   */\n      swap1\n      pop\n        /* \"#utility.yul\":3516:3549   */\n      tag_91\n        /* \"#utility.yul\":3544:3548   */\n      dup3\n        /* \"#utility.yul\":3536:3542   */\n      dup3\n        /* \"#utility.yul\":3516:3549   */\n      tag_92\n      jump\t// in\n    tag_91:\n        /* \"#utility.yul\":3426:3555   */\n      swap2\n      swap1\n      pop\n      jump\t// out\n        /* \"#utility.yul\":3561:3636   */\n    tag_90:\n        /* \"#utility.yul\":3594:3600   */\n      0x00\n        /* \"#utility.yul\":3627:3629   */\n      0x40\n        /* \"#utility.yul\":3621:3630   */\n      mload\n        /* \"#utility.yul\":3611:3630   */\n      swap1\n      pop\n        /* \"#utility.yul\":3561:3636   */\n      swap1\n      jump\t// out\n        /* \"#utility.yul\":3642:3953   */\n    tag_37:\n        /* \"#utility.yul\":3719:3723   */\n      0x00\n        /* \"#utility.yul\":3809:3827   */\n      0xffffffffffffffff\n        /* \"#utility.yul\":3801:3807   */\n      dup3\n        /* \"#utility.yul\":3798:3828   */\n      gt\n        /* \"#utility.yul\":3795:3851   */\n      iszero\n      tag_95\n      jumpi\n        /* \"#utility.yul\":3831:3849   */\n      tag_96\n      tag_97\n      jump\t// in\n    tag_96:\n        /* \"#utility.yul\":3795:3851   */\n    tag_95:\n        /* \"#utility.yul\":3881:3885   */\n      0x20\n        /* \"#utility.yul\":3873:3879   */\n      dup3\n        /* \"#utility.yul\":3869:3886   */\n      mul\n        /* \"#utility.yul\":3861:3886   */\n      swap1\n      pop\n        /* \"#utility.yul\":3941:3945   */\n      0x20\n        /* \"#utility.yul\":3935:3939   */\n      dup2\n        /* \"#utility.yul\":3931:3946   */\n      add\n        /* \"#utility.yul\":3923:3946   */\n      swap1\n      pop\n        /* \"#utility.yul\":3642:3953   */\n      swap2\n      swap1\n      pop\n      jump\t// out\n        /* \"#utility.yul\":3959:4091   */\n    tag_76:\n        /* \"#utility.yul\":4026:4030   */\n      0x00\n        /* \"#utility.yul\":4049:4052   */\n      dup2\n        /* \"#utility.yul\":4041:4052   */\n      swap1\n      pop\n        /* \"#utility.yul\":4079:4083   */\n      0x20\n        /* \"#utility.yul\":4074:4077   */\n      dup3\n        /* \"#utility.yul\":4070:4084   */\n      add\n        /* \"#utility.yul\":4062:4084   */\n      swap1\n      pop\n        /* \"#utility.yul\":3959:4091   */\n      swap2\n      swap1\n      pop\n      jump\t// out\n        /* \"#utility.yul\":4097:4211   */\n    tag_72:\n        /* \"#utility.yul\":4164:4170   */\n      0x00\n        /* \"#utility.yul\":4198:4203   */\n      dup2\n        /* \"#utility.yul\":4192:4204   */\n      mload\n        /* \"#utility.yul\":4182:4204   */\n      swap1\n      pop\n        /* \"#utility.yul\":4097:4211   */\n      swap2\n      swap1\n      pop\n      jump\t// out\n        /* \"#utility.yul\":4217:4330   */\n    tag_82:\n        /* \"#utility.yul\":4287:4291   */\n      0x00\n        /* \"#utility.yul\":4319:4323   */\n      0x20\n        /* \"#utility.yul\":4314:4317   */\n      dup3\n        /* \"#utility.yul\":4310:4324   */\n      add\n        /* \"#utility.yul\":4302:4324   */\n      swap1\n      pop\n        /* \"#utility.yul\":4217:4330   */\n      swap2\n      swap1\n      pop\n      jump\t// out\n        /* \"#utility.yul\":4336:4520   */\n    tag_74:\n        /* \"#utility.yul\":4435:4446   */\n      0x00\n        /* \"#utility.yul\":4469:4475   */\n      dup3\n        /* \"#utility.yul\":4464:4467   */\n      dup3\n        /* \"#utility.yul\":4457:4476   */\n      mstore\n        /* \"#utility.yul\":4509:4513   */\n      0x20\n        /* \"#utility.yul\":4504:4507   */\n      dup3\n        /* \"#utility.yul\":4500:4514   */\n      add\n        /* \"#utility.yul\":4485:4514   */\n      swap1\n      pop\n        /* \"#utility.yul\":4336:4520   */\n      swap3\n      swap2\n      pop\n      pop\n      jump\t// out\n        /* \"#utility.yul\":4526:4711   */\n    tag_15:\n        /* \"#utility.yul\":4566:4567   */\n      0x00\n        /* \"#utility.yul\":4583:4603   */\n      tag_103\n        /* \"#utility.yul\":4601:4602   */\n      dup3\n        /* \"#utility.yul\":4583:4603   */\n      tag_85\n      jump\t// in\n    tag_103:\n        /* \"#utility.yul\":4578:4603   */\n      swap2\n      pop\n        /* \"#utility.yul\":4617:4637   */\n      tag_104\n        /* \"#utility.yul\":4635:4636   */\n      dup4\n        /* \"#utility.yul\":4617:4637   */\n      tag_85\n      jump\t// in\n    tag_104:\n        /* \"#utility.yul\":4612:4637   */\n      swap3\n      pop\n        /* \"#utility.yul\":4656:4657   */\n      dup3\n        /* \"#utility.yul\":4646:4681   */\n      tag_105\n      jumpi\n        /* \"#utility.yul\":4661:4679   */\n      tag_106\n      tag_107\n      jump\t// in\n    tag_106:\n        /* \"#utility.yul\":4646:4681   */\n    tag_105:\n        /* \"#utility.yul\":4703:4704   */\n      dup3\n        /* \"#utility.yul\":4700:4701   */\n      dup3\n        /* \"#utility.yul\":4696:4705   */\n      div\n        /* \"#utility.yul\":4691:4705   */\n      swap1\n      pop\n        /* \"#utility.yul\":4526:4711   */\n      swap3\n      swap2\n      pop\n      pop\n      jump\t// out\n        /* \"#utility.yul\":4717:4908   */\n    tag_20:\n        /* \"#utility.yul\":4757:4761   */\n      0x00\n        /* \"#utility.yul\":4777:4797   */\n      tag_109\n        /* \"#utility.yul\":4795:4796   */\n      dup3\n        /* \"#utility.yul\":4777:4797   */\n      tag_85\n      jump\t// in\n    tag_109:\n        /* \"#utility.yul\":4772:4797   */\n      swap2\n      pop\n        /* \"#utility.yul\":4811:4831   */\n      tag_110\n        /* \"#utility.yul\":4829:4830   */\n      dup4\n        /* \"#utility.yul\":4811:4831   */\n      tag_85\n      jump\t// in\n    tag_110:\n        /* \"#utility.yul\":4806:4831   */\n      swap3\n      pop\n        /* \"#utility.yul\":4850:4851   */\n      dup3\n        /* \"#utility.yul\":4847:4848   */\n      dup3\n        /* \"#utility.yul\":4844:4852   */\n      lt\n        /* \"#utility.yul\":4841:4875   */\n      iszero\n      tag_111\n      jumpi\n        /* \"#utility.yul\":4855:4873   */\n      tag_112\n      tag_113\n      jump\t// in\n    tag_112:\n        /* \"#utility.yul\":4841:4875   */\n    tag_111:\n        /* \"#utility.yul\":4900:4901   */\n      dup3\n        /* \"#utility.yul\":4897:4898   */\n      dup3\n        /* \"#utility.yul\":4893:4902   */\n      sub\n        /* \"#utility.yul\":4885:4902   */\n      swap1\n      pop\n        /* \"#utility.yul\":4717:4908   */\n      swap3\n      swap2\n      pop\n      pop\n      jump\t// out\n        /* \"#utility.yul\":4914:4991   */\n    tag_85:\n        /* \"#utility.yul\":4951:4958   */\n      0x00\n        /* \"#utility.yul\":4980:4985   */\n      dup2\n        /* \"#utility.yul\":4969:4985   */\n      swap1\n      pop\n        /* \"#utility.yul\":4914:4991   */\n      swap2\n      swap1\n      pop\n      jump\t// out\n        /* \"#utility.yul\":4997:5278   */\n    tag_92:\n        /* \"#utility.yul\":5080:5107   */\n      tag_116\n        /* \"#utility.yul\":5102:5106   */\n      dup3\n        /* \"#utility.yul\":5080:5107   */\n      tag_117\n      jump\t// in\n    tag_116:\n        /* \"#utility.yul\":5072:5078   */\n      dup2\n        /* \"#utility.yul\":5068:5108   */\n      add\n        /* \"#utility.yul\":5210:5216   */\n      dup2\n        /* \"#utility.yul\":5198:5208   */\n      dup2\n        /* \"#utility.yul\":5195:5217   */\n      lt\n        /* \"#utility.yul\":5174:5192   */\n      0xffffffffffffffff\n        /* \"#utility.yul\":5162:5172   */\n      dup3\n        /* \"#utility.yul\":5159:5193   */\n      gt\n        /* \"#utility.yul\":5156:5218   */\n      or\n        /* \"#utility.yul\":5153:5241   */\n      iszero\n      tag_118\n      jumpi\n        /* \"#utility.yul\":5221:5239   */\n      tag_119\n      tag_97\n      jump\t// in\n    tag_119:\n        /* \"#utility.yul\":5153:5241   */\n    tag_118:\n        /* \"#utility.yul\":5261:5271   */\n      dup1\n        /* \"#utility.yul\":5257:5259   */\n      0x40\n        /* \"#utility.yul\":5250:5272   */\n      mstore\n        /* \"#utility.yul\":5040:5278   */\n      pop\n        /* \"#utility.yul\":4997:5278   */\n      pop\n      pop\n      jump\t// out\n        /* \"#utility.yul\":5284:5517   */\n    tag_31:\n        /* \"#utility.yul\":5323:5326   */\n      0x00\n        /* \"#utility.yul\":5346:5370   */\n      tag_121\n        /* \"#utility.yul\":5364:5369   */\n      dup3\n        /* \"#utility.yul\":5346:5370   */\n      tag_85\n      jump\t// in\n    tag_121:\n        /* \"#utility.yul\":5337:5370   */\n      swap2\n      pop\n        /* \"#utility.yul\":5392:5458   */\n      0xffffffffffffffffffffffffffffffffffffffffffffffffffffffffffffffff\n        /* \"#utility.yul\":5385:5390   */\n      dup3\n        /* \"#utility.yul\":5382:5459   */\n      eq\n        /* \"#utility.yul\":5379:5482   */\n      iszero\n      tag_122\n      jumpi\n        /* \"#utility.yul\":5462:5480   */\n      tag_123\n      tag_113\n      jump\t// in\n    tag_123:\n        /* \"#utility.yul\":5379:5482   */\n    tag_122:\n        /* \"#utility.yul\":5509:5510   */\n      0x01\n        /* \"#utility.yul\":5502:5507   */\n      dup3\n        /* \"#utility.yul\":5498:5511   */\n      add\n        /* \"#utility.yul\":5491:5511   */\n      swap1\n      pop\n        /* \"#utility.yul\":5284:5517   */\n      swap2\n      swap1\n      pop\n      jump\t// out\n        /* \"#utility.yul\":5523:5703   */\n    tag_113:\n        /* \"#utility.yul\":5571:5648   */\n      0x4e487b7100000000000000000000000000000000000000000000000000000000\n        /* \"#utility.yul\":5568:5569   */\n      0x00\n        /* \"#utility.yul\":5561:5649   */\n      mstore\n        /* \"#utility.yul\":5668:5672   */\n      0x11\n        /* \"#utility.yul\":5665:5666   */\n      0x04\n        /* \"#utility.yul\":5658:5673   */\n      mstore\n        /* \"#utility.yul\":5692:5696   */\n      0x24\n        /* \"#utility.yul\":5689:5690   */\n      0x00\n        /* \"#utility.yul\":5682:5697   */\n      revert\n        /* \"#utility.yul\":5709:5889   */\n    tag_107:\n        /* \"#utility.yul\":5757:5834   */\n      0x4e487b7100000000000000000000000000000000000000000000000000000000\n        /* \"#utility.yul\":5754:5755   */\n      0x00\n        /* \"#utility.yul\":5747:5835   */\n      mstore\n        /* \"#utility.yul\":5854:5858   */\n      0x12\n        /* \"#utility.yul\":5851:5852   */\n      0x04\n        /* \"#utility.yul\":5844:5859   */\n      mstore\n        /* \"#utility.yul\":5878:5882   */\n      0x24\n        /* \"#utility.yul\":5875:5876   */\n      0x00\n        /* \"#utility.yul\":5868:5883   */\n      revert\n        /* \"#utility.yul\":5895:6075   */\n    tag_18:\n        /* \"#utility.yul\":5943:6020   */\n      0x4e487b7100000000000000000000000000000000000000000000000000000000\n        /* \"#utility.yul\":5940:5941   */\n      0x00\n        /* \"#utility.yul\":5933:6021   */\n      mstore\n        /* \"#utility.yul\":6040:6044   */\n      0x32\n        /* \"#utility.yul\":6037:6038   */\n      0x04\n        /* \"#utility.yul\":6030:6045   */\n      mstore\n        /* \"#utility.yul\":6064:6068   */\n      0x24\n        /* \"#utility.yul\":6061:6062   */\n      0x00\n        /* \"#utility.yul\":6054:6069   */\n      revert\n        /* \"#utility.yul\":6081:6261   */\n    tag_97:\n        /* \"#utility.yul\":6129:6206   */\n      0x4e487b7100000000000000000000000000000000000000000000000000000000\n        /* \"#utility.yul\":6126:6127   */\n      0x00\n        /* \"#utility.yul\":6119:6207   */\n      mstore\n        /* \"#utility.yul\":6226:6230   */\n      0x41\n        /* \"#utility.yul\":6223:6224   */\n      0x04\n        /* \"#utility.yul\":6216:6231   */\n      mstore\n        /* \"#utility.yul\":6250:6254   */\n      0x24\n        /* \"#utility.yul\":6247:6248   */\n      0x00\n        /* \"#utility.yul\":6240:6255   */\n      revert\n        /* \"#utility.yul\":6267:6384   */\n    tag_51:\n        /* \"#utility.yul\":6376:6377   */\n      0x00\n        /* \"#utility.yul\":6373:6374   */\n      dup1\n        /* \"#utility.yul\":6366:6378   */\n      revert\n        /* \"#utility.yul\":6390:6507   */\n    tag_41:\n        /* \"#utility.yul\":6499:6500   */\n      0x00\n        /* \"#utility.yul\":6496:6497   */\n      dup1\n        /* \"#utility.yul\":6489:6501   */\n      revert\n        /* \"#utility.yul\":6513:6630   */\n    tag_62:\n        /* \"#utility.yul\":6622:6623   */\n      0x00\n        /* \"#utility.yul\":6619:6620   */\n      dup1\n        /* \"#utility.yul\":6612:6624   */\n      revert\n        /* \"#utility.yul\":6636:6753   */\n    tag_59:\n        /* \"#utility.yul\":6745:6746   */\n      0x00\n        /* \"#utility.yul\":6742:6743   */\n      dup1\n        /* \"#utility.yul\":6735:6747   */\n      revert\n        /* \"#utility.yul\":6759:6861   */\n    tag_117:\n        /* \"#utility.yul\":6800:6806   */\n      0x00\n        /* \"#utility.yul\":6851:6853   */\n      0x1f\n        /* \"#utility.yul\":6847:6854   */\n      not\n        /* \"#utility.yul\":6842:6844   */\n      0x1f\n        /* \"#utility.yul\":6835:6840   */\n      dup4\n        /* \"#utility.yul\":6831:6845   */\n      add\n        /* \"#utility.yul\":6827:6855   */\n      and\n        /* \"#utility.yul\":6817:6855   */\n      swap1\n      pop\n        /* \"#utility.yul\":6759:6861   */\n      swap2\n      swap1\n      pop\n      jump\t// out\n        /* \"#utility.yul\":6867:6989   */\n    tag_55:\n        /* \"#utility.yul\":6940:6964   */\n      tag_134\n        /* \"#utility.yul\":6958:6963   */\n      dup2\n        /* \"#utility.yul\":6940:6964   */\n      tag_85\n      jump\t// in\n    tag_134:\n        /* \"#utility.yul\":6933:6938   */\n      dup2\n        /* \"#utility.yul\":6930:6965   */\n      eq\n        /* \"#utility.yul\":6920:6983   */\n      tag_135\n      jumpi\n        /* \"#utility.yul\":6979:6980   */\n      0x00\n        /* \"#utility.yul\":6976:6977   */\n      dup1\n        /* \"#utility.yul\":6969:6981   */\n      revert\n        /* \"#utility.yul\":6920:6983   */\n    tag_135:\n        /* \"#utility.yul\":6867:6989   */\n      pop\n      jump\t// out\n\n    auxdata: 0xa2646970667358221220af432461db798357f67cb57c9c3fb771ca235c917aee69dd28950873d966031964736f6c63430008070033\n}\n",
				"bytecode": {
					"linkReferences": {},
					"object": "608060405234801561001057600080fd5b50610598806100206000396000f3fe608060405234801561001057600080fd5b506004361061002b5760003560e01c80637949d61a14610030575b600080fd5b61004a600480360381019061004591906101f4565b610060565b60405161005791906102d5565b60405180910390f35b6060600080600090505b6002846100779190610381565b81101561013657848181518110610091576100906104c8565b5b6020026020010151915084600182866100aa91906103b2565b6100b491906103b2565b815181106100c5576100c46104c8565b5b60200260200101518582815181106100e0576100df6104c8565b5b6020026020010181815250508185600183876100fc91906103b2565b61010691906103b2565b81518110610117576101166104c8565b5b602002602001018181525050808061012e90610421565b91505061006a565b508391505092915050565b600061015461014f8461031c565b6102f7565b905080838252602082019050828560208602820111156101775761017661052b565b5b60005b858110156101a7578161018d88826101df565b84526020840193506020830192505060018101905061017a565b5050509392505050565b600082601f8301126101c6576101c5610526565b5b81356101d6848260208601610141565b91505092915050565b6000813590506101ee8161054b565b92915050565b6000806040838503121561020b5761020a610535565b5b600083013567ffffffffffffffff81111561022957610228610530565b5b610235858286016101b1565b9250506020610246858286016101df565b9150509250929050565b600061025c83836102c6565b60208301905092915050565b600061027382610358565b61027d8185610370565b935061028883610348565b8060005b838110156102b95781516102a08882610250565b97506102ab83610363565b92505060018101905061028c565b5085935050505092915050565b6102cf816103e6565b82525050565b600060208201905081810360008301526102ef8184610268565b905092915050565b6000610301610312565b905061030d82826103f0565b919050565b6000604051905090565b600067ffffffffffffffff821115610337576103366104f7565b5b602082029050602081019050919050565b6000819050602082019050919050565b600081519050919050565b6000602082019050919050565b600082825260208201905092915050565b600061038c826103e6565b9150610397836103e6565b9250826103a7576103a6610499565b5b828204905092915050565b60006103bd826103e6565b91506103c8836103e6565b9250828210156103db576103da61046a565b5b828203905092915050565b6000819050919050565b6103f98261053a565b810181811067ffffffffffffffff82111715610418576104176104f7565b5b80604052505050565b600061042c826103e6565b91507fffffffffffffffffffffffffffffffffffffffffffffffffffffffffffffffff82141561045f5761045e61046a565b5b600182019050919050565b7f4e487b7100000000000000000000000000000000000000000000000000000000600052601160045260246000fd5b7f4e487b7100000000000000000000000000000000000000000000000000000000600052601260045260246000fd5b7f4e487b7100000000000000000000000000000000000000000000000000000000600052603260045260246000fd5b7f4e487b7100000000000000000000000000000000000000000000000000000000600052604160045260246000fd5b600080fd5b600080fd5b600080fd5b600080fd5b6000601f19601f8301169050919050565b610554816103e6565b811461055f57600080fd5b5056fea2646970667358221220af432461db798357f67cb57c9c3fb771ca235c917aee69dd28950873d966031964736f6c63430008070033",
					"opcodes": "PUSH1 0x80 PUSH1 0x40 MSTORE CALLVALUE DUP1 ISZERO PUSH2 0x10 JUMPI PUSH1 0x0 DUP1 REVERT JUMPDEST POP PUSH2 0x598 DUP1 PUSH2 0x20 PUSH1 0x0 CODECOPY PUSH1 0x0 RETURN INVALID PUSH1 0x80 PUSH1 0x40 MSTORE CALLVALUE DUP1 ISZERO PUSH2 0x10 JUMPI PUSH1 0x0 DUP1 REVERT JUMPDEST POP PUSH1 0x4 CALLDATASIZE LT PUSH2 0x2B JUMPI PUSH1 0x0 CALLDATALOAD PUSH1 0xE0 SHR DUP1 PUSH4 0x7949D61A EQ PUSH2 0x30 JUMPI JUMPDEST PUSH1 0x0 DUP1 REVERT JUMPDEST PUSH2 0x4A PUSH1 0x4 DUP1 CALLDATASIZE SUB DUP2 ADD SWAP1 PUSH2 0x45 SWAP2 SWAP1 PUSH2 0x1F4 JUMP JUMPDEST PUSH2 0x60 JUMP JUMPDEST PUSH1 0x40 MLOAD PUSH2 0x57 SWAP2 SWAP1 PUSH2 0x2D5 JUMP JUMPDEST PUSH1 0x40 MLOAD DUP1 SWAP2 SUB SWAP1 RETURN JUMPDEST PUSH1 0x60 PUSH1 0x0 DUP1 PUSH1 0x0 SWAP1 POP JUMPDEST PUSH1 0x2 DUP5 PUSH2 0x77 SWAP2 SWAP1 PUSH2 0x381 JUMP JUMPDEST DUP2 LT ISZERO PUSH2 0x136 JUMPI DUP5 DUP2 DUP2 MLOAD DUP2 LT PUSH2 0x91 JUMPI PUSH2 0x90 PUSH2 0x4C8 JUMP JUMPDEST JUMPDEST PUSH1 0x20 MUL PUSH1 0x20 ADD ADD MLOAD SWAP2 POP DUP5 PUSH1 0x1 DUP3 DUP7 PUSH2 0xAA SWAP2 SWAP1 PUSH2 0x3B2 JUMP JUMPDEST PUSH2 0xB4 SWAP2 SWAP1 PUSH2 0x3B2 JUMP JUMPDEST DUP2 MLOAD DUP2 LT PUSH2 0xC5 JUMPI PUSH2 0xC4 PUSH2 0x4C8 JUMP JUMPDEST JUMPDEST PUSH1 0x20 MUL PUSH1 0x20 ADD ADD MLOAD DUP6 DUP3 DUP2 MLOAD DUP2 LT PUSH2 0xE0 JUMPI PUSH2 0xDF PUSH2 0x4C8 JUMP JUMPDEST JUMPDEST PUSH1 0x20 MUL PUSH1 0x20 ADD ADD DUP2 DUP2 MSTORE POP POP DUP2 DUP6 PUSH1 0x1 DUP4 DUP8 PUSH2 0xFC SWAP2 SWAP1 PUSH2 0x3B2 JUMP JUMPDEST PUSH2 0x106 SWAP2 SWAP1 PUSH2 0x3B2 JUMP JUMPDEST DUP2 MLOAD DUP2 LT PUSH2 0x117 JUMPI PUSH2 0x116 PUSH2 0x4C8 JUMP JUMPDEST JUMPDEST PUSH1 0x20 MUL PUSH1 0x20 ADD ADD DUP2 DUP2 MSTORE POP POP DUP1 DUP1 PUSH2 0x12E SWAP1 PUSH2 0x421 JUMP JUMPDEST SWAP2 POP POP PUSH2 0x6A JUMP JUMPDEST POP DUP4 SWAP2 POP POP SWAP3 SWAP2 POP POP JUMP JUMPDEST PUSH1 0x0 PUSH2 0x154 PUSH2 0x14F DUP5 PUSH2 0x31C JUMP JUMPDEST PUSH2 0x2F7 JUMP JUMPDEST SWAP1 POP DUP1 DUP4 DUP3 MSTORE PUSH1 0x20 DUP3 ADD SWAP1 POP DUP3 DUP6 PUSH1 0x20 DUP7 MUL DUP3 ADD GT ISZERO PUSH2 0x177 JUMPI PUSH2 0x176 PUSH2 0x52B JUMP JUMPDEST JUMPDEST PUSH1 0x0 JUMPDEST DUP6 DUP2 LT ISZERO PUSH2 0x1A7 JUMPI DUP2 PUSH2 0x18D DUP9 DUP3 PUSH2 0x1DF JUMP JUMPDEST DUP5 MSTORE PUSH1 0x20 DUP5 ADD SWAP4 POP PUSH1 0x20 DUP4 ADD SWAP3 POP POP PUSH1 0x1 DUP2 ADD SWAP1 POP PUSH2 0x17A JUMP JUMPDEST POP POP POP SWAP4 SWAP3 POP POP POP JUMP JUMPDEST PUSH1 0x0 DUP3 PUSH1 0x1F DUP4 ADD SLT PUSH2 0x1C6 JUMPI PUSH2 0x1C5 PUSH2 0x526 JUMP JUMPDEST JUMPDEST DUP2 CALLDATALOAD PUSH2 0x1D6 DUP5 DUP3 PUSH1 0x20 DUP7 ADD PUSH2 0x141 JUMP JUMPDEST SWAP2 POP POP SWAP3 SWAP2 POP POP JUMP JUMPDEST PUSH1 0x0 DUP2 CALLDATALOAD SWAP1 POP PUSH2 0x1EE DUP2 PUSH2 0x54B JUMP JUMPDEST SWAP3 SWAP2 POP POP JUMP JUMPDEST PUSH1 0x0 DUP1 PUSH1 0x40 DUP4 DUP6 SUB SLT ISZERO PUSH2 0x20B JUMPI PUSH2 0x20A PUSH2 0x535 JUMP JUMPDEST JUMPDEST PUSH1 0x0 DUP4 ADD CALLDATALOAD PUSH8 0xFFFFFFFFFFFFFFFF DUP2 GT ISZERO PUSH2 0x229 JUMPI PUSH2 0x228 PUSH2 0x530 JUMP JUMPDEST JUMPDEST PUSH2 0x235 DUP6 DUP3 DUP7 ADD PUSH2 0x1B1 JUMP JUMPDEST SWAP3 POP POP PUSH1 0x20 PUSH2 0x246 DUP6 DUP3 DUP7 ADD PUSH2 0x1DF JUMP JUMPDEST SWAP2 POP POP SWAP3 POP SWAP3 SWAP1 POP JUMP JUMPDEST PUSH1 0x0 PUSH2 0x25C DUP4 DUP4 PUSH2 0x2C6 JUMP JUMPDEST PUSH1 0x20 DUP4 ADD SWAP1 POP SWAP3 SWAP2 POP POP JUMP JUMPDEST PUSH1 0x0 PUSH2 0x273 DUP3 PUSH2 0x358 JUMP JUMPDEST PUSH2 0x27D DUP2 DUP6 PUSH2 0x370 JUMP JUMPDEST SWAP4 POP PUSH2 0x288 DUP4 PUSH2 0x348 JUMP JUMPDEST DUP1 PUSH1 0x0 JUMPDEST DUP4 DUP2 LT ISZERO PUSH2 0x2B9 JUMPI DUP2 MLOAD PUSH2 0x2A0 DUP9 DUP3 PUSH2 0x250 JUMP JUMPDEST SWAP8 POP PUSH2 0x2AB DUP4 PUSH2 0x363 JUMP JUMPDEST SWAP3 POP POP PUSH1 0x1 DUP2 ADD SWAP1 POP PUSH2 0x28C JUMP JUMPDEST POP DUP6 SWAP4 POP POP POP POP SWAP3 SWAP2 POP POP JUMP JUMPDEST PUSH2 0x2CF DUP2 PUSH2 0x3E6 JUMP JUMPDEST DUP3 MSTORE POP POP JUMP JUMPDEST PUSH1 0x0 PUSH1 0x20 DUP3 ADD SWAP1 POP DUP2 DUP2 SUB PUSH1 0x0 DUP4 ADD MSTORE PUSH2 0x2EF DUP2 DUP5 PUSH2 0x268 JUMP JUMPDEST SWAP1 POP SWAP3 SWAP2 POP POP JUMP JUMPDEST PUSH1 0x0 PUSH2 0x301 PUSH2 0x312 JUMP JUMPDEST SWAP1 POP PUSH2 0x30D DUP3 DUP3 PUSH2 0x3F0 JUMP JUMPDEST SWAP2 SWAP1 POP JUMP JUMPDEST PUSH1 0x0 PUSH1 0x40 MLOAD SWAP1 POP SWAP1 JUMP JUMPDEST PUSH1 0x0 PUSH8 0xFFFFFFFFFFFFFFFF DUP3 GT ISZERO PUSH2 0x337 JUMPI PUSH2 0x336 PUSH2 0x4F7 JUMP JUMPDEST JUMPDEST PUSH1 0x20 DUP3 MUL SWAP1 POP PUSH1 0x20 DUP2 ADD SWAP1 POP SWAP2 SWAP1 POP JUMP JUMPDEST PUSH1 0x0 DUP2 SWAP1 POP PUSH1 0x20 DUP3 ADD SWAP1 POP SWAP2 SWAP1 POP JUMP JUMPDEST PUSH1 0x0 DUP2 MLOAD SWAP1 POP SWAP2 SWAP1 POP JUMP JUMPDEST PUSH1 0x0 PUSH1 0x20 DUP3 ADD SWAP1 POP SWAP2 SWAP1 POP JUMP JUMPDEST PUSH1 0x0 DUP3 DUP3 MSTORE PUSH1 0x20 DUP3 ADD SWAP1 POP SWAP3 SWAP2 POP POP JUMP JUMPDEST PUSH1 0x0 PUSH2 0x38C DUP3 PUSH2 0x3E6 JUMP JUMPDEST SWAP2 POP PUSH2 0x397 DUP4 PUSH2 0x3E6 JUMP JUMPDEST SWAP3 POP DUP3 PUSH2 0x3A7 JUMPI PUSH2 0x3A6 PUSH2 0x499 JUMP JUMPDEST JUMPDEST DUP3 DUP3 DIV SWAP1 POP SWAP3 SWAP2 POP POP JUMP JUMPDEST PUSH1 0x0 PUSH2 0x3BD DUP3 PUSH2 0x3E6 JUMP JUMPDEST SWAP2 POP PUSH2 0x3C8 DUP4 PUSH2 0x3E6 JUMP JUMPDEST SWAP3 POP DUP3 DUP3 LT ISZERO PUSH2 0x3DB JUMPI PUSH2 0x3DA PUSH2 0x46A JUMP JUMPDEST JUMPDEST DUP3 DUP3 SUB SWAP1 POP SWAP3 SWAP2 POP POP JUMP JUMPDEST PUSH1 0x0 DUP2 SWAP1 POP SWAP2 SWAP1 POP JUMP JUMPDEST PUSH2 0x3F9 DUP3 PUSH2 0x53A JUMP JUMPDEST DUP2 ADD DUP2 DUP2 LT PUSH8 0xFFFFFFFFFFFFFFFF DUP3 GT OR ISZERO PUSH2 0x418 JUMPI PUSH2 0x417 PUSH2 0x4F7 JUMP JUMPDEST JUMPDEST DUP1 PUSH1 0x40 MSTORE POP POP POP JUMP JUMPDEST PUSH1 0x0 PUSH2 0x42C DUP3 PUSH2 0x3E6 JUMP JUMPDEST SWAP2 POP PUSH32 0xFFFFFFFFFFFFFFFFFFFFFFFFFFFFFFFFFFFFFFFFFFFFFFFFFFFFFFFFFFFFFFFF DUP3 EQ ISZERO PUSH2 0x45F JUMPI PUSH2 0x45E PUSH2 0x46A JUMP JUMPDEST JUMPDEST PUSH1 0x1 DUP3 ADD SWAP1 POP SWAP2 SWAP1 POP JUMP JUMPDEST PUSH32 0x4E487B7100000000000000000000000000000000000000000000000000000000 PUSH1 0x0 MSTORE PUSH1 0x11 PUSH1 0x4 MSTORE PUSH1 0x24 PUSH1 0x0 REVERT JUMPDEST PUSH32 0x4E487B7100000000000000000000000000000000000000000000000000000000 PUSH1 0x0 MSTORE PUSH1 0x12 PUSH1 0x4 MSTORE PUSH1 0x24 PUSH1 0x0 REVERT JUMPDEST PUSH32 0x4E487B7100000000000000000000000000000000000000000000000000000000 PUSH1 0x0 MSTORE PUSH1 0x32 PUSH1 0x4 MSTORE PUSH1 0x24 PUSH1 0x0 REVERT JUMPDEST PUSH32 0x4E487B7100000000000000000000000000000000000000000000000000000000 PUSH1 0x0 MSTORE PUSH1 0x41 PUSH1 0x4 MSTORE PUSH1 0x24 PUSH1 0x0 REVERT JUMPDEST PUSH1 0x0 DUP1 REVERT JUMPDEST PUSH1 0x0 DUP1 REVERT JUMPDEST PUSH1 0x0 DUP1 REVERT JUMPDEST PUSH1 0x0 DUP1 REVERT JUMPDEST PUSH1 0x0 PUSH1 0x1F NOT PUSH1 0x1F DUP4 ADD AND SWAP1 POP SWAP2 SWAP1 POP JUMP JUMPDEST PUSH2 0x554 DUP2 PUSH2 0x3E6 JUMP JUMPDEST DUP2 EQ PUSH2 0x55F JUMPI PUSH1 0x0 DUP1 REVERT JUMPDEST POP JUMP INVALID LOG2 PUSH5 0x6970667358 0x22 SLT KECCAK256 0xAF NUMBER 0x24 PUSH2 0xDB79 DUP4 JUMPI 0xF6 PUSH29 0xB57C9C3FB771CA235C917AEE69DD28950873D966031964736F6C634300 ADDMOD SMOD STOP CALLER "
				},
				"gasEstimates": {
					"creation": {
						"codeDepositCost": "286400",
						"executionCost": "324",
						"totalCost": "286724"
					},
					"external": {
						"reverseArray(uint256[],uint256)": "infinite"
					}
				},
				"methodIdentifiers": {
					"reverseArray(uint256[],uint256)": "7949d61a"
				}
			},
			"storageLayout": {
				"storage": [],
				"types": null
			},
			"userdoc": {
				"kind": "user",
				"methods": {},
				"version": 1
			}
		}
	}
}