{
	"32-ecommerceContract.sol": {
		"Ecommerce": {
			"abi": [
				{
					"inputs": [],
					"stateMutability": "nonpayable",
					"type": "constructor"
				},
				{
					"stateMutability": "payable",
					"type": "fallback"
				},
				{
					"inputs": [
						{
							"internalType": "uint256",
							"name": "_productId",
							"type": "uint256"
						}
					],
					"name": "buy",
					"outputs": [],
					"stateMutability": "payable",
					"type": "function"
				},
				{
					"inputs": [
						{
							"internalType": "uint256",
							"name": "_productId",
							"type": "uint256"
						}
					],
					"name": "delivery",
					"outputs": [],
					"stateMutability": "nonpayable",
					"type": "function"
				},
				{
					"inputs": [],
					"name": "destroy",
					"outputs": [],
					"stateMutability": "nonpayable",
					"type": "function"
				},
				{
					"inputs": [
						{
							"internalType": "uint256",
							"name": "",
							"type": "uint256"
						}
					],
					"name": "products",
					"outputs": [
						{
							"internalType": "string",
							"name": "title",
							"type": "string"
						},
						{
							"internalType": "string",
							"name": "desc",
							"type": "string"
						},
						{
							"internalType": "address payable",
							"name": "seller",
							"type": "address"
						},
						{
							"internalType": "uint256",
							"name": "productId",
							"type": "uint256"
						},
						{
							"internalType": "uint256",
							"name": "price",
							"type": "uint256"
						},
						{
							"internalType": "address",
							"name": "buyer",
							"type": "address"
						},
						{
							"internalType": "bool",
							"name": "delivered",
							"type": "bool"
						}
					],
					"stateMutability": "view",
					"type": "function"
				},
				{
					"inputs": [
						{
							"internalType": "string",
							"name": "_title",
							"type": "string"
						},
						{
							"internalType": "string",
							"name": "_desc",
							"type": "string"
						},
						{
							"internalType": "uint256",
							"name": "_price",
							"type": "uint256"
						}
					],
					"name": "registerProduct",
					"outputs": [],
					"stateMutability": "nonpayable",
					"type": "function"
				}
			],
			"devdoc": {
				"kind": "dev",
				"methods": {},
				"version": 1
			},
			"evm": {
				"assembly": "    /* \"32-ecommerceContract.sol\":74:2191  contract Ecommerce{\r... */\n  mstore(0x40, 0x80)\n    /* \"32-ecommerceContract.sol\":359:364  false */\n  0x00\n    /* \"32-ecommerceContract.sol\":344:364  bool destroyed=false */\n  dup1\n  exp(0x0100, 0x14)\n  dup2\n  sload\n  dup2\n  0xff\n  mul\n  not\n  and\n  swap1\n  dup4\n  iszero\n  iszero\n  mul\n  or\n  swap1\n  sstore\n  pop\n    /* \"32-ecommerceContract.sol\":460:461  1 */\n  0x01\n    /* \"32-ecommerceContract.sol\":447:461  uint counter=1 */\n  dup1\n  sstore\n    /* \"32-ecommerceContract.sol\":374:434  constructor(){\r... */\n  callvalue\n  dup1\n  iszero\n  tag_1\n  jumpi\n  0x00\n  dup1\n  revert\ntag_1:\n  pop\n    /* \"32-ecommerceContract.sol\":414:424  msg.sender */\n  caller\n    /* \"32-ecommerceContract.sol\":398:405  manager */\n  0x00\n  dup1\n    /* \"32-ecommerceContract.sol\":398:425  manager=payable(msg.sender) */\n  0x0100\n  exp\n  dup2\n  sload\n  dup2\n  0xffffffffffffffffffffffffffffffffffffffff\n  mul\n  not\n  and\n  swap1\n  dup4\n  0xffffffffffffffffffffffffffffffffffffffff\n  and\n  mul\n  or\n  swap1\n  sstore\n  pop\n    /* \"32-ecommerceContract.sol\":74:2191  contract Ecommerce{\r... */\n  dataSize(sub_0)\n  dup1\n  dataOffset(sub_0)\n  0x00\n  codecopy\n  0x00\n  return\nstop\n\nsub_0: assembly {\n        /* \"32-ecommerceContract.sol\":74:2191  contract Ecommerce{\r... */\n      mstore(0x40, 0x80)\n      jumpi(tag_1, lt(calldatasize, 0x04))\n      shr(0xe0, calldataload(0x00))\n      dup1\n      0x1144fd72\n      eq\n      tag_3\n      jumpi\n      dup1\n      0x3153a15b\n      eq\n      tag_4\n      jumpi\n      dup1\n      0x7acc0b20\n      eq\n      tag_5\n      jumpi\n      dup1\n      0x83197ef0\n      eq\n      tag_6\n      jumpi\n      dup1\n      0xd96a094a\n      eq\n      tag_7\n      jumpi\n      jump(tag_2)\n    tag_1:\n    tag_2:\n        /* \"32-ecommerceContract.sol\":2147:2157  msg.sender */\n      caller\n        /* \"32-ecommerceContract.sol\":2139:2167  payable(msg.sender).transfer */\n      0xffffffffffffffffffffffffffffffffffffffff\n      and\n        /* \"32-ecommerceContract.sol\":2139:2178  payable(msg.sender).transfer(msg.value) */\n      0x08fc\n        /* \"32-ecommerceContract.sol\":2168:2177  msg.value */\n      callvalue\n        /* \"32-ecommerceContract.sol\":2139:2178  payable(msg.sender).transfer(msg.value) */\n      swap1\n      dup2\n      iszero\n      mul\n      swap1\n      mload(0x40)\n      0x00\n      mload(0x40)\n      dup1\n      dup4\n      sub\n      dup2\n      dup6\n      dup9\n      dup9\n      call\n      swap4\n      pop\n      pop\n      pop\n      pop\n      iszero\n      dup1\n      iszero\n      tag_11\n      jumpi\n      returndatasize\n      0x00\n      dup1\n      returndatacopy\n      revert(0x00, returndatasize)\n    tag_11:\n      pop\n        /* \"32-ecommerceContract.sol\":74:2191  contract Ecommerce{\r... */\n      stop\n        /* \"32-ecommerceContract.sol\":1394:1672  function delivery(uint _productId) public isNotDestroyed{ \r... */\n    tag_3:\n      callvalue\n      dup1\n      iszero\n      tag_12\n      jumpi\n      0x00\n      dup1\n      revert\n    tag_12:\n      pop\n      tag_13\n      0x04\n      dup1\n      calldatasize\n      sub\n      dup2\n      add\n      swap1\n      tag_14\n      swap2\n      swap1\n      tag_15\n      jump\t// in\n    tag_14:\n      tag_16\n      jump\t// in\n    tag_13:\n      stop\n        /* \"32-ecommerceContract.sol\":612:1090  function registerProduct(string memory _title,string memory _desc,uint _price) public isNotDestroyed{ \r... */\n    tag_4:\n      callvalue\n      dup1\n      iszero\n      tag_17\n      jumpi\n      0x00\n      dup1\n      revert\n    tag_17:\n      pop\n      tag_18\n      0x04\n      dup1\n      calldatasize\n      sub\n      dup2\n      add\n      swap1\n      tag_19\n      swap2\n      swap1\n      tag_20\n      jump\t// in\n    tag_19:\n      tag_21\n      jump\t// in\n    tag_18:\n      stop\n        /* \"32-ecommerceContract.sol\":469:494  Product[] public products */\n    tag_5:\n      callvalue\n      dup1\n      iszero\n      tag_22\n      jumpi\n      0x00\n      dup1\n      revert\n    tag_22:\n      pop\n      tag_23\n      0x04\n      dup1\n      calldatasize\n      sub\n      dup2\n      add\n      swap1\n      tag_24\n      swap2\n      swap1\n      tag_15\n      jump\t// in\n    tag_24:\n      tag_25\n      jump\t// in\n    tag_23:\n      mload(0x40)\n      tag_26\n      swap8\n      swap7\n      swap6\n      swap5\n      swap4\n      swap3\n      swap2\n      swap1\n      tag_27\n      jump\t// in\n    tag_26:\n      mload(0x40)\n      dup1\n      swap2\n      sub\n      swap1\n      return\n        /* \"32-ecommerceContract.sol\":1897:2092  function destroy() public isNotDestroyed{ \r... */\n    tag_6:\n      callvalue\n      dup1\n      iszero\n      tag_28\n      jumpi\n      0x00\n      dup1\n      revert\n    tag_28:\n      pop\n      tag_29\n      tag_30\n      jump\t// in\n    tag_29:\n      stop\n        /* \"32-ecommerceContract.sol\":1098:1381  function buy(uint _productId) payable public isNotDestroyed{ \r... */\n    tag_7:\n      tag_31\n      0x04\n      dup1\n      calldatasize\n      sub\n      dup2\n      add\n      swap1\n      tag_32\n      swap2\n      swap1\n      tag_15\n      jump\t// in\n    tag_32:\n      tag_33\n      jump\t// in\n    tag_31:\n      stop\n        /* \"32-ecommerceContract.sol\":1394:1672  function delivery(uint _productId) public isNotDestroyed{ \r... */\n    tag_16:\n        /* \"32-ecommerceContract.sol\":547:556  destroyed */\n      0x00\n      0x14\n      swap1\n      sload\n      swap1\n      0x0100\n      exp\n      swap1\n      div\n      0xff\n      and\n        /* \"32-ecommerceContract.sol\":546:556  !destroyed */\n      iszero\n        /* \"32-ecommerceContract.sol\":538:583  require(!destroyed,\"Contract does not exist\") */\n      tag_35\n      jumpi\n      mload(0x40)\n      0x08c379a000000000000000000000000000000000000000000000000000000000\n      dup2\n      mstore\n      0x04\n      add\n      tag_36\n      swap1\n      tag_37\n      jump\t// in\n    tag_36:\n      mload(0x40)\n      dup1\n      swap2\n      sub\n      swap1\n      revert\n    tag_35:\n        /* \"32-ecommerceContract.sol\":1500:1510  msg.sender */\n      caller\n        /* \"32-ecommerceContract.sol\":1470:1510  products[_productId-1].buyer==msg.sender */\n      0xffffffffffffffffffffffffffffffffffffffff\n      and\n        /* \"32-ecommerceContract.sol\":1470:1478  products */\n      0x02\n        /* \"32-ecommerceContract.sol\":1490:1491  1 */\n      0x01\n        /* \"32-ecommerceContract.sol\":1479:1489  _productId */\n      dup4\n        /* \"32-ecommerceContract.sol\":1479:1491  _productId-1 */\n      tag_39\n      swap2\n      swap1\n      tag_40\n      jump\t// in\n    tag_39:\n        /* \"32-ecommerceContract.sol\":1470:1492  products[_productId-1] */\n      dup2\n      sload\n      dup2\n      lt\n      tag_41\n      jumpi\n      tag_42\n      tag_43\n      jump\t// in\n    tag_42:\n    tag_41:\n      swap1\n      0x00\n      mstore\n      keccak256(0x00, 0x20)\n      swap1\n      0x06\n      mul\n      add\n        /* \"32-ecommerceContract.sol\":1470:1498  products[_productId-1].buyer */\n      0x05\n      add\n      0x00\n      swap1\n      sload\n      swap1\n      0x0100\n      exp\n      swap1\n      div\n      0xffffffffffffffffffffffffffffffffffffffff\n      and\n        /* \"32-ecommerceContract.sol\":1470:1510  products[_productId-1].buyer==msg.sender */\n      0xffffffffffffffffffffffffffffffffffffffff\n      and\n      eq\n        /* \"32-ecommerceContract.sol\":1462:1536  require(products[_productId-1].buyer==msg.sender,\"Only buyer can confirm\") */\n      tag_45\n      jumpi\n      mload(0x40)\n      0x08c379a000000000000000000000000000000000000000000000000000000000\n      dup2\n      mstore\n      0x04\n      add\n      tag_46\n      swap1\n      tag_47\n      jump\t// in\n    tag_46:\n      mload(0x40)\n      dup1\n      swap2\n      sub\n      swap1\n      revert\n    tag_45:\n        /* \"32-ecommerceContract.sol\":1581:1585  true */\n      0x01\n        /* \"32-ecommerceContract.sol\":1548:1556  products */\n      0x02\n        /* \"32-ecommerceContract.sol\":1568:1569  1 */\n      0x01\n        /* \"32-ecommerceContract.sol\":1557:1567  _productId */\n      dup4\n        /* \"32-ecommerceContract.sol\":1557:1569  _productId-1 */\n      tag_48\n      swap2\n      swap1\n      tag_40\n      jump\t// in\n    tag_48:\n        /* \"32-ecommerceContract.sol\":1548:1570  products[_productId-1] */\n      dup2\n      sload\n      dup2\n      lt\n      tag_49\n      jumpi\n      tag_50\n      tag_43\n      jump\t// in\n    tag_50:\n    tag_49:\n      swap1\n      0x00\n      mstore\n      keccak256(0x00, 0x20)\n      swap1\n      0x06\n      mul\n      add\n        /* \"32-ecommerceContract.sol\":1548:1580  products[_productId-1].delivered */\n      0x05\n      add\n      0x14\n        /* \"32-ecommerceContract.sol\":1548:1585  products[_productId-1].delivered=true */\n      0x0100\n      exp\n      dup2\n      sload\n      dup2\n      0xff\n      mul\n      not\n      and\n      swap1\n      dup4\n      iszero\n      iszero\n      mul\n      or\n      swap1\n      sstore\n      pop\n        /* \"32-ecommerceContract.sol\":1596:1604  products */\n      0x02\n        /* \"32-ecommerceContract.sol\":1616:1617  1 */\n      0x01\n        /* \"32-ecommerceContract.sol\":1605:1615  _productId */\n      dup3\n        /* \"32-ecommerceContract.sol\":1605:1617  _productId-1 */\n      tag_52\n      swap2\n      swap1\n      tag_40\n      jump\t// in\n    tag_52:\n        /* \"32-ecommerceContract.sol\":1596:1618  products[_productId-1] */\n      dup2\n      sload\n      dup2\n      lt\n      tag_53\n      jumpi\n      tag_54\n      tag_43\n      jump\t// in\n    tag_54:\n    tag_53:\n      swap1\n      0x00\n      mstore\n      keccak256(0x00, 0x20)\n      swap1\n      0x06\n      mul\n      add\n        /* \"32-ecommerceContract.sol\":1596:1625  products[_productId-1].seller */\n      0x02\n      add\n      0x00\n      swap1\n      sload\n      swap1\n      0x0100\n      exp\n      swap1\n      div\n      0xffffffffffffffffffffffffffffffffffffffff\n      and\n        /* \"32-ecommerceContract.sol\":1596:1634  products[_productId-1].seller.transfer */\n      0xffffffffffffffffffffffffffffffffffffffff\n      and\n        /* \"32-ecommerceContract.sol\":1596:1664  products[_productId-1].seller.transfer(products[_productId-1].price) */\n      0x08fc\n        /* \"32-ecommerceContract.sol\":1635:1643  products */\n      0x02\n        /* \"32-ecommerceContract.sol\":1655:1656  1 */\n      0x01\n        /* \"32-ecommerceContract.sol\":1644:1654  _productId */\n      dup5\n        /* \"32-ecommerceContract.sol\":1644:1656  _productId-1 */\n      tag_56\n      swap2\n      swap1\n      tag_40\n      jump\t// in\n    tag_56:\n        /* \"32-ecommerceContract.sol\":1635:1657  products[_productId-1] */\n      dup2\n      sload\n      dup2\n      lt\n      tag_57\n      jumpi\n      tag_58\n      tag_43\n      jump\t// in\n    tag_58:\n    tag_57:\n      swap1\n      0x00\n      mstore\n      keccak256(0x00, 0x20)\n      swap1\n      0x06\n      mul\n      add\n        /* \"32-ecommerceContract.sol\":1635:1663  products[_productId-1].price */\n      0x04\n      add\n      sload\n        /* \"32-ecommerceContract.sol\":1596:1664  products[_productId-1].seller.transfer(products[_productId-1].price) */\n      swap1\n      dup2\n      iszero\n      mul\n      swap1\n      mload(0x40)\n      0x00\n      mload(0x40)\n      dup1\n      dup4\n      sub\n      dup2\n      dup6\n      dup9\n      dup9\n      call\n      swap4\n      pop\n      pop\n      pop\n      pop\n      iszero\n      dup1\n      iszero\n      tag_61\n      jumpi\n      returndatasize\n      0x00\n      dup1\n      returndatacopy\n      revert(0x00, returndatasize)\n    tag_61:\n      pop\n        /* \"32-ecommerceContract.sol\":1394:1672  function delivery(uint _productId) public isNotDestroyed{ \r... */\n      pop\n      jump\t// out\n        /* \"32-ecommerceContract.sol\":612:1090  function registerProduct(string memory _title,string memory _desc,uint _price) public isNotDestroyed{ \r... */\n    tag_21:\n        /* \"32-ecommerceContract.sol\":547:556  destroyed */\n      0x00\n      0x14\n      swap1\n      sload\n      swap1\n      0x0100\n      exp\n      swap1\n      div\n      0xff\n      and\n        /* \"32-ecommerceContract.sol\":546:556  !destroyed */\n      iszero\n        /* \"32-ecommerceContract.sol\":538:583  require(!destroyed,\"Contract does not exist\") */\n      tag_63\n      jumpi\n      mload(0x40)\n      0x08c379a000000000000000000000000000000000000000000000000000000000\n      dup2\n      mstore\n      0x04\n      add\n      tag_64\n      swap1\n      tag_37\n      jump\t// in\n    tag_64:\n      mload(0x40)\n      dup1\n      swap2\n      sub\n      swap1\n      revert\n    tag_63:\n        /* \"32-ecommerceContract.sol\":739:740  0 */\n      0x00\n        /* \"32-ecommerceContract.sol\":732:738  _price */\n      dup2\n        /* \"32-ecommerceContract.sol\":732:740  _price>0 */\n      gt\n        /* \"32-ecommerceContract.sol\":724:777  require(_price>0,\"Price should be greater than zero\") */\n      tag_66\n      jumpi\n      mload(0x40)\n      0x08c379a000000000000000000000000000000000000000000000000000000000\n      dup2\n      mstore\n      0x04\n      add\n      tag_67\n      swap1\n      tag_68\n      jump\t// in\n    tag_67:\n      mload(0x40)\n      dup1\n      swap2\n      sub\n      swap1\n      revert\n    tag_66:\n        /* \"32-ecommerceContract.sol\":789:815  Product memory tempProduct */\n      tag_69\n      tag_70\n      jump\t// in\n    tag_69:\n        /* \"32-ecommerceContract.sol\":846:852  _title */\n      dup4\n        /* \"32-ecommerceContract.sol\":827:838  tempProduct */\n      dup2\n        /* \"32-ecommerceContract.sol\":827:844  tempProduct.title */\n      0x00\n      add\n        /* \"32-ecommerceContract.sol\":827:852  tempProduct.title =_title */\n      dup2\n      swap1\n      mstore\n      pop\n        /* \"32-ecommerceContract.sol\":881:886  _desc */\n      dup3\n        /* \"32-ecommerceContract.sol\":864:875  tempProduct */\n      dup2\n        /* \"32-ecommerceContract.sol\":864:880  tempProduct.desc */\n      0x20\n      add\n        /* \"32-ecommerceContract.sol\":864:886  tempProduct.desc=_desc */\n      dup2\n      swap1\n      mstore\n      pop\n        /* \"32-ecommerceContract.sol\":925:931  10**18 */\n      0x0de0b6b3a7640000\n        /* \"32-ecommerceContract.sol\":916:922  _price */\n      dup3\n        /* \"32-ecommerceContract.sol\":916:931  _price * 10**18 */\n      tag_71\n      swap2\n      swap1\n      tag_72\n      jump\t// in\n    tag_71:\n        /* \"32-ecommerceContract.sol\":898:909  tempProduct */\n      dup2\n        /* \"32-ecommerceContract.sol\":898:915  tempProduct.price */\n      0x80\n      add\n        /* \"32-ecommerceContract.sol\":898:931  tempProduct.price=_price * 10**18 */\n      dup2\n      dup2\n      mstore\n      pop\n      pop\n        /* \"32-ecommerceContract.sol\":970:980  msg.sender */\n      caller\n        /* \"32-ecommerceContract.sol\":943:954  tempProduct */\n      dup2\n        /* \"32-ecommerceContract.sol\":943:961  tempProduct.seller */\n      0x40\n      add\n        /* \"32-ecommerceContract.sol\":943:981  tempProduct.seller=payable(msg.sender) */\n      swap1\n      0xffffffffffffffffffffffffffffffffffffffff\n      and\n      swap1\n      dup2\n      0xffffffffffffffffffffffffffffffffffffffff\n      and\n      dup2\n      mstore\n      pop\n      pop\n        /* \"32-ecommerceContract.sol\":1015:1022  counter */\n      sload(0x01)\n        /* \"32-ecommerceContract.sol\":993:1004  tempProduct */\n      dup2\n        /* \"32-ecommerceContract.sol\":993:1014  tempProduct.productId */\n      0x60\n      add\n        /* \"32-ecommerceContract.sol\":993:1022  tempProduct.productId=counter */\n      dup2\n      dup2\n      mstore\n      pop\n      pop\n        /* \"32-ecommerceContract.sol\":1034:1042  products */\n      0x02\n        /* \"32-ecommerceContract.sol\":1048:1059  tempProduct */\n      dup2\n        /* \"32-ecommerceContract.sol\":1034:1060  products.push(tempProduct) */\n      swap1\n      dup1\n      0x01\n      dup2\n      sload\n      add\n      dup1\n      dup3\n      sstore\n      dup1\n      swap2\n      pop\n      pop\n      0x01\n      swap1\n      sub\n      swap1\n      0x00\n      mstore\n      keccak256(0x00, 0x20)\n      swap1\n      0x06\n      mul\n      add\n      0x00\n      swap1\n      swap2\n      swap1\n      swap2\n      swap1\n      swap2\n      pop\n      0x00\n      dup3\n      add\n      mload\n      dup2\n      0x00\n      add\n      swap1\n      dup1\n      mload\n      swap1\n      0x20\n      add\n      swap1\n      tag_74\n      swap3\n      swap2\n      swap1\n      tag_75\n      jump\t// in\n    tag_74:\n      pop\n      0x20\n      dup3\n      add\n      mload\n      dup2\n      0x01\n      add\n      swap1\n      dup1\n      mload\n      swap1\n      0x20\n      add\n      swap1\n      tag_76\n      swap3\n      swap2\n      swap1\n      tag_75\n      jump\t// in\n    tag_76:\n      pop\n      0x40\n      dup3\n      add\n      mload\n      dup2\n      0x02\n      add\n      exp(0x0100, 0x00)\n      dup2\n      sload\n      dup2\n      0xffffffffffffffffffffffffffffffffffffffff\n      mul\n      not\n      and\n      swap1\n      dup4\n      0xffffffffffffffffffffffffffffffffffffffff\n      and\n      mul\n      or\n      swap1\n      sstore\n      pop\n      0x60\n      dup3\n      add\n      mload\n      dup2\n      0x03\n      add\n      sstore\n      0x80\n      dup3\n      add\n      mload\n      dup2\n      0x04\n      add\n      sstore\n      0xa0\n      dup3\n      add\n      mload\n      dup2\n      0x05\n      add\n      exp(0x0100, 0x00)\n      dup2\n      sload\n      dup2\n      0xffffffffffffffffffffffffffffffffffffffff\n      mul\n      not\n      and\n      swap1\n      dup4\n      0xffffffffffffffffffffffffffffffffffffffff\n      and\n      mul\n      or\n      swap1\n      sstore\n      pop\n      0xc0\n      dup3\n      add\n      mload\n      dup2\n      0x05\n      add\n      exp(0x0100, 0x14)\n      dup2\n      sload\n      dup2\n      0xff\n      mul\n      not\n      and\n      swap1\n      dup4\n      iszero\n      iszero\n      mul\n      or\n      swap1\n      sstore\n      pop\n      pop\n      pop\n        /* \"32-ecommerceContract.sol\":1072:1079  counter */\n      0x01\n      0x00\n        /* \"32-ecommerceContract.sol\":1072:1081  counter++ */\n      dup2\n      sload\n      dup1\n      swap3\n      swap2\n      swap1\n      tag_77\n      swap1\n      tag_78\n      jump\t// in\n    tag_77:\n      swap2\n      swap1\n      pop\n      sstore\n      pop\n        /* \"32-ecommerceContract.sol\":712:1090  { \r... */\n      pop\n        /* \"32-ecommerceContract.sol\":612:1090  function registerProduct(string memory _title,string memory _desc,uint _price) public isNotDestroyed{ \r... */\n      pop\n      pop\n      pop\n      jump\t// out\n        /* \"32-ecommerceContract.sol\":469:494  Product[] public products */\n    tag_25:\n      0x02\n      dup2\n      dup2\n      sload\n      dup2\n      lt\n      tag_79\n      jumpi\n      0x00\n      dup1\n      revert\n    tag_79:\n      swap1\n      0x00\n      mstore\n      keccak256(0x00, 0x20)\n      swap1\n      0x06\n      mul\n      add\n      0x00\n      swap2\n      pop\n      swap1\n      pop\n      dup1\n      0x00\n      add\n      dup1\n      sload\n      tag_81\n      swap1\n      tag_82\n      jump\t// in\n    tag_81:\n      dup1\n      0x1f\n      add\n      0x20\n      dup1\n      swap2\n      div\n      mul\n      0x20\n      add\n      mload(0x40)\n      swap1\n      dup2\n      add\n      0x40\n      mstore\n      dup1\n      swap3\n      swap2\n      swap1\n      dup2\n      dup2\n      mstore\n      0x20\n      add\n      dup3\n      dup1\n      sload\n      tag_83\n      swap1\n      tag_82\n      jump\t// in\n    tag_83:\n      dup1\n      iszero\n      tag_84\n      jumpi\n      dup1\n      0x1f\n      lt\n      tag_85\n      jumpi\n      0x0100\n      dup1\n      dup4\n      sload\n      div\n      mul\n      dup4\n      mstore\n      swap2\n      0x20\n      add\n      swap2\n      jump(tag_84)\n    tag_85:\n      dup3\n      add\n      swap2\n      swap1\n      0x00\n      mstore\n      keccak256(0x00, 0x20)\n      swap1\n    tag_86:\n      dup2\n      sload\n      dup2\n      mstore\n      swap1\n      0x01\n      add\n      swap1\n      0x20\n      add\n      dup1\n      dup4\n      gt\n      tag_86\n      jumpi\n      dup3\n      swap1\n      sub\n      0x1f\n      and\n      dup3\n      add\n      swap2\n    tag_84:\n      pop\n      pop\n      pop\n      pop\n      pop\n      swap1\n      dup1\n      0x01\n      add\n      dup1\n      sload\n      tag_87\n      swap1\n      tag_82\n      jump\t// in\n    tag_87:\n      dup1\n      0x1f\n      add\n      0x20\n      dup1\n      swap2\n      div\n      mul\n      0x20\n      add\n      mload(0x40)\n      swap1\n      dup2\n      add\n      0x40\n      mstore\n      dup1\n      swap3\n      swap2\n      swap1\n      dup2\n      dup2\n      mstore\n      0x20\n      add\n      dup3\n      dup1\n      sload\n      tag_88\n      swap1\n      tag_82\n      jump\t// in\n    tag_88:\n      dup1\n      iszero\n      tag_89\n      jumpi\n      dup1\n      0x1f\n      lt\n      tag_90\n      jumpi\n      0x0100\n      dup1\n      dup4\n      sload\n      div\n      mul\n      dup4\n      mstore\n      swap2\n      0x20\n      add\n      swap2\n      jump(tag_89)\n    tag_90:\n      dup3\n      add\n      swap2\n      swap1\n      0x00\n      mstore\n      keccak256(0x00, 0x20)\n      swap1\n    tag_91:\n      dup2\n      sload\n      dup2\n      mstore\n      swap1\n      0x01\n      add\n      swap1\n      0x20\n      add\n      dup1\n      dup4\n      gt\n      tag_91\n      jumpi\n      dup3\n      swap1\n      sub\n      0x1f\n      and\n      dup3\n      add\n      swap2\n    tag_89:\n      pop\n      pop\n      pop\n      pop\n      pop\n      swap1\n      dup1\n      0x02\n      add\n      0x00\n      swap1\n      sload\n      swap1\n      0x0100\n      exp\n      swap1\n      div\n      0xffffffffffffffffffffffffffffffffffffffff\n      and\n      swap1\n      dup1\n      0x03\n      add\n      sload\n      swap1\n      dup1\n      0x04\n      add\n      sload\n      swap1\n      dup1\n      0x05\n      add\n      0x00\n      swap1\n      sload\n      swap1\n      0x0100\n      exp\n      swap1\n      div\n      0xffffffffffffffffffffffffffffffffffffffff\n      and\n      swap1\n      dup1\n      0x05\n      add\n      0x14\n      swap1\n      sload\n      swap1\n      0x0100\n      exp\n      swap1\n      div\n      0xff\n      and\n      swap1\n      pop\n      dup8\n      jump\t// out\n        /* \"32-ecommerceContract.sol\":1897:2092  function destroy() public isNotDestroyed{ \r... */\n    tag_30:\n        /* \"32-ecommerceContract.sol\":547:556  destroyed */\n      0x00\n      0x14\n      swap1\n      sload\n      swap1\n      0x0100\n      exp\n      swap1\n      div\n      0xff\n      and\n        /* \"32-ecommerceContract.sol\":546:556  !destroyed */\n      iszero\n        /* \"32-ecommerceContract.sol\":538:583  require(!destroyed,\"Contract does not exist\") */\n      tag_93\n      jumpi\n      mload(0x40)\n      0x08c379a000000000000000000000000000000000000000000000000000000000\n      dup2\n      mstore\n      0x04\n      add\n      tag_94\n      swap1\n      tag_37\n      jump\t// in\n    tag_94:\n      mload(0x40)\n      dup1\n      swap2\n      sub\n      swap1\n      revert\n    tag_93:\n        /* \"32-ecommerceContract.sol\":1966:1976  msg.sender */\n      caller\n        /* \"32-ecommerceContract.sol\":1957:1976  manager==msg.sender */\n      0xffffffffffffffffffffffffffffffffffffffff\n      and\n        /* \"32-ecommerceContract.sol\":1957:1964  manager */\n      0x00\n      dup1\n      sload\n      swap1\n      0x0100\n      exp\n      swap1\n      div\n      0xffffffffffffffffffffffffffffffffffffffff\n      and\n        /* \"32-ecommerceContract.sol\":1957:1976  manager==msg.sender */\n      0xffffffffffffffffffffffffffffffffffffffff\n      and\n      eq\n        /* \"32-ecommerceContract.sol\":1949:2006  require(manager==msg.sender,\"only manager can call this\") */\n      tag_96\n      jumpi\n      mload(0x40)\n      0x08c379a000000000000000000000000000000000000000000000000000000000\n      dup2\n      mstore\n      0x04\n      add\n      tag_97\n      swap1\n      tag_98\n      jump\t// in\n    tag_97:\n      mload(0x40)\n      dup1\n      swap2\n      sub\n      swap1\n      revert\n    tag_96:\n        /* \"32-ecommerceContract.sol\":2018:2025  manager */\n      0x00\n      dup1\n      sload\n      swap1\n      0x0100\n      exp\n      swap1\n      div\n      0xffffffffffffffffffffffffffffffffffffffff\n      and\n        /* \"32-ecommerceContract.sol\":2018:2034  manager.transfer */\n      0xffffffffffffffffffffffffffffffffffffffff\n      and\n        /* \"32-ecommerceContract.sol\":2018:2057  manager.transfer(address(this).balance) */\n      0x08fc\n        /* \"32-ecommerceContract.sol\":2035:2056  address(this).balance */\n      selfbalance\n        /* \"32-ecommerceContract.sol\":2018:2057  manager.transfer(address(this).balance) */\n      swap1\n      dup2\n      iszero\n      mul\n      swap1\n      mload(0x40)\n      0x00\n      mload(0x40)\n      dup1\n      dup4\n      sub\n      dup2\n      dup6\n      dup9\n      dup9\n      call\n      swap4\n      pop\n      pop\n      pop\n      pop\n      iszero\n      dup1\n      iszero\n      tag_100\n      jumpi\n      returndatasize\n      0x00\n      dup1\n      returndatacopy\n      revert(0x00, returndatasize)\n    tag_100:\n      pop\n        /* \"32-ecommerceContract.sol\":2079:2083  true */\n      0x01\n        /* \"32-ecommerceContract.sol\":2069:2078  destroyed */\n      0x00\n      0x14\n        /* \"32-ecommerceContract.sol\":2069:2083  destroyed=true */\n      0x0100\n      exp\n      dup2\n      sload\n      dup2\n      0xff\n      mul\n      not\n      and\n      swap1\n      dup4\n      iszero\n      iszero\n      mul\n      or\n      swap1\n      sstore\n      pop\n        /* \"32-ecommerceContract.sol\":1897:2092  function destroy() public isNotDestroyed{ \r... */\n      jump\t// out\n        /* \"32-ecommerceContract.sol\":1098:1381  function buy(uint _productId) payable public isNotDestroyed{ \r... */\n    tag_33:\n        /* \"32-ecommerceContract.sol\":547:556  destroyed */\n      0x00\n      0x14\n      swap1\n      sload\n      swap1\n      0x0100\n      exp\n      swap1\n      div\n      0xff\n      and\n        /* \"32-ecommerceContract.sol\":546:556  !destroyed */\n      iszero\n        /* \"32-ecommerceContract.sol\":538:583  require(!destroyed,\"Contract does not exist\") */\n      tag_102\n      jumpi\n      mload(0x40)\n      0x08c379a000000000000000000000000000000000000000000000000000000000\n      dup2\n      mstore\n      0x04\n      add\n      tag_103\n      swap1\n      tag_37\n      jump\t// in\n    tag_103:\n      mload(0x40)\n      dup1\n      swap2\n      sub\n      swap1\n      revert\n    tag_102:\n        /* \"32-ecommerceContract.sol\":1207:1216  msg.value */\n      callvalue\n        /* \"32-ecommerceContract.sol\":1177:1185  products */\n      0x02\n        /* \"32-ecommerceContract.sol\":1197:1198  1 */\n      0x01\n        /* \"32-ecommerceContract.sol\":1186:1196  _productId */\n      dup4\n        /* \"32-ecommerceContract.sol\":1186:1198  _productId-1 */\n      tag_105\n      swap2\n      swap1\n      tag_40\n      jump\t// in\n    tag_105:\n        /* \"32-ecommerceContract.sol\":1177:1199  products[_productId-1] */\n      dup2\n      sload\n      dup2\n      lt\n      tag_106\n      jumpi\n      tag_107\n      tag_43\n      jump\t// in\n    tag_107:\n    tag_106:\n      swap1\n      0x00\n      mstore\n      keccak256(0x00, 0x20)\n      swap1\n      0x06\n      mul\n      add\n        /* \"32-ecommerceContract.sol\":1177:1205  products[_productId-1].price */\n      0x04\n      add\n      sload\n        /* \"32-ecommerceContract.sol\":1177:1216  products[_productId-1].price==msg.value */\n      eq\n        /* \"32-ecommerceContract.sol\":1169:1239  require(products[_productId-1].price==msg.value,\"Pay the exact price\") */\n      tag_109\n      jumpi\n      mload(0x40)\n      0x08c379a000000000000000000000000000000000000000000000000000000000\n      dup2\n      mstore\n      0x04\n      add\n      tag_110\n      swap1\n      tag_111\n      jump\t// in\n    tag_110:\n      mload(0x40)\n      dup1\n      swap2\n      sub\n      swap1\n      revert\n    tag_109:\n        /* \"32-ecommerceContract.sol\":1290:1300  msg.sender */\n      caller\n        /* \"32-ecommerceContract.sol\":1259:1300  products[_productId-1].seller!=msg.sender */\n      0xffffffffffffffffffffffffffffffffffffffff\n      and\n        /* \"32-ecommerceContract.sol\":1259:1267  products */\n      0x02\n        /* \"32-ecommerceContract.sol\":1279:1280  1 */\n      0x01\n        /* \"32-ecommerceContract.sol\":1268:1278  _productId */\n      dup4\n        /* \"32-ecommerceContract.sol\":1268:1280  _productId-1 */\n      tag_112\n      swap2\n      swap1\n      tag_40\n      jump\t// in\n    tag_112:\n        /* \"32-ecommerceContract.sol\":1259:1281  products[_productId-1] */\n      dup2\n      sload\n      dup2\n      lt\n      tag_113\n      jumpi\n      tag_114\n      tag_43\n      jump\t// in\n    tag_114:\n    tag_113:\n      swap1\n      0x00\n      mstore\n      keccak256(0x00, 0x20)\n      swap1\n      0x06\n      mul\n      add\n        /* \"32-ecommerceContract.sol\":1259:1288  products[_productId-1].seller */\n      0x02\n      add\n      0x00\n      swap1\n      sload\n      swap1\n      0x0100\n      exp\n      swap1\n      div\n      0xffffffffffffffffffffffffffffffffffffffff\n      and\n        /* \"32-ecommerceContract.sol\":1259:1300  products[_productId-1].seller!=msg.sender */\n      0xffffffffffffffffffffffffffffffffffffffff\n      and\n      eq\n      iszero\n        /* \"32-ecommerceContract.sol\":1251:1321  require(products[_productId-1].seller!=msg.sender,\"Seller cannot buy\") */\n      tag_116\n      jumpi\n      mload(0x40)\n      0x08c379a000000000000000000000000000000000000000000000000000000000\n      dup2\n      mstore\n      0x04\n      add\n      tag_117\n      swap1\n      tag_118\n      jump\t// in\n    tag_117:\n      mload(0x40)\n      dup1\n      swap2\n      sub\n      swap1\n      revert\n    tag_116:\n        /* \"32-ecommerceContract.sol\":1362:1372  msg.sender */\n      caller\n        /* \"32-ecommerceContract.sol\":1333:1341  products */\n      0x02\n        /* \"32-ecommerceContract.sol\":1353:1354  1 */\n      0x01\n        /* \"32-ecommerceContract.sol\":1342:1352  _productId */\n      dup4\n        /* \"32-ecommerceContract.sol\":1342:1354  _productId-1 */\n      tag_119\n      swap2\n      swap1\n      tag_40\n      jump\t// in\n    tag_119:\n        /* \"32-ecommerceContract.sol\":1333:1355  products[_productId-1] */\n      dup2\n      sload\n      dup2\n      lt\n      tag_120\n      jumpi\n      tag_121\n      tag_43\n      jump\t// in\n    tag_121:\n    tag_120:\n      swap1\n      0x00\n      mstore\n      keccak256(0x00, 0x20)\n      swap1\n      0x06\n      mul\n      add\n        /* \"32-ecommerceContract.sol\":1333:1361  products[_productId-1].buyer */\n      0x05\n      add\n      0x00\n        /* \"32-ecommerceContract.sol\":1333:1372  products[_productId-1].buyer=msg.sender */\n      0x0100\n      exp\n      dup2\n      sload\n      dup2\n      0xffffffffffffffffffffffffffffffffffffffff\n      mul\n      not\n      and\n      swap1\n      dup4\n      0xffffffffffffffffffffffffffffffffffffffff\n      and\n      mul\n      or\n      swap1\n      sstore\n      pop\n        /* \"32-ecommerceContract.sol\":1098:1381  function buy(uint _productId) payable public isNotDestroyed{ \r... */\n      pop\n      jump\t// out\n    tag_70:\n      mload(0x40)\n      dup1\n      0xe0\n      add\n      0x40\n      mstore\n      dup1\n      0x60\n      dup2\n      mstore\n      0x20\n      add\n      0x60\n      dup2\n      mstore\n      0x20\n      add\n      and(0xffffffffffffffffffffffffffffffffffffffff, 0x00)\n      dup2\n      mstore\n      0x20\n      add\n      0x00\n      dup2\n      mstore\n      0x20\n      add\n      0x00\n      dup2\n      mstore\n      0x20\n      add\n      and(0xffffffffffffffffffffffffffffffffffffffff, 0x00)\n      dup2\n      mstore\n      0x20\n      add\n      iszero(iszero(0x00))\n      dup2\n      mstore\n      pop\n      swap1\n      jump\t// out\n    tag_75:\n      dup3\n      dup1\n      sload\n      tag_123\n      swap1\n      tag_82\n      jump\t// in\n    tag_123:\n      swap1\n      0x00\n      mstore\n      keccak256(0x00, 0x20)\n      swap1\n      0x1f\n      add\n      0x20\n      swap1\n      div\n      dup2\n      add\n      swap3\n      dup3\n      tag_125\n      jumpi\n      0x00\n      dup6\n      sstore\n      jump(tag_124)\n    tag_125:\n      dup3\n      0x1f\n      lt\n      tag_126\n      jumpi\n      dup1\n      mload\n      not(0xff)\n      and\n      dup4\n      dup1\n      add\n      or\n      dup6\n      sstore\n      jump(tag_124)\n    tag_126:\n      dup3\n      dup1\n      add\n      0x01\n      add\n      dup6\n      sstore\n      dup3\n      iszero\n      tag_124\n      jumpi\n      swap2\n      dup3\n      add\n    tag_127:\n      dup3\n      dup2\n      gt\n      iszero\n      tag_128\n      jumpi\n      dup3\n      mload\n      dup3\n      sstore\n      swap2\n      0x20\n      add\n      swap2\n      swap1\n      0x01\n      add\n      swap1\n      jump(tag_127)\n    tag_128:\n    tag_124:\n      pop\n      swap1\n      pop\n      tag_129\n      swap2\n      swap1\n      tag_130\n      jump\t// in\n    tag_129:\n      pop\n      swap1\n      jump\t// out\n    tag_130:\n    tag_131:\n      dup1\n      dup3\n      gt\n      iszero\n      tag_132\n      jumpi\n      0x00\n      dup2\n      0x00\n      swap1\n      sstore\n      pop\n      0x01\n      add\n      jump(tag_131)\n    tag_132:\n      pop\n      swap1\n      jump\t// out\n        /* \"#utility.yul\":7:419   */\n    tag_134:\n        /* \"#utility.yul\":85:90   */\n      0x00\n        /* \"#utility.yul\":110:176   */\n      tag_136\n        /* \"#utility.yul\":126:175   */\n      tag_137\n        /* \"#utility.yul\":168:174   */\n      dup5\n        /* \"#utility.yul\":126:175   */\n      tag_138\n      jump\t// in\n    tag_137:\n        /* \"#utility.yul\":110:176   */\n      tag_139\n      jump\t// in\n    tag_136:\n        /* \"#utility.yul\":101:176   */\n      swap1\n      pop\n        /* \"#utility.yul\":199:205   */\n      dup3\n        /* \"#utility.yul\":192:197   */\n      dup2\n        /* \"#utility.yul\":185:206   */\n      mstore\n        /* \"#utility.yul\":237:241   */\n      0x20\n        /* \"#utility.yul\":230:235   */\n      dup2\n        /* \"#utility.yul\":226:242   */\n      add\n        /* \"#utility.yul\":275:278   */\n      dup5\n        /* \"#utility.yul\":266:272   */\n      dup5\n        /* \"#utility.yul\":261:264   */\n      dup5\n        /* \"#utility.yul\":257:273   */\n      add\n        /* \"#utility.yul\":254:279   */\n      gt\n        /* \"#utility.yul\":251:363   */\n      iszero\n      tag_140\n      jumpi\n        /* \"#utility.yul\":282:361   */\n      tag_141\n      tag_142\n      jump\t// in\n    tag_141:\n        /* \"#utility.yul\":251:363   */\n    tag_140:\n        /* \"#utility.yul\":372:413   */\n      tag_143\n        /* \"#utility.yul\":406:412   */\n      dup5\n        /* \"#utility.yul\":401:404   */\n      dup3\n        /* \"#utility.yul\":396:399   */\n      dup6\n        /* \"#utility.yul\":372:413   */\n      tag_144\n      jump\t// in\n    tag_143:\n        /* \"#utility.yul\":91:419   */\n      pop\n        /* \"#utility.yul\":7:419   */\n      swap4\n      swap3\n      pop\n      pop\n      pop\n      jump\t// out\n        /* \"#utility.yul\":439:779   */\n    tag_145:\n        /* \"#utility.yul\":495:500   */\n      0x00\n        /* \"#utility.yul\":544:547   */\n      dup3\n        /* \"#utility.yul\":537:541   */\n      0x1f\n        /* \"#utility.yul\":529:535   */\n      dup4\n        /* \"#utility.yul\":525:542   */\n      add\n        /* \"#utility.yul\":521:548   */\n      slt\n        /* \"#utility.yul\":511:633   */\n      tag_147\n      jumpi\n        /* \"#utility.yul\":552:631   */\n      tag_148\n      tag_149\n      jump\t// in\n    tag_148:\n        /* \"#utility.yul\":511:633   */\n    tag_147:\n        /* \"#utility.yul\":669:675   */\n      dup2\n        /* \"#utility.yul\":656:676   */\n      calldataload\n        /* \"#utility.yul\":694:773   */\n      tag_150\n        /* \"#utility.yul\":769:772   */\n      dup5\n        /* \"#utility.yul\":761:767   */\n      dup3\n        /* \"#utility.yul\":754:758   */\n      0x20\n        /* \"#utility.yul\":746:752   */\n      dup7\n        /* \"#utility.yul\":742:759   */\n      add\n        /* \"#utility.yul\":694:773   */\n      tag_134\n      jump\t// in\n    tag_150:\n        /* \"#utility.yul\":685:773   */\n      swap2\n      pop\n        /* \"#utility.yul\":501:779   */\n      pop\n        /* \"#utility.yul\":439:779   */\n      swap3\n      swap2\n      pop\n      pop\n      jump\t// out\n        /* \"#utility.yul\":785:924   */\n    tag_151:\n        /* \"#utility.yul\":831:836   */\n      0x00\n        /* \"#utility.yul\":869:875   */\n      dup2\n        /* \"#utility.yul\":856:876   */\n      calldataload\n        /* \"#utility.yul\":847:876   */\n      swap1\n      pop\n        /* \"#utility.yul\":885:918   */\n      tag_153\n        /* \"#utility.yul\":912:917   */\n      dup2\n        /* \"#utility.yul\":885:918   */\n      tag_154\n      jump\t// in\n    tag_153:\n        /* \"#utility.yul\":785:924   */\n      swap3\n      swap2\n      pop\n      pop\n      jump\t// out\n        /* \"#utility.yul\":930:1909   */\n    tag_20:\n        /* \"#utility.yul\":1027:1033   */\n      0x00\n        /* \"#utility.yul\":1035:1041   */\n      dup1\n        /* \"#utility.yul\":1043:1049   */\n      0x00\n        /* \"#utility.yul\":1092:1094   */\n      0x60\n        /* \"#utility.yul\":1080:1089   */\n      dup5\n        /* \"#utility.yul\":1071:1078   */\n      dup7\n        /* \"#utility.yul\":1067:1090   */\n      sub\n        /* \"#utility.yul\":1063:1095   */\n      slt\n        /* \"#utility.yul\":1060:1179   */\n      iszero\n      tag_156\n      jumpi\n        /* \"#utility.yul\":1098:1177   */\n      tag_157\n      tag_158\n      jump\t// in\n    tag_157:\n        /* \"#utility.yul\":1060:1179   */\n    tag_156:\n        /* \"#utility.yul\":1246:1247   */\n      0x00\n        /* \"#utility.yul\":1235:1244   */\n      dup5\n        /* \"#utility.yul\":1231:1248   */\n      add\n        /* \"#utility.yul\":1218:1249   */\n      calldataload\n        /* \"#utility.yul\":1276:1294   */\n      0xffffffffffffffff\n        /* \"#utility.yul\":1268:1274   */\n      dup2\n        /* \"#utility.yul\":1265:1295   */\n      gt\n        /* \"#utility.yul\":1262:1379   */\n      iszero\n      tag_159\n      jumpi\n        /* \"#utility.yul\":1298:1377   */\n      tag_160\n      tag_161\n      jump\t// in\n    tag_160:\n        /* \"#utility.yul\":1262:1379   */\n    tag_159:\n        /* \"#utility.yul\":1403:1466   */\n      tag_162\n        /* \"#utility.yul\":1458:1465   */\n      dup7\n        /* \"#utility.yul\":1449:1455   */\n      dup3\n        /* \"#utility.yul\":1438:1447   */\n      dup8\n        /* \"#utility.yul\":1434:1456   */\n      add\n        /* \"#utility.yul\":1403:1466   */\n      tag_145\n      jump\t// in\n    tag_162:\n        /* \"#utility.yul\":1393:1466   */\n      swap4\n      pop\n        /* \"#utility.yul\":1189:1476   */\n      pop\n        /* \"#utility.yul\":1543:1545   */\n      0x20\n        /* \"#utility.yul\":1532:1541   */\n      dup5\n        /* \"#utility.yul\":1528:1546   */\n      add\n        /* \"#utility.yul\":1515:1547   */\n      calldataload\n        /* \"#utility.yul\":1574:1592   */\n      0xffffffffffffffff\n        /* \"#utility.yul\":1566:1572   */\n      dup2\n        /* \"#utility.yul\":1563:1593   */\n      gt\n        /* \"#utility.yul\":1560:1677   */\n      iszero\n      tag_163\n      jumpi\n        /* \"#utility.yul\":1596:1675   */\n      tag_164\n      tag_161\n      jump\t// in\n    tag_164:\n        /* \"#utility.yul\":1560:1677   */\n    tag_163:\n        /* \"#utility.yul\":1701:1764   */\n      tag_165\n        /* \"#utility.yul\":1756:1763   */\n      dup7\n        /* \"#utility.yul\":1747:1753   */\n      dup3\n        /* \"#utility.yul\":1736:1745   */\n      dup8\n        /* \"#utility.yul\":1732:1754   */\n      add\n        /* \"#utility.yul\":1701:1764   */\n      tag_145\n      jump\t// in\n    tag_165:\n        /* \"#utility.yul\":1691:1764   */\n      swap3\n      pop\n        /* \"#utility.yul\":1486:1774   */\n      pop\n        /* \"#utility.yul\":1813:1815   */\n      0x40\n        /* \"#utility.yul\":1839:1892   */\n      tag_166\n        /* \"#utility.yul\":1884:1891   */\n      dup7\n        /* \"#utility.yul\":1875:1881   */\n      dup3\n        /* \"#utility.yul\":1864:1873   */\n      dup8\n        /* \"#utility.yul\":1860:1882   */\n      add\n        /* \"#utility.yul\":1839:1892   */\n      tag_151\n      jump\t// in\n    tag_166:\n        /* \"#utility.yul\":1829:1892   */\n      swap2\n      pop\n        /* \"#utility.yul\":1784:1902   */\n      pop\n        /* \"#utility.yul\":930:1909   */\n      swap3\n      pop\n      swap3\n      pop\n      swap3\n      jump\t// out\n        /* \"#utility.yul\":1915:2244   */\n    tag_15:\n        /* \"#utility.yul\":1974:1980   */\n      0x00\n        /* \"#utility.yul\":2023:2025   */\n      0x20\n        /* \"#utility.yul\":2011:2020   */\n      dup3\n        /* \"#utility.yul\":2002:2009   */\n      dup5\n        /* \"#utility.yul\":1998:2021   */\n      sub\n        /* \"#utility.yul\":1994:2026   */\n      slt\n        /* \"#utility.yul\":1991:2110   */\n      iszero\n      tag_168\n      jumpi\n        /* \"#utility.yul\":2029:2108   */\n      tag_169\n      tag_158\n      jump\t// in\n    tag_169:\n        /* \"#utility.yul\":1991:2110   */\n    tag_168:\n        /* \"#utility.yul\":2149:2150   */\n      0x00\n        /* \"#utility.yul\":2174:2227   */\n      tag_170\n        /* \"#utility.yul\":2219:2226   */\n      dup5\n        /* \"#utility.yul\":2210:2216   */\n      dup3\n        /* \"#utility.yul\":2199:2208   */\n      dup6\n        /* \"#utility.yul\":2195:2217   */\n      add\n        /* \"#utility.yul\":2174:2227   */\n      tag_151\n      jump\t// in\n    tag_170:\n        /* \"#utility.yul\":2164:2227   */\n      swap2\n      pop\n        /* \"#utility.yul\":2120:2237   */\n      pop\n        /* \"#utility.yul\":1915:2244   */\n      swap3\n      swap2\n      pop\n      pop\n      jump\t// out\n        /* \"#utility.yul\":2250:2392   */\n    tag_171:\n        /* \"#utility.yul\":2353:2385   */\n      tag_173\n        /* \"#utility.yul\":2379:2384   */\n      dup2\n        /* \"#utility.yul\":2353:2385   */\n      tag_174\n      jump\t// in\n    tag_173:\n        /* \"#utility.yul\":2348:2351   */\n      dup3\n        /* \"#utility.yul\":2341:2386   */\n      mstore\n        /* \"#utility.yul\":2250:2392   */\n      pop\n      pop\n      jump\t// out\n        /* \"#utility.yul\":2398:2516   */\n    tag_175:\n        /* \"#utility.yul\":2485:2509   */\n      tag_177\n        /* \"#utility.yul\":2503:2508   */\n      dup2\n        /* \"#utility.yul\":2485:2509   */\n      tag_178\n      jump\t// in\n    tag_177:\n        /* \"#utility.yul\":2480:2483   */\n      dup3\n        /* \"#utility.yul\":2473:2510   */\n      mstore\n        /* \"#utility.yul\":2398:2516   */\n      pop\n      pop\n      jump\t// out\n        /* \"#utility.yul\":2522:2631   */\n    tag_179:\n        /* \"#utility.yul\":2603:2624   */\n      tag_181\n        /* \"#utility.yul\":2618:2623   */\n      dup2\n        /* \"#utility.yul\":2603:2624   */\n      tag_182\n      jump\t// in\n    tag_181:\n        /* \"#utility.yul\":2598:2601   */\n      dup3\n        /* \"#utility.yul\":2591:2625   */\n      mstore\n        /* \"#utility.yul\":2522:2631   */\n      pop\n      pop\n      jump\t// out\n        /* \"#utility.yul\":2637:3001   */\n    tag_183:\n        /* \"#utility.yul\":2725:2728   */\n      0x00\n        /* \"#utility.yul\":2753:2792   */\n      tag_185\n        /* \"#utility.yul\":2786:2791   */\n      dup3\n        /* \"#utility.yul\":2753:2792   */\n      tag_186\n      jump\t// in\n    tag_185:\n        /* \"#utility.yul\":2808:2879   */\n      tag_187\n        /* \"#utility.yul\":2872:2878   */\n      dup2\n        /* \"#utility.yul\":2867:2870   */\n      dup6\n        /* \"#utility.yul\":2808:2879   */\n      tag_188\n      jump\t// in\n    tag_187:\n        /* \"#utility.yul\":2801:2879   */\n      swap4\n      pop\n        /* \"#utility.yul\":2888:2940   */\n      tag_189\n        /* \"#utility.yul\":2933:2939   */\n      dup2\n        /* \"#utility.yul\":2928:2931   */\n      dup6\n        /* \"#utility.yul\":2921:2925   */\n      0x20\n        /* \"#utility.yul\":2914:2919   */\n      dup7\n        /* \"#utility.yul\":2910:2926   */\n      add\n        /* \"#utility.yul\":2888:2940   */\n      tag_190\n      jump\t// in\n    tag_189:\n        /* \"#utility.yul\":2965:2994   */\n      tag_191\n        /* \"#utility.yul\":2987:2993   */\n      dup2\n        /* \"#utility.yul\":2965:2994   */\n      tag_192\n      jump\t// in\n    tag_191:\n        /* \"#utility.yul\":2960:2963   */\n      dup5\n        /* \"#utility.yul\":2956:2995   */\n      add\n        /* \"#utility.yul\":2949:2995   */\n      swap2\n      pop\n        /* \"#utility.yul\":2729:3001   */\n      pop\n        /* \"#utility.yul\":2637:3001   */\n      swap3\n      swap2\n      pop\n      pop\n      jump\t// out\n        /* \"#utility.yul\":3007:3373   */\n    tag_193:\n        /* \"#utility.yul\":3149:3152   */\n      0x00\n        /* \"#utility.yul\":3170:3237   */\n      tag_195\n        /* \"#utility.yul\":3234:3236   */\n      0x21\n        /* \"#utility.yul\":3229:3232   */\n      dup4\n        /* \"#utility.yul\":3170:3237   */\n      tag_188\n      jump\t// in\n    tag_195:\n        /* \"#utility.yul\":3163:3237   */\n      swap2\n      pop\n        /* \"#utility.yul\":3246:3339   */\n      tag_196\n        /* \"#utility.yul\":3335:3338   */\n      dup3\n        /* \"#utility.yul\":3246:3339   */\n      tag_197\n      jump\t// in\n    tag_196:\n        /* \"#utility.yul\":3364:3366   */\n      0x40\n        /* \"#utility.yul\":3359:3362   */\n      dup3\n        /* \"#utility.yul\":3355:3367   */\n      add\n        /* \"#utility.yul\":3348:3367   */\n      swap1\n      pop\n        /* \"#utility.yul\":3007:3373   */\n      swap2\n      swap1\n      pop\n      jump\t// out\n        /* \"#utility.yul\":3379:3745   */\n    tag_198:\n        /* \"#utility.yul\":3521:3524   */\n      0x00\n        /* \"#utility.yul\":3542:3609   */\n      tag_200\n        /* \"#utility.yul\":3606:3608   */\n      0x16\n        /* \"#utility.yul\":3601:3604   */\n      dup4\n        /* \"#utility.yul\":3542:3609   */\n      tag_188\n      jump\t// in\n    tag_200:\n        /* \"#utility.yul\":3535:3609   */\n      swap2\n      pop\n        /* \"#utility.yul\":3618:3711   */\n      tag_201\n        /* \"#utility.yul\":3707:3710   */\n      dup3\n        /* \"#utility.yul\":3618:3711   */\n      tag_202\n      jump\t// in\n    tag_201:\n        /* \"#utility.yul\":3736:3738   */\n      0x20\n        /* \"#utility.yul\":3731:3734   */\n      dup3\n        /* \"#utility.yul\":3727:3739   */\n      add\n        /* \"#utility.yul\":3720:3739   */\n      swap1\n      pop\n        /* \"#utility.yul\":3379:3745   */\n      swap2\n      swap1\n      pop\n      jump\t// out\n        /* \"#utility.yul\":3751:4117   */\n    tag_203:\n        /* \"#utility.yul\":3893:3896   */\n      0x00\n        /* \"#utility.yul\":3914:3981   */\n      tag_205\n        /* \"#utility.yul\":3978:3980   */\n      0x11\n        /* \"#utility.yul\":3973:3976   */\n      dup4\n        /* \"#utility.yul\":3914:3981   */\n      tag_188\n      jump\t// in\n    tag_205:\n        /* \"#utility.yul\":3907:3981   */\n      swap2\n      pop\n        /* \"#utility.yul\":3990:4083   */\n      tag_206\n        /* \"#utility.yul\":4079:4082   */\n      dup3\n        /* \"#utility.yul\":3990:4083   */\n      tag_207\n      jump\t// in\n    tag_206:\n        /* \"#utility.yul\":4108:4110   */\n      0x20\n        /* \"#utility.yul\":4103:4106   */\n      dup3\n        /* \"#utility.yul\":4099:4111   */\n      add\n        /* \"#utility.yul\":4092:4111   */\n      swap1\n      pop\n        /* \"#utility.yul\":3751:4117   */\n      swap2\n      swap1\n      pop\n      jump\t// out\n        /* \"#utility.yul\":4123:4489   */\n    tag_208:\n        /* \"#utility.yul\":4265:4268   */\n      0x00\n        /* \"#utility.yul\":4286:4353   */\n      tag_210\n        /* \"#utility.yul\":4350:4352   */\n      0x17\n        /* \"#utility.yul\":4345:4348   */\n      dup4\n        /* \"#utility.yul\":4286:4353   */\n      tag_188\n      jump\t// in\n    tag_210:\n        /* \"#utility.yul\":4279:4353   */\n      swap2\n      pop\n        /* \"#utility.yul\":4362:4455   */\n      tag_211\n        /* \"#utility.yul\":4451:4454   */\n      dup3\n        /* \"#utility.yul\":4362:4455   */\n      tag_212\n      jump\t// in\n    tag_211:\n        /* \"#utility.yul\":4480:4482   */\n      0x20\n        /* \"#utility.yul\":4475:4478   */\n      dup3\n        /* \"#utility.yul\":4471:4483   */\n      add\n        /* \"#utility.yul\":4464:4483   */\n      swap1\n      pop\n        /* \"#utility.yul\":4123:4489   */\n      swap2\n      swap1\n      pop\n      jump\t// out\n        /* \"#utility.yul\":4495:4861   */\n    tag_213:\n        /* \"#utility.yul\":4637:4640   */\n      0x00\n        /* \"#utility.yul\":4658:4725   */\n      tag_215\n        /* \"#utility.yul\":4722:4724   */\n      0x1a\n        /* \"#utility.yul\":4717:4720   */\n      dup4\n        /* \"#utility.yul\":4658:4725   */\n      tag_188\n      jump\t// in\n    tag_215:\n        /* \"#utility.yul\":4651:4725   */\n      swap2\n      pop\n        /* \"#utility.yul\":4734:4827   */\n      tag_216\n        /* \"#utility.yul\":4823:4826   */\n      dup3\n        /* \"#utility.yul\":4734:4827   */\n      tag_217\n      jump\t// in\n    tag_216:\n        /* \"#utility.yul\":4852:4854   */\n      0x20\n        /* \"#utility.yul\":4847:4850   */\n      dup3\n        /* \"#utility.yul\":4843:4855   */\n      add\n        /* \"#utility.yul\":4836:4855   */\n      swap1\n      pop\n        /* \"#utility.yul\":4495:4861   */\n      swap2\n      swap1\n      pop\n      jump\t// out\n        /* \"#utility.yul\":4867:5233   */\n    tag_218:\n        /* \"#utility.yul\":5009:5012   */\n      0x00\n        /* \"#utility.yul\":5030:5097   */\n      tag_220\n        /* \"#utility.yul\":5094:5096   */\n      0x13\n        /* \"#utility.yul\":5089:5092   */\n      dup4\n        /* \"#utility.yul\":5030:5097   */\n      tag_188\n      jump\t// in\n    tag_220:\n        /* \"#utility.yul\":5023:5097   */\n      swap2\n      pop\n        /* \"#utility.yul\":5106:5199   */\n      tag_221\n        /* \"#utility.yul\":5195:5198   */\n      dup3\n        /* \"#utility.yul\":5106:5199   */\n      tag_222\n      jump\t// in\n    tag_221:\n        /* \"#utility.yul\":5224:5226   */\n      0x20\n        /* \"#utility.yul\":5219:5222   */\n      dup3\n        /* \"#utility.yul\":5215:5227   */\n      add\n        /* \"#utility.yul\":5208:5227   */\n      swap1\n      pop\n        /* \"#utility.yul\":4867:5233   */\n      swap2\n      swap1\n      pop\n      jump\t// out\n        /* \"#utility.yul\":5239:5357   */\n    tag_223:\n        /* \"#utility.yul\":5326:5350   */\n      tag_225\n        /* \"#utility.yul\":5344:5349   */\n      dup2\n        /* \"#utility.yul\":5326:5350   */\n      tag_226\n      jump\t// in\n    tag_225:\n        /* \"#utility.yul\":5321:5324   */\n      dup3\n        /* \"#utility.yul\":5314:5351   */\n      mstore\n        /* \"#utility.yul\":5239:5357   */\n      pop\n      pop\n      jump\t// out\n        /* \"#utility.yul\":5363:6451   */\n    tag_27:\n        /* \"#utility.yul\":5674:5678   */\n      0x00\n        /* \"#utility.yul\":5712:5715   */\n      0xe0\n        /* \"#utility.yul\":5701:5710   */\n      dup3\n        /* \"#utility.yul\":5697:5716   */\n      add\n        /* \"#utility.yul\":5689:5716   */\n      swap1\n      pop\n        /* \"#utility.yul\":5762:5771   */\n      dup2\n        /* \"#utility.yul\":5756:5760   */\n      dup2\n        /* \"#utility.yul\":5752:5772   */\n      sub\n        /* \"#utility.yul\":5748:5749   */\n      0x00\n        /* \"#utility.yul\":5737:5746   */\n      dup4\n        /* \"#utility.yul\":5733:5750   */\n      add\n        /* \"#utility.yul\":5726:5773   */\n      mstore\n        /* \"#utility.yul\":5790:5868   */\n      tag_228\n        /* \"#utility.yul\":5863:5867   */\n      dup2\n        /* \"#utility.yul\":5854:5860   */\n      dup11\n        /* \"#utility.yul\":5790:5868   */\n      tag_183\n      jump\t// in\n    tag_228:\n        /* \"#utility.yul\":5782:5868   */\n      swap1\n      pop\n        /* \"#utility.yul\":5915:5924   */\n      dup2\n        /* \"#utility.yul\":5909:5913   */\n      dup2\n        /* \"#utility.yul\":5905:5925   */\n      sub\n        /* \"#utility.yul\":5900:5902   */\n      0x20\n        /* \"#utility.yul\":5889:5898   */\n      dup4\n        /* \"#utility.yul\":5885:5903   */\n      add\n        /* \"#utility.yul\":5878:5926   */\n      mstore\n        /* \"#utility.yul\":5943:6021   */\n      tag_229\n        /* \"#utility.yul\":6016:6020   */\n      dup2\n        /* \"#utility.yul\":6007:6013   */\n      dup10\n        /* \"#utility.yul\":5943:6021   */\n      tag_183\n      jump\t// in\n    tag_229:\n        /* \"#utility.yul\":5935:6021   */\n      swap1\n      pop\n        /* \"#utility.yul\":6031:6119   */\n      tag_230\n        /* \"#utility.yul\":6115:6117   */\n      0x40\n        /* \"#utility.yul\":6104:6113   */\n      dup4\n        /* \"#utility.yul\":6100:6118   */\n      add\n        /* \"#utility.yul\":6091:6097   */\n      dup9\n        /* \"#utility.yul\":6031:6119   */\n      tag_171\n      jump\t// in\n    tag_230:\n        /* \"#utility.yul\":6129:6201   */\n      tag_231\n        /* \"#utility.yul\":6197:6199   */\n      0x60\n        /* \"#utility.yul\":6186:6195   */\n      dup4\n        /* \"#utility.yul\":6182:6200   */\n      add\n        /* \"#utility.yul\":6173:6179   */\n      dup8\n        /* \"#utility.yul\":6129:6201   */\n      tag_223\n      jump\t// in\n    tag_231:\n        /* \"#utility.yul\":6211:6284   */\n      tag_232\n        /* \"#utility.yul\":6279:6282   */\n      0x80\n        /* \"#utility.yul\":6268:6277   */\n      dup4\n        /* \"#utility.yul\":6264:6283   */\n      add\n        /* \"#utility.yul\":6255:6261   */\n      dup7\n        /* \"#utility.yul\":6211:6284   */\n      tag_223\n      jump\t// in\n    tag_232:\n        /* \"#utility.yul\":6294:6367   */\n      tag_233\n        /* \"#utility.yul\":6362:6365   */\n      0xa0\n        /* \"#utility.yul\":6351:6360   */\n      dup4\n        /* \"#utility.yul\":6347:6366   */\n      add\n        /* \"#utility.yul\":6338:6344   */\n      dup6\n        /* \"#utility.yul\":6294:6367   */\n      tag_175\n      jump\t// in\n    tag_233:\n        /* \"#utility.yul\":6377:6444   */\n      tag_234\n        /* \"#utility.yul\":6439:6442   */\n      0xc0\n        /* \"#utility.yul\":6428:6437   */\n      dup4\n        /* \"#utility.yul\":6424:6443   */\n      add\n        /* \"#utility.yul\":6415:6421   */\n      dup5\n        /* \"#utility.yul\":6377:6444   */\n      tag_179\n      jump\t// in\n    tag_234:\n        /* \"#utility.yul\":5363:6451   */\n      swap9\n      swap8\n      pop\n      pop\n      pop\n      pop\n      pop\n      pop\n      pop\n      pop\n      jump\t// out\n        /* \"#utility.yul\":6457:6876   */\n    tag_68:\n        /* \"#utility.yul\":6623:6627   */\n      0x00\n        /* \"#utility.yul\":6661:6663   */\n      0x20\n        /* \"#utility.yul\":6650:6659   */\n      dup3\n        /* \"#utility.yul\":6646:6664   */\n      add\n        /* \"#utility.yul\":6638:6664   */\n      swap1\n      pop\n        /* \"#utility.yul\":6710:6719   */\n      dup2\n        /* \"#utility.yul\":6704:6708   */\n      dup2\n        /* \"#utility.yul\":6700:6720   */\n      sub\n        /* \"#utility.yul\":6696:6697   */\n      0x00\n        /* \"#utility.yul\":6685:6694   */\n      dup4\n        /* \"#utility.yul\":6681:6698   */\n      add\n        /* \"#utility.yul\":6674:6721   */\n      mstore\n        /* \"#utility.yul\":6738:6869   */\n      tag_236\n        /* \"#utility.yul\":6864:6868   */\n      dup2\n        /* \"#utility.yul\":6738:6869   */\n      tag_193\n      jump\t// in\n    tag_236:\n        /* \"#utility.yul\":6730:6869   */\n      swap1\n      pop\n        /* \"#utility.yul\":6457:6876   */\n      swap2\n      swap1\n      pop\n      jump\t// out\n        /* \"#utility.yul\":6882:7301   */\n    tag_47:\n        /* \"#utility.yul\":7048:7052   */\n      0x00\n        /* \"#utility.yul\":7086:7088   */\n      0x20\n        /* \"#utility.yul\":7075:7084   */\n      dup3\n        /* \"#utility.yul\":7071:7089   */\n      add\n        /* \"#utility.yul\":7063:7089   */\n      swap1\n      pop\n        /* \"#utility.yul\":7135:7144   */\n      dup2\n        /* \"#utility.yul\":7129:7133   */\n      dup2\n        /* \"#utility.yul\":7125:7145   */\n      sub\n        /* \"#utility.yul\":7121:7122   */\n      0x00\n        /* \"#utility.yul\":7110:7119   */\n      dup4\n        /* \"#utility.yul\":7106:7123   */\n      add\n        /* \"#utility.yul\":7099:7146   */\n      mstore\n        /* \"#utility.yul\":7163:7294   */\n      tag_238\n        /* \"#utility.yul\":7289:7293   */\n      dup2\n        /* \"#utility.yul\":7163:7294   */\n      tag_198\n      jump\t// in\n    tag_238:\n        /* \"#utility.yul\":7155:7294   */\n      swap1\n      pop\n        /* \"#utility.yul\":6882:7301   */\n      swap2\n      swap1\n      pop\n      jump\t// out\n        /* \"#utility.yul\":7307:7726   */\n    tag_118:\n        /* \"#utility.yul\":7473:7477   */\n      0x00\n        /* \"#utility.yul\":7511:7513   */\n      0x20\n        /* \"#utility.yul\":7500:7509   */\n      dup3\n        /* \"#utility.yul\":7496:7514   */\n      add\n        /* \"#utility.yul\":7488:7514   */\n      swap1\n      pop\n        /* \"#utility.yul\":7560:7569   */\n      dup2\n        /* \"#utility.yul\":7554:7558   */\n      dup2\n        /* \"#utility.yul\":7550:7570   */\n      sub\n        /* \"#utility.yul\":7546:7547   */\n      0x00\n        /* \"#utility.yul\":7535:7544   */\n      dup4\n        /* \"#utility.yul\":7531:7548   */\n      add\n        /* \"#utility.yul\":7524:7571   */\n      mstore\n        /* \"#utility.yul\":7588:7719   */\n      tag_240\n        /* \"#utility.yul\":7714:7718   */\n      dup2\n        /* \"#utility.yul\":7588:7719   */\n      tag_203\n      jump\t// in\n    tag_240:\n        /* \"#utility.yul\":7580:7719   */\n      swap1\n      pop\n        /* \"#utility.yul\":7307:7726   */\n      swap2\n      swap1\n      pop\n      jump\t// out\n        /* \"#utility.yul\":7732:8151   */\n    tag_37:\n        /* \"#utility.yul\":7898:7902   */\n      0x00\n        /* \"#utility.yul\":7936:7938   */\n      0x20\n        /* \"#utility.yul\":7925:7934   */\n      dup3\n        /* \"#utility.yul\":7921:7939   */\n      add\n        /* \"#utility.yul\":7913:7939   */\n      swap1\n      pop\n        /* \"#utility.yul\":7985:7994   */\n      dup2\n        /* \"#utility.yul\":7979:7983   */\n      dup2\n        /* \"#utility.yul\":7975:7995   */\n      sub\n        /* \"#utility.yul\":7971:7972   */\n      0x00\n        /* \"#utility.yul\":7960:7969   */\n      dup4\n        /* \"#utility.yul\":7956:7973   */\n      add\n        /* \"#utility.yul\":7949:7996   */\n      mstore\n        /* \"#utility.yul\":8013:8144   */\n      tag_242\n        /* \"#utility.yul\":8139:8143   */\n      dup2\n        /* \"#utility.yul\":8013:8144   */\n      tag_208\n      jump\t// in\n    tag_242:\n        /* \"#utility.yul\":8005:8144   */\n      swap1\n      pop\n        /* \"#utility.yul\":7732:8151   */\n      swap2\n      swap1\n      pop\n      jump\t// out\n        /* \"#utility.yul\":8157:8576   */\n    tag_98:\n        /* \"#utility.yul\":8323:8327   */\n      0x00\n        /* \"#utility.yul\":8361:8363   */\n      0x20\n        /* \"#utility.yul\":8350:8359   */\n      dup3\n        /* \"#utility.yul\":8346:8364   */\n      add\n        /* \"#utility.yul\":8338:8364   */\n      swap1\n      pop\n        /* \"#utility.yul\":8410:8419   */\n      dup2\n        /* \"#utility.yul\":8404:8408   */\n      dup2\n        /* \"#utility.yul\":8400:8420   */\n      sub\n        /* \"#utility.yul\":8396:8397   */\n      0x00\n        /* \"#utility.yul\":8385:8394   */\n      dup4\n        /* \"#utility.yul\":8381:8398   */\n      add\n        /* \"#utility.yul\":8374:8421   */\n      mstore\n        /* \"#utility.yul\":8438:8569   */\n      tag_244\n        /* \"#utility.yul\":8564:8568   */\n      dup2\n        /* \"#utility.yul\":8438:8569   */\n      tag_213\n      jump\t// in\n    tag_244:\n        /* \"#utility.yul\":8430:8569   */\n      swap1\n      pop\n        /* \"#utility.yul\":8157:8576   */\n      swap2\n      swap1\n      pop\n      jump\t// out\n        /* \"#utility.yul\":8582:9001   */\n    tag_111:\n        /* \"#utility.yul\":8748:8752   */\n      0x00\n        /* \"#utility.yul\":8786:8788   */\n      0x20\n        /* \"#utility.yul\":8775:8784   */\n      dup3\n        /* \"#utility.yul\":8771:8789   */\n      add\n        /* \"#utility.yul\":8763:8789   */\n      swap1\n      pop\n        /* \"#utility.yul\":8835:8844   */\n      dup2\n        /* \"#utility.yul\":8829:8833   */\n      dup2\n        /* \"#utility.yul\":8825:8845   */\n      sub\n        /* \"#utility.yul\":8821:8822   */\n      0x00\n        /* \"#utility.yul\":8810:8819   */\n      dup4\n        /* \"#utility.yul\":8806:8823   */\n      add\n        /* \"#utility.yul\":8799:8846   */\n      mstore\n        /* \"#utility.yul\":8863:8994   */\n      tag_246\n        /* \"#utility.yul\":8989:8993   */\n      dup2\n        /* \"#utility.yul\":8863:8994   */\n      tag_218\n      jump\t// in\n    tag_246:\n        /* \"#utility.yul\":8855:8994   */\n      swap1\n      pop\n        /* \"#utility.yul\":8582:9001   */\n      swap2\n      swap1\n      pop\n      jump\t// out\n        /* \"#utility.yul\":9007:9136   */\n    tag_139:\n        /* \"#utility.yul\":9041:9047   */\n      0x00\n        /* \"#utility.yul\":9068:9088   */\n      tag_248\n      tag_249\n      jump\t// in\n    tag_248:\n        /* \"#utility.yul\":9058:9088   */\n      swap1\n      pop\n        /* \"#utility.yul\":9097:9130   */\n      tag_250\n        /* \"#utility.yul\":9125:9129   */\n      dup3\n        /* \"#utility.yul\":9117:9123   */\n      dup3\n        /* \"#utility.yul\":9097:9130   */\n      tag_251\n      jump\t// in\n    tag_250:\n        /* \"#utility.yul\":9007:9136   */\n      swap2\n      swap1\n      pop\n      jump\t// out\n        /* \"#utility.yul\":9142:9217   */\n    tag_249:\n        /* \"#utility.yul\":9175:9181   */\n      0x00\n        /* \"#utility.yul\":9208:9210   */\n      0x40\n        /* \"#utility.yul\":9202:9211   */\n      mload\n        /* \"#utility.yul\":9192:9211   */\n      swap1\n      pop\n        /* \"#utility.yul\":9142:9217   */\n      swap1\n      jump\t// out\n        /* \"#utility.yul\":9223:9531   */\n    tag_138:\n        /* \"#utility.yul\":9285:9289   */\n      0x00\n        /* \"#utility.yul\":9375:9393   */\n      0xffffffffffffffff\n        /* \"#utility.yul\":9367:9373   */\n      dup3\n        /* \"#utility.yul\":9364:9394   */\n      gt\n        /* \"#utility.yul\":9361:9417   */\n      iszero\n      tag_254\n      jumpi\n        /* \"#utility.yul\":9397:9415   */\n      tag_255\n      tag_256\n      jump\t// in\n    tag_255:\n        /* \"#utility.yul\":9361:9417   */\n    tag_254:\n        /* \"#utility.yul\":9435:9464   */\n      tag_257\n        /* \"#utility.yul\":9457:9463   */\n      dup3\n        /* \"#utility.yul\":9435:9464   */\n      tag_192\n      jump\t// in\n    tag_257:\n        /* \"#utility.yul\":9427:9464   */\n      swap1\n      pop\n        /* \"#utility.yul\":9519:9523   */\n      0x20\n        /* \"#utility.yul\":9513:9517   */\n      dup2\n        /* \"#utility.yul\":9509:9524   */\n      add\n        /* \"#utility.yul\":9501:9524   */\n      swap1\n      pop\n        /* \"#utility.yul\":9223:9531   */\n      swap2\n      swap1\n      pop\n      jump\t// out\n        /* \"#utility.yul\":9537:9636   */\n    tag_186:\n        /* \"#utility.yul\":9589:9595   */\n      0x00\n        /* \"#utility.yul\":9623:9628   */\n      dup2\n        /* \"#utility.yul\":9617:9629   */\n      mload\n        /* \"#utility.yul\":9607:9629   */\n      swap1\n      pop\n        /* \"#utility.yul\":9537:9636   */\n      swap2\n      swap1\n      pop\n      jump\t// out\n        /* \"#utility.yul\":9642:9811   */\n    tag_188:\n        /* \"#utility.yul\":9726:9737   */\n      0x00\n        /* \"#utility.yul\":9760:9766   */\n      dup3\n        /* \"#utility.yul\":9755:9758   */\n      dup3\n        /* \"#utility.yul\":9748:9767   */\n      mstore\n        /* \"#utility.yul\":9800:9804   */\n      0x20\n        /* \"#utility.yul\":9795:9798   */\n      dup3\n        /* \"#utility.yul\":9791:9805   */\n      add\n        /* \"#utility.yul\":9776:9805   */\n      swap1\n      pop\n        /* \"#utility.yul\":9642:9811   */\n      swap3\n      swap2\n      pop\n      pop\n      jump\t// out\n        /* \"#utility.yul\":9817:10165   */\n    tag_72:\n        /* \"#utility.yul\":9857:9864   */\n      0x00\n        /* \"#utility.yul\":9880:9900   */\n      tag_261\n        /* \"#utility.yul\":9898:9899   */\n      dup3\n        /* \"#utility.yul\":9880:9900   */\n      tag_226\n      jump\t// in\n    tag_261:\n        /* \"#utility.yul\":9875:9900   */\n      swap2\n      pop\n        /* \"#utility.yul\":9914:9934   */\n      tag_262\n        /* \"#utility.yul\":9932:9933   */\n      dup4\n        /* \"#utility.yul\":9914:9934   */\n      tag_226\n      jump\t// in\n    tag_262:\n        /* \"#utility.yul\":9909:9934   */\n      swap3\n      pop\n        /* \"#utility.yul\":10102:10103   */\n      dup2\n        /* \"#utility.yul\":10034:10100   */\n      0xffffffffffffffffffffffffffffffffffffffffffffffffffffffffffffffff\n        /* \"#utility.yul\":10030:10104   */\n      div\n        /* \"#utility.yul\":10027:10028   */\n      dup4\n        /* \"#utility.yul\":10024:10105   */\n      gt\n        /* \"#utility.yul\":10019:10020   */\n      dup3\n        /* \"#utility.yul\":10012:10021   */\n      iszero\n        /* \"#utility.yul\":10005:10022   */\n      iszero\n        /* \"#utility.yul\":10001:10106   */\n      and\n        /* \"#utility.yul\":9998:10129   */\n      iszero\n      tag_263\n      jumpi\n        /* \"#utility.yul\":10109:10127   */\n      tag_264\n      tag_265\n      jump\t// in\n    tag_264:\n        /* \"#utility.yul\":9998:10129   */\n    tag_263:\n        /* \"#utility.yul\":10157:10158   */\n      dup3\n        /* \"#utility.yul\":10154:10155   */\n      dup3\n        /* \"#utility.yul\":10150:10159   */\n      mul\n        /* \"#utility.yul\":10139:10159   */\n      swap1\n      pop\n        /* \"#utility.yul\":9817:10165   */\n      swap3\n      swap2\n      pop\n      pop\n      jump\t// out\n        /* \"#utility.yul\":10171:10362   */\n    tag_40:\n        /* \"#utility.yul\":10211:10215   */\n      0x00\n        /* \"#utility.yul\":10231:10251   */\n      tag_267\n        /* \"#utility.yul\":10249:10250   */\n      dup3\n        /* \"#utility.yul\":10231:10251   */\n      tag_226\n      jump\t// in\n    tag_267:\n        /* \"#utility.yul\":10226:10251   */\n      swap2\n      pop\n        /* \"#utility.yul\":10265:10285   */\n      tag_268\n        /* \"#utility.yul\":10283:10284   */\n      dup4\n        /* \"#utility.yul\":10265:10285   */\n      tag_226\n      jump\t// in\n    tag_268:\n        /* \"#utility.yul\":10260:10285   */\n      swap3\n      pop\n        /* \"#utility.yul\":10304:10305   */\n      dup3\n        /* \"#utility.yul\":10301:10302   */\n      dup3\n        /* \"#utility.yul\":10298:10306   */\n      lt\n        /* \"#utility.yul\":10295:10329   */\n      iszero\n      tag_269\n      jumpi\n        /* \"#utility.yul\":10309:10327   */\n      tag_270\n      tag_265\n      jump\t// in\n    tag_270:\n        /* \"#utility.yul\":10295:10329   */\n    tag_269:\n        /* \"#utility.yul\":10354:10355   */\n      dup3\n        /* \"#utility.yul\":10351:10352   */\n      dup3\n        /* \"#utility.yul\":10347:10356   */\n      sub\n        /* \"#utility.yul\":10339:10356   */\n      swap1\n      pop\n        /* \"#utility.yul\":10171:10362   */\n      swap3\n      swap2\n      pop\n      pop\n      jump\t// out\n        /* \"#utility.yul\":10368:10464   */\n    tag_178:\n        /* \"#utility.yul\":10405:10412   */\n      0x00\n        /* \"#utility.yul\":10434:10458   */\n      tag_272\n        /* \"#utility.yul\":10452:10457   */\n      dup3\n        /* \"#utility.yul\":10434:10458   */\n      tag_273\n      jump\t// in\n    tag_272:\n        /* \"#utility.yul\":10423:10458   */\n      swap1\n      pop\n        /* \"#utility.yul\":10368:10464   */\n      swap2\n      swap1\n      pop\n      jump\t// out\n        /* \"#utility.yul\":10470:10574   */\n    tag_174:\n        /* \"#utility.yul\":10515:10522   */\n      0x00\n        /* \"#utility.yul\":10544:10568   */\n      tag_275\n        /* \"#utility.yul\":10562:10567   */\n      dup3\n        /* \"#utility.yul\":10544:10568   */\n      tag_273\n      jump\t// in\n    tag_275:\n        /* \"#utility.yul\":10533:10568   */\n      swap1\n      pop\n        /* \"#utility.yul\":10470:10574   */\n      swap2\n      swap1\n      pop\n      jump\t// out\n        /* \"#utility.yul\":10580:10670   */\n    tag_182:\n        /* \"#utility.yul\":10614:10621   */\n      0x00\n        /* \"#utility.yul\":10657:10662   */\n      dup2\n        /* \"#utility.yul\":10650:10663   */\n      iszero\n        /* \"#utility.yul\":10643:10664   */\n      iszero\n        /* \"#utility.yul\":10632:10664   */\n      swap1\n      pop\n        /* \"#utility.yul\":10580:10670   */\n      swap2\n      swap1\n      pop\n      jump\t// out\n        /* \"#utility.yul\":10676:10802   */\n    tag_273:\n        /* \"#utility.yul\":10713:10720   */\n      0x00\n        /* \"#utility.yul\":10753:10795   */\n      0xffffffffffffffffffffffffffffffffffffffff\n        /* \"#utility.yul\":10746:10751   */\n      dup3\n        /* \"#utility.yul\":10742:10796   */\n      and\n        /* \"#utility.yul\":10731:10796   */\n      swap1\n      pop\n        /* \"#utility.yul\":10676:10802   */\n      swap2\n      swap1\n      pop\n      jump\t// out\n        /* \"#utility.yul\":10808:10885   */\n    tag_226:\n        /* \"#utility.yul\":10845:10852   */\n      0x00\n        /* \"#utility.yul\":10874:10879   */\n      dup2\n        /* \"#utility.yul\":10863:10879   */\n      swap1\n      pop\n        /* \"#utility.yul\":10808:10885   */\n      swap2\n      swap1\n      pop\n      jump\t// out\n        /* \"#utility.yul\":10891:11045   */\n    tag_144:\n        /* \"#utility.yul\":10975:10981   */\n      dup3\n        /* \"#utility.yul\":10970:10973   */\n      dup2\n        /* \"#utility.yul\":10965:10968   */\n      dup4\n        /* \"#utility.yul\":10952:10982   */\n      calldatacopy\n        /* \"#utility.yul\":11037:11038   */\n      0x00\n        /* \"#utility.yul\":11028:11034   */\n      dup4\n        /* \"#utility.yul\":11023:11026   */\n      dup4\n        /* \"#utility.yul\":11019:11035   */\n      add\n        /* \"#utility.yul\":11012:11039   */\n      mstore\n        /* \"#utility.yul\":10891:11045   */\n      pop\n      pop\n      pop\n      jump\t// out\n        /* \"#utility.yul\":11051:11358   */\n    tag_190:\n        /* \"#utility.yul\":11119:11120   */\n      0x00\n        /* \"#utility.yul\":11129:11242   */\n    tag_281:\n        /* \"#utility.yul\":11143:11149   */\n      dup4\n        /* \"#utility.yul\":11140:11141   */\n      dup2\n        /* \"#utility.yul\":11137:11150   */\n      lt\n        /* \"#utility.yul\":11129:11242   */\n      iszero\n      tag_283\n      jumpi\n        /* \"#utility.yul\":11228:11229   */\n      dup1\n        /* \"#utility.yul\":11223:11226   */\n      dup3\n        /* \"#utility.yul\":11219:11230   */\n      add\n        /* \"#utility.yul\":11213:11231   */\n      mload\n        /* \"#utility.yul\":11209:11210   */\n      dup2\n        /* \"#utility.yul\":11204:11207   */\n      dup5\n        /* \"#utility.yul\":11200:11211   */\n      add\n        /* \"#utility.yul\":11193:11232   */\n      mstore\n        /* \"#utility.yul\":11165:11167   */\n      0x20\n        /* \"#utility.yul\":11162:11163   */\n      dup2\n        /* \"#utility.yul\":11158:11168   */\n      add\n        /* \"#utility.yul\":11153:11168   */\n      swap1\n      pop\n        /* \"#utility.yul\":11129:11242   */\n      jump(tag_281)\n    tag_283:\n        /* \"#utility.yul\":11260:11266   */\n      dup4\n        /* \"#utility.yul\":11257:11258   */\n      dup2\n        /* \"#utility.yul\":11254:11267   */\n      gt\n        /* \"#utility.yul\":11251:11352   */\n      iszero\n      tag_284\n      jumpi\n        /* \"#utility.yul\":11340:11341   */\n      0x00\n        /* \"#utility.yul\":11331:11337   */\n      dup5\n        /* \"#utility.yul\":11326:11329   */\n      dup5\n        /* \"#utility.yul\":11322:11338   */\n      add\n        /* \"#utility.yul\":11315:11342   */\n      mstore\n        /* \"#utility.yul\":11251:11352   */\n    tag_284:\n        /* \"#utility.yul\":11100:11358   */\n      pop\n        /* \"#utility.yul\":11051:11358   */\n      pop\n      pop\n      pop\n      jump\t// out\n        /* \"#utility.yul\":11364:11684   */\n    tag_82:\n        /* \"#utility.yul\":11408:11414   */\n      0x00\n        /* \"#utility.yul\":11445:11446   */\n      0x02\n        /* \"#utility.yul\":11439:11443   */\n      dup3\n        /* \"#utility.yul\":11435:11447   */\n      div\n        /* \"#utility.yul\":11425:11447   */\n      swap1\n      pop\n        /* \"#utility.yul\":11492:11493   */\n      0x01\n        /* \"#utility.yul\":11486:11490   */\n      dup3\n        /* \"#utility.yul\":11482:11494   */\n      and\n        /* \"#utility.yul\":11513:11531   */\n      dup1\n        /* \"#utility.yul\":11503:11584   */\n      tag_286\n      jumpi\n        /* \"#utility.yul\":11569:11573   */\n      0x7f\n        /* \"#utility.yul\":11561:11567   */\n      dup3\n        /* \"#utility.yul\":11557:11574   */\n      and\n        /* \"#utility.yul\":11547:11574   */\n      swap2\n      pop\n        /* \"#utility.yul\":11503:11584   */\n    tag_286:\n        /* \"#utility.yul\":11631:11633   */\n      0x20\n        /* \"#utility.yul\":11623:11629   */\n      dup3\n        /* \"#utility.yul\":11620:11634   */\n      lt\n        /* \"#utility.yul\":11600:11618   */\n      dup2\n        /* \"#utility.yul\":11597:11635   */\n      eq\n        /* \"#utility.yul\":11594:11678   */\n      iszero\n      tag_287\n      jumpi\n        /* \"#utility.yul\":11650:11668   */\n      tag_288\n      tag_289\n      jump\t// in\n    tag_288:\n        /* \"#utility.yul\":11594:11678   */\n    tag_287:\n        /* \"#utility.yul\":11415:11684   */\n      pop\n        /* \"#utility.yul\":11364:11684   */\n      swap2\n      swap1\n      pop\n      jump\t// out\n        /* \"#utility.yul\":11690:11971   */\n    tag_251:\n        /* \"#utility.yul\":11773:11800   */\n      tag_291\n        /* \"#utility.yul\":11795:11799   */\n      dup3\n        /* \"#utility.yul\":11773:11800   */\n      tag_192\n      jump\t// in\n    tag_291:\n        /* \"#utility.yul\":11765:11771   */\n      dup2\n        /* \"#utility.yul\":11761:11801   */\n      add\n        /* \"#utility.yul\":11903:11909   */\n      dup2\n        /* \"#utility.yul\":11891:11901   */\n      dup2\n        /* \"#utility.yul\":11888:11910   */\n      lt\n        /* \"#utility.yul\":11867:11885   */\n      0xffffffffffffffff\n        /* \"#utility.yul\":11855:11865   */\n      dup3\n        /* \"#utility.yul\":11852:11886   */\n      gt\n        /* \"#utility.yul\":11849:11911   */\n      or\n        /* \"#utility.yul\":11846:11934   */\n      iszero\n      tag_292\n      jumpi\n        /* \"#utility.yul\":11914:11932   */\n      tag_293\n      tag_256\n      jump\t// in\n    tag_293:\n        /* \"#utility.yul\":11846:11934   */\n    tag_292:\n        /* \"#utility.yul\":11954:11964   */\n      dup1\n        /* \"#utility.yul\":11950:11952   */\n      0x40\n        /* \"#utility.yul\":11943:11965   */\n      mstore\n        /* \"#utility.yul\":11733:11971   */\n      pop\n        /* \"#utility.yul\":11690:11971   */\n      pop\n      pop\n      jump\t// out\n        /* \"#utility.yul\":11977:12210   */\n    tag_78:\n        /* \"#utility.yul\":12016:12019   */\n      0x00\n        /* \"#utility.yul\":12039:12063   */\n      tag_295\n        /* \"#utility.yul\":12057:12062   */\n      dup3\n        /* \"#utility.yul\":12039:12063   */\n      tag_226\n      jump\t// in\n    tag_295:\n        /* \"#utility.yul\":12030:12063   */\n      swap2\n      pop\n        /* \"#utility.yul\":12085:12151   */\n      0xffffffffffffffffffffffffffffffffffffffffffffffffffffffffffffffff\n        /* \"#utility.yul\":12078:12083   */\n      dup3\n        /* \"#utility.yul\":12075:12152   */\n      eq\n        /* \"#utility.yul\":12072:12175   */\n      iszero\n      tag_296\n      jumpi\n        /* \"#utility.yul\":12155:12173   */\n      tag_297\n      tag_265\n      jump\t// in\n    tag_297:\n        /* \"#utility.yul\":12072:12175   */\n    tag_296:\n        /* \"#utility.yul\":12202:12203   */\n      0x01\n        /* \"#utility.yul\":12195:12200   */\n      dup3\n        /* \"#utility.yul\":12191:12204   */\n      add\n        /* \"#utility.yul\":12184:12204   */\n      swap1\n      pop\n        /* \"#utility.yul\":11977:12210   */\n      swap2\n      swap1\n      pop\n      jump\t// out\n        /* \"#utility.yul\":12216:12396   */\n    tag_265:\n        /* \"#utility.yul\":12264:12341   */\n      0x4e487b7100000000000000000000000000000000000000000000000000000000\n        /* \"#utility.yul\":12261:12262   */\n      0x00\n        /* \"#utility.yul\":12254:12342   */\n      mstore\n        /* \"#utility.yul\":12361:12365   */\n      0x11\n        /* \"#utility.yul\":12358:12359   */\n      0x04\n        /* \"#utility.yul\":12351:12366   */\n      mstore\n        /* \"#utility.yul\":12385:12389   */\n      0x24\n        /* \"#utility.yul\":12382:12383   */\n      0x00\n        /* \"#utility.yul\":12375:12390   */\n      revert\n        /* \"#utility.yul\":12402:12582   */\n    tag_289:\n        /* \"#utility.yul\":12450:12527   */\n      0x4e487b7100000000000000000000000000000000000000000000000000000000\n        /* \"#utility.yul\":12447:12448   */\n      0x00\n        /* \"#utility.yul\":12440:12528   */\n      mstore\n        /* \"#utility.yul\":12547:12551   */\n      0x22\n        /* \"#utility.yul\":12544:12545   */\n      0x04\n        /* \"#utility.yul\":12537:12552   */\n      mstore\n        /* \"#utility.yul\":12571:12575   */\n      0x24\n        /* \"#utility.yul\":12568:12569   */\n      0x00\n        /* \"#utility.yul\":12561:12576   */\n      revert\n        /* \"#utility.yul\":12588:12768   */\n    tag_43:\n        /* \"#utility.yul\":12636:12713   */\n      0x4e487b7100000000000000000000000000000000000000000000000000000000\n        /* \"#utility.yul\":12633:12634   */\n      0x00\n        /* \"#utility.yul\":12626:12714   */\n      mstore\n        /* \"#utility.yul\":12733:12737   */\n      0x32\n        /* \"#utility.yul\":12730:12731   */\n      0x04\n        /* \"#utility.yul\":12723:12738   */\n      mstore\n        /* \"#utility.yul\":12757:12761   */\n      0x24\n        /* \"#utility.yul\":12754:12755   */\n      0x00\n        /* \"#utility.yul\":12747:12762   */\n      revert\n        /* \"#utility.yul\":12774:12954   */\n    tag_256:\n        /* \"#utility.yul\":12822:12899   */\n      0x4e487b7100000000000000000000000000000000000000000000000000000000\n        /* \"#utility.yul\":12819:12820   */\n      0x00\n        /* \"#utility.yul\":12812:12900   */\n      mstore\n        /* \"#utility.yul\":12919:12923   */\n      0x41\n        /* \"#utility.yul\":12916:12917   */\n      0x04\n        /* \"#utility.yul\":12909:12924   */\n      mstore\n        /* \"#utility.yul\":12943:12947   */\n      0x24\n        /* \"#utility.yul\":12940:12941   */\n      0x00\n        /* \"#utility.yul\":12933:12948   */\n      revert\n        /* \"#utility.yul\":12960:13077   */\n    tag_149:\n        /* \"#utility.yul\":13069:13070   */\n      0x00\n        /* \"#utility.yul\":13066:13067   */\n      dup1\n        /* \"#utility.yul\":13059:13071   */\n      revert\n        /* \"#utility.yul\":13083:13200   */\n    tag_142:\n        /* \"#utility.yul\":13192:13193   */\n      0x00\n        /* \"#utility.yul\":13189:13190   */\n      dup1\n        /* \"#utility.yul\":13182:13194   */\n      revert\n        /* \"#utility.yul\":13206:13323   */\n    tag_161:\n        /* \"#utility.yul\":13315:13316   */\n      0x00\n        /* \"#utility.yul\":13312:13313   */\n      dup1\n        /* \"#utility.yul\":13305:13317   */\n      revert\n        /* \"#utility.yul\":13329:13446   */\n    tag_158:\n        /* \"#utility.yul\":13438:13439   */\n      0x00\n        /* \"#utility.yul\":13435:13436   */\n      dup1\n        /* \"#utility.yul\":13428:13440   */\n      revert\n        /* \"#utility.yul\":13452:13554   */\n    tag_192:\n        /* \"#utility.yul\":13493:13499   */\n      0x00\n        /* \"#utility.yul\":13544:13546   */\n      0x1f\n        /* \"#utility.yul\":13540:13547   */\n      not\n        /* \"#utility.yul\":13535:13537   */\n      0x1f\n        /* \"#utility.yul\":13528:13533   */\n      dup4\n        /* \"#utility.yul\":13524:13538   */\n      add\n        /* \"#utility.yul\":13520:13548   */\n      and\n        /* \"#utility.yul\":13510:13548   */\n      swap1\n      pop\n        /* \"#utility.yul\":13452:13554   */\n      swap2\n      swap1\n      pop\n      jump\t// out\n        /* \"#utility.yul\":13560:13780   */\n    tag_197:\n        /* \"#utility.yul\":13700:13734   */\n      0x50726963652073686f756c642062652067726561746572207468616e207a6572\n        /* \"#utility.yul\":13696:13697   */\n      0x00\n        /* \"#utility.yul\":13688:13694   */\n      dup3\n        /* \"#utility.yul\":13684:13698   */\n      add\n        /* \"#utility.yul\":13677:13735   */\n      mstore\n        /* \"#utility.yul\":13769:13772   */\n      0x6f00000000000000000000000000000000000000000000000000000000000000\n        /* \"#utility.yul\":13764:13766   */\n      0x20\n        /* \"#utility.yul\":13756:13762   */\n      dup3\n        /* \"#utility.yul\":13752:13767   */\n      add\n        /* \"#utility.yul\":13745:13773   */\n      mstore\n        /* \"#utility.yul\":13560:13780   */\n      pop\n      jump\t// out\n        /* \"#utility.yul\":13786:13958   */\n    tag_202:\n        /* \"#utility.yul\":13926:13950   */\n      0x4f6e6c792062757965722063616e20636f6e6669726d00000000000000000000\n        /* \"#utility.yul\":13922:13923   */\n      0x00\n        /* \"#utility.yul\":13914:13920   */\n      dup3\n        /* \"#utility.yul\":13910:13924   */\n      add\n        /* \"#utility.yul\":13903:13951   */\n      mstore\n        /* \"#utility.yul\":13786:13958   */\n      pop\n      jump\t// out\n        /* \"#utility.yul\":13964:14131   */\n    tag_207:\n        /* \"#utility.yul\":14104:14123   */\n      0x53656c6c65722063616e6e6f7420627579000000000000000000000000000000\n        /* \"#utility.yul\":14100:14101   */\n      0x00\n        /* \"#utility.yul\":14092:14098   */\n      dup3\n        /* \"#utility.yul\":14088:14102   */\n      add\n        /* \"#utility.yul\":14081:14124   */\n      mstore\n        /* \"#utility.yul\":13964:14131   */\n      pop\n      jump\t// out\n        /* \"#utility.yul\":14137:14310   */\n    tag_212:\n        /* \"#utility.yul\":14277:14302   */\n      0x436f6e747261637420646f6573206e6f74206578697374000000000000000000\n        /* \"#utility.yul\":14273:14274   */\n      0x00\n        /* \"#utility.yul\":14265:14271   */\n      dup3\n        /* \"#utility.yul\":14261:14275   */\n      add\n        /* \"#utility.yul\":14254:14303   */\n      mstore\n        /* \"#utility.yul\":14137:14310   */\n      pop\n      jump\t// out\n        /* \"#utility.yul\":14316:14492   */\n    tag_217:\n        /* \"#utility.yul\":14456:14484   */\n      0x6f6e6c79206d616e616765722063616e2063616c6c2074686973000000000000\n        /* \"#utility.yul\":14452:14453   */\n      0x00\n        /* \"#utility.yul\":14444:14450   */\n      dup3\n        /* \"#utility.yul\":14440:14454   */\n      add\n        /* \"#utility.yul\":14433:14485   */\n      mstore\n        /* \"#utility.yul\":14316:14492   */\n      pop\n      jump\t// out\n        /* \"#utility.yul\":14498:14667   */\n    tag_222:\n        /* \"#utility.yul\":14638:14659   */\n      0x5061792074686520657861637420707269636500000000000000000000000000\n        /* \"#utility.yul\":14634:14635   */\n      0x00\n        /* \"#utility.yul\":14626:14632   */\n      dup3\n        /* \"#utility.yul\":14622:14636   */\n      add\n        /* \"#utility.yul\":14615:14660   */\n      mstore\n        /* \"#utility.yul\":14498:14667   */\n      pop\n      jump\t// out\n        /* \"#utility.yul\":14673:14795   */\n    tag_154:\n        /* \"#utility.yul\":14746:14770   */\n      tag_314\n        /* \"#utility.yul\":14764:14769   */\n      dup2\n        /* \"#utility.yul\":14746:14770   */\n      tag_226\n      jump\t// in\n    tag_314:\n        /* \"#utility.yul\":14739:14744   */\n      dup2\n        /* \"#utility.yul\":14736:14771   */\n      eq\n        /* \"#utility.yul\":14726:14789   */\n      tag_315\n      jumpi\n        /* \"#utility.yul\":14785:14786   */\n      0x00\n        /* \"#utility.yul\":14782:14783   */\n      dup1\n        /* \"#utility.yul\":14775:14787   */\n      revert\n        /* \"#utility.yul\":14726:14789   */\n    tag_315:\n        /* \"#utility.yul\":14673:14795   */\n      pop\n      jump\t// out\n\n    auxdata: 0xa26469706673582212204db5af837a92d2e3e70cf808da92edfd8e31bfa07f5103f71e1805c5ab1e796764736f6c63430008070033\n}\n",
				"bytecode": {
					"linkReferences": {},
					"object": "608060405260008060146101000a81548160ff0219169083151502179055506001805534801561002e57600080fd5b50336000806101000a81548173ffffffffffffffffffffffffffffffffffffffff021916908373ffffffffffffffffffffffffffffffffffffffff1602179055506114438061007e6000396000f3fe60806040526004361061004e5760003560e01c80631144fd72146100985780633153a15b146100c15780637acc0b20146100ea57806383197ef01461012d578063d96a094a146101445761004f565b5b3373ffffffffffffffffffffffffffffffffffffffff166108fc349081150290604051600060405180830381858888f19350505050158015610095573d6000803e3d6000fd5b50005b3480156100a457600080fd5b506100bf60048036038101906100ba9190610d00565b610160565b005b3480156100cd57600080fd5b506100e860048036038101906100e39190610c75565b610385565b005b3480156100f657600080fd5b50610111600480360381019061010c9190610d00565b6105db565b6040516101249796959493929190610e74565b60405180910390f35b34801561013957600080fd5b5061014261078a565b005b61015e60048036038101906101599190610d00565b6108ec565b005b600060149054906101000a900460ff16156101b0576040517f08c379a00000000000000000000000000000000000000000000000000000000081526004016101a790610f51565b60405180910390fd5b3373ffffffffffffffffffffffffffffffffffffffff1660026001836101d6919061107d565b815481106101e7576101e6611257565b5b906000526020600020906006020160050160009054906101000a900473ffffffffffffffffffffffffffffffffffffffff1673ffffffffffffffffffffffffffffffffffffffff161461026f576040517f08c379a000000000000000000000000000000000000000000000000000000000815260040161026690610f11565b60405180910390fd5b60016002600183610280919061107d565b8154811061029157610290611257565b5b906000526020600020906006020160050160146101000a81548160ff02191690831515021790555060026001826102c8919061107d565b815481106102d9576102d8611257565b5b906000526020600020906006020160020160009054906101000a900473ffffffffffffffffffffffffffffffffffffffff1673ffffffffffffffffffffffffffffffffffffffff166108fc6002600184610333919061107d565b8154811061034457610343611257565b5b9060005260206000209060060201600401549081150290604051600060405180830381858888f19350505050158015610381573d6000803e3d6000fd5b5050565b600060149054906101000a900460ff16156103d5576040517f08c379a00000000000000000000000000000000000000000000000000000000081526004016103cc90610f51565b60405180910390fd5b60008111610418576040517f08c379a000000000000000000000000000000000000000000000000000000000815260040161040f90610ef1565b60405180910390fd5b610420610ae2565b838160000181905250828160200181905250670de0b6b3a7640000826104469190611023565b81608001818152505033816040019073ffffffffffffffffffffffffffffffffffffffff16908173ffffffffffffffffffffffffffffffffffffffff1681525050600154816060018181525050600281908060018154018082558091505060019003906000526020600020906006020160009091909190915060008201518160000190805190602001906104db929190610b4d565b5060208201518160010190805190602001906104f8929190610b4d565b5060408201518160020160006101000a81548173ffffffffffffffffffffffffffffffffffffffff021916908373ffffffffffffffffffffffffffffffffffffffff160217905550606082015181600301556080820151816004015560a08201518160050160006101000a81548173ffffffffffffffffffffffffffffffffffffffff021916908373ffffffffffffffffffffffffffffffffffffffff16021790555060c08201518160050160146101000a81548160ff0219169083151502179055505050600160008154809291906105d0906111b0565b919050555050505050565b600281815481106105eb57600080fd5b906000526020600020906006020160009150905080600001805461060e9061114d565b80601f016020809104026020016040519081016040528092919081815260200182805461063a9061114d565b80156106875780601f1061065c57610100808354040283529160200191610687565b820191906000526020600020905b81548152906001019060200180831161066a57829003601f168201915b50505050509080600101805461069c9061114d565b80601f01602080910402602001604051908101604052809291908181526020018280546106c89061114d565b80156107155780601f106106ea57610100808354040283529160200191610715565b820191906000526020600020905b8154815290600101906020018083116106f857829003601f168201915b5050505050908060020160009054906101000a900473ffffffffffffffffffffffffffffffffffffffff16908060030154908060040154908060050160009054906101000a900473ffffffffffffffffffffffffffffffffffffffff16908060050160149054906101000a900460ff16905087565b600060149054906101000a900460ff16156107da576040517f08c379a00000000000000000000000000000000000000000000000000000000081526004016107d190610f51565b60405180910390fd5b3373ffffffffffffffffffffffffffffffffffffffff1660008054906101000a900473ffffffffffffffffffffffffffffffffffffffff1673ffffffffffffffffffffffffffffffffffffffff1614610868576040517f08c379a000000000000000000000000000000000000000000000000000000000815260040161085f90610f71565b60405180910390fd5b60008054906101000a900473ffffffffffffffffffffffffffffffffffffffff1673ffffffffffffffffffffffffffffffffffffffff166108fc479081150290604051600060405180830381858888f193505050501580156108ce573d6000803e3d6000fd5b506001600060146101000a81548160ff021916908315150217905550565b600060149054906101000a900460ff161561093c576040517f08c379a000000000000000000000000000000000000000000000000000000000815260040161093390610f51565b60405180910390fd5b34600260018361094c919061107d565b8154811061095d5761095c611257565b5b906000526020600020906006020160040154146109af576040517f08c379a00000000000000000000000000000000000000000000000000000000081526004016109a690610f91565b60405180910390fd5b3373ffffffffffffffffffffffffffffffffffffffff1660026001836109d5919061107d565b815481106109e6576109e5611257565b5b906000526020600020906006020160020160009054906101000a900473ffffffffffffffffffffffffffffffffffffffff1673ffffffffffffffffffffffffffffffffffffffff161415610a6f576040517f08c379a0000000000000000000000000000000000000000000000000000000008152600401610a6690610f31565b60405180910390fd5b336002600183610a7f919061107d565b81548110610a9057610a8f611257565b5b906000526020600020906006020160050160006101000a81548173ffffffffffffffffffffffffffffffffffffffff021916908373ffffffffffffffffffffffffffffffffffffffff16021790555050565b6040518060e001604052806060815260200160608152602001600073ffffffffffffffffffffffffffffffffffffffff1681526020016000815260200160008152602001600073ffffffffffffffffffffffffffffffffffffffff1681526020016000151581525090565b828054610b599061114d565b90600052602060002090601f016020900481019282610b7b5760008555610bc2565b82601f10610b9457805160ff1916838001178555610bc2565b82800160010185558215610bc2579182015b82811115610bc1578251825591602001919060010190610ba6565b5b509050610bcf9190610bd3565b5090565b5b80821115610bec576000816000905550600101610bd4565b5090565b6000610c03610bfe84610fd6565b610fb1565b905082815260208101848484011115610c1f57610c1e6112ba565b5b610c2a84828561110b565b509392505050565b600082601f830112610c4757610c466112b5565b5b8135610c57848260208601610bf0565b91505092915050565b600081359050610c6f816113f6565b92915050565b600080600060608486031215610c8e57610c8d6112c4565b5b600084013567ffffffffffffffff811115610cac57610cab6112bf565b5b610cb886828701610c32565b935050602084013567ffffffffffffffff811115610cd957610cd86112bf565b5b610ce586828701610c32565b9250506040610cf686828701610c60565b9150509250925092565b600060208284031215610d1657610d156112c4565b5b6000610d2484828501610c60565b91505092915050565b610d36816110c3565b82525050565b610d45816110b1565b82525050565b610d54816110d5565b82525050565b6000610d6582611007565b610d6f8185611012565b9350610d7f81856020860161111a565b610d88816112c9565b840191505092915050565b6000610da0602183611012565b9150610dab826112da565b604082019050919050565b6000610dc3601683611012565b9150610dce82611329565b602082019050919050565b6000610de6601183611012565b9150610df182611352565b602082019050919050565b6000610e09601783611012565b9150610e148261137b565b602082019050919050565b6000610e2c601a83611012565b9150610e37826113a4565b602082019050919050565b6000610e4f601383611012565b9150610e5a826113cd565b602082019050919050565b610e6e81611101565b82525050565b600060e0820190508181036000830152610e8e818a610d5a565b90508181036020830152610ea28189610d5a565b9050610eb16040830188610d2d565b610ebe6060830187610e65565b610ecb6080830186610e65565b610ed860a0830185610d3c565b610ee560c0830184610d4b565b98975050505050505050565b60006020820190508181036000830152610f0a81610d93565b9050919050565b60006020820190508181036000830152610f2a81610db6565b9050919050565b60006020820190508181036000830152610f4a81610dd9565b9050919050565b60006020820190508181036000830152610f6a81610dfc565b9050919050565b60006020820190508181036000830152610f8a81610e1f565b9050919050565b60006020820190508181036000830152610faa81610e42565b9050919050565b6000610fbb610fcc565b9050610fc7828261117f565b919050565b6000604051905090565b600067ffffffffffffffff821115610ff157610ff0611286565b5b610ffa826112c9565b9050602081019050919050565b600081519050919050565b600082825260208201905092915050565b600061102e82611101565b915061103983611101565b9250817fffffffffffffffffffffffffffffffffffffffffffffffffffffffffffffffff0483118215151615611072576110716111f9565b5b828202905092915050565b600061108882611101565b915061109383611101565b9250828210156110a6576110a56111f9565b5b828203905092915050565b60006110bc826110e1565b9050919050565b60006110ce826110e1565b9050919050565b60008115159050919050565b600073ffffffffffffffffffffffffffffffffffffffff82169050919050565b6000819050919050565b82818337600083830152505050565b60005b8381101561113857808201518184015260208101905061111d565b83811115611147576000848401525b50505050565b6000600282049050600182168061116557607f821691505b6020821081141561117957611178611228565b5b50919050565b611188826112c9565b810181811067ffffffffffffffff821117156111a7576111a6611286565b5b80604052505050565b60006111bb82611101565b91507fffffffffffffffffffffffffffffffffffffffffffffffffffffffffffffffff8214156111ee576111ed6111f9565b5b600182019050919050565b7f4e487b7100000000000000000000000000000000000000000000000000000000600052601160045260246000fd5b7f4e487b7100000000000000000000000000000000000000000000000000000000600052602260045260246000fd5b7f4e487b7100000000000000000000000000000000000000000000000000000000600052603260045260246000fd5b7f4e487b7100000000000000000000000000000000000000000000000000000000600052604160045260246000fd5b600080fd5b600080fd5b600080fd5b600080fd5b6000601f19601f8301169050919050565b7f50726963652073686f756c642062652067726561746572207468616e207a657260008201527f6f00000000000000000000000000000000000000000000000000000000000000602082015250565b7f4f6e6c792062757965722063616e20636f6e6669726d00000000000000000000600082015250565b7f53656c6c65722063616e6e6f7420627579000000000000000000000000000000600082015250565b7f436f6e747261637420646f6573206e6f74206578697374000000000000000000600082015250565b7f6f6e6c79206d616e616765722063616e2063616c6c2074686973000000000000600082015250565b7f5061792074686520657861637420707269636500000000000000000000000000600082015250565b6113ff81611101565b811461140a57600080fd5b5056fea26469706673582212204db5af837a92d2e3e70cf808da92edfd8e31bfa07f5103f71e1805c5ab1e796764736f6c63430008070033",
					"opcodes": "PUSH1 0x80 PUSH1 0x40 MSTORE PUSH1 0x0 DUP1 PUSH1 0x14 PUSH2 0x100 EXP DUP2 SLOAD DUP2 PUSH1 0xFF MUL NOT AND SWAP1 DUP4 ISZERO ISZERO MUL OR SWAP1 SSTORE POP PUSH1 0x1 DUP1 SSTORE CALLVALUE DUP1 ISZERO PUSH2 0x2E JUMPI PUSH1 0x0 DUP1 REVERT JUMPDEST POP CALLER PUSH1 0x0 DUP1 PUSH2 0x100 EXP DUP2 SLOAD DUP2 PUSH20 0xFFFFFFFFFFFFFFFFFFFFFFFFFFFFFFFFFFFFFFFF MUL NOT AND SWAP1 DUP4 PUSH20 0xFFFFFFFFFFFFFFFFFFFFFFFFFFFFFFFFFFFFFFFF AND MUL OR SWAP1 SSTORE POP PUSH2 0x1443 DUP1 PUSH2 0x7E PUSH1 0x0 CODECOPY PUSH1 0x0 RETURN INVALID PUSH1 0x80 PUSH1 0x40 MSTORE PUSH1 0x4 CALLDATASIZE LT PUSH2 0x4E JUMPI PUSH1 0x0 CALLDATALOAD PUSH1 0xE0 SHR DUP1 PUSH4 0x1144FD72 EQ PUSH2 0x98 JUMPI DUP1 PUSH4 0x3153A15B EQ PUSH2 0xC1 JUMPI DUP1 PUSH4 0x7ACC0B20 EQ PUSH2 0xEA JUMPI DUP1 PUSH4 0x83197EF0 EQ PUSH2 0x12D JUMPI DUP1 PUSH4 0xD96A094A EQ PUSH2 0x144 JUMPI PUSH2 0x4F JUMP JUMPDEST JUMPDEST CALLER PUSH20 0xFFFFFFFFFFFFFFFFFFFFFFFFFFFFFFFFFFFFFFFF AND PUSH2 0x8FC CALLVALUE SWAP1 DUP2 ISZERO MUL SWAP1 PUSH1 0x40 MLOAD PUSH1 0x0 PUSH1 0x40 MLOAD DUP1 DUP4 SUB DUP2 DUP6 DUP9 DUP9 CALL SWAP4 POP POP POP POP ISZERO DUP1 ISZERO PUSH2 0x95 JUMPI RETURNDATASIZE PUSH1 0x0 DUP1 RETURNDATACOPY RETURNDATASIZE PUSH1 0x0 REVERT JUMPDEST POP STOP JUMPDEST CALLVALUE DUP1 ISZERO PUSH2 0xA4 JUMPI PUSH1 0x0 DUP1 REVERT JUMPDEST POP PUSH2 0xBF PUSH1 0x4 DUP1 CALLDATASIZE SUB DUP2 ADD SWAP1 PUSH2 0xBA SWAP2 SWAP1 PUSH2 0xD00 JUMP JUMPDEST PUSH2 0x160 JUMP JUMPDEST STOP JUMPDEST CALLVALUE DUP1 ISZERO PUSH2 0xCD JUMPI PUSH1 0x0 DUP1 REVERT JUMPDEST POP PUSH2 0xE8 PUSH1 0x4 DUP1 CALLDATASIZE SUB DUP2 ADD SWAP1 PUSH2 0xE3 SWAP2 SWAP1 PUSH2 0xC75 JUMP JUMPDEST PUSH2 0x385 JUMP JUMPDEST STOP JUMPDEST CALLVALUE DUP1 ISZERO PUSH2 0xF6 JUMPI PUSH1 0x0 DUP1 REVERT JUMPDEST POP PUSH2 0x111 PUSH1 0x4 DUP1 CALLDATASIZE SUB DUP2 ADD SWAP1 PUSH2 0x10C SWAP2 SWAP1 PUSH2 0xD00 JUMP JUMPDEST PUSH2 0x5DB JUMP JUMPDEST PUSH1 0x40 MLOAD PUSH2 0x124 SWAP8 SWAP7 SWAP6 SWAP5 SWAP4 SWAP3 SWAP2 SWAP1 PUSH2 0xE74 JUMP JUMPDEST PUSH1 0x40 MLOAD DUP1 SWAP2 SUB SWAP1 RETURN JUMPDEST CALLVALUE DUP1 ISZERO PUSH2 0x139 JUMPI PUSH1 0x0 DUP1 REVERT JUMPDEST POP PUSH2 0x142 PUSH2 0x78A JUMP JUMPDEST STOP JUMPDEST PUSH2 0x15E PUSH1 0x4 DUP1 CALLDATASIZE SUB DUP2 ADD SWAP1 PUSH2 0x159 SWAP2 SWAP1 PUSH2 0xD00 JUMP JUMPDEST PUSH2 0x8EC JUMP JUMPDEST STOP JUMPDEST PUSH1 0x0 PUSH1 0x14 SWAP1 SLOAD SWAP1 PUSH2 0x100 EXP SWAP1 DIV PUSH1 0xFF AND ISZERO PUSH2 0x1B0 JUMPI PUSH1 0x40 MLOAD PUSH32 0x8C379A000000000000000000000000000000000000000000000000000000000 DUP2 MSTORE PUSH1 0x4 ADD PUSH2 0x1A7 SWAP1 PUSH2 0xF51 JUMP JUMPDEST PUSH1 0x40 MLOAD DUP1 SWAP2 SUB SWAP1 REVERT JUMPDEST CALLER PUSH20 0xFFFFFFFFFFFFFFFFFFFFFFFFFFFFFFFFFFFFFFFF AND PUSH1 0x2 PUSH1 0x1 DUP4 PUSH2 0x1D6 SWAP2 SWAP1 PUSH2 0x107D JUMP JUMPDEST DUP2 SLOAD DUP2 LT PUSH2 0x1E7 JUMPI PUSH2 0x1E6 PUSH2 0x1257 JUMP JUMPDEST JUMPDEST SWAP1 PUSH1 0x0 MSTORE PUSH1 0x20 PUSH1 0x0 KECCAK256 SWAP1 PUSH1 0x6 MUL ADD PUSH1 0x5 ADD PUSH1 0x0 SWAP1 SLOAD SWAP1 PUSH2 0x100 EXP SWAP1 DIV PUSH20 0xFFFFFFFFFFFFFFFFFFFFFFFFFFFFFFFFFFFFFFFF AND PUSH20 0xFFFFFFFFFFFFFFFFFFFFFFFFFFFFFFFFFFFFFFFF AND EQ PUSH2 0x26F JUMPI PUSH1 0x40 MLOAD PUSH32 0x8C379A000000000000000000000000000000000000000000000000000000000 DUP2 MSTORE PUSH1 0x4 ADD PUSH2 0x266 SWAP1 PUSH2 0xF11 JUMP JUMPDEST PUSH1 0x40 MLOAD DUP1 SWAP2 SUB SWAP1 REVERT JUMPDEST PUSH1 0x1 PUSH1 0x2 PUSH1 0x1 DUP4 PUSH2 0x280 SWAP2 SWAP1 PUSH2 0x107D JUMP JUMPDEST DUP2 SLOAD DUP2 LT PUSH2 0x291 JUMPI PUSH2 0x290 PUSH2 0x1257 JUMP JUMPDEST JUMPDEST SWAP1 PUSH1 0x0 MSTORE PUSH1 0x20 PUSH1 0x0 KECCAK256 SWAP1 PUSH1 0x6 MUL ADD PUSH1 0x5 ADD PUSH1 0x14 PUSH2 0x100 EXP DUP2 SLOAD DUP2 PUSH1 0xFF MUL NOT AND SWAP1 DUP4 ISZERO ISZERO MUL OR SWAP1 SSTORE POP PUSH1 0x2 PUSH1 0x1 DUP3 PUSH2 0x2C8 SWAP2 SWAP1 PUSH2 0x107D JUMP JUMPDEST DUP2 SLOAD DUP2 LT PUSH2 0x2D9 JUMPI PUSH2 0x2D8 PUSH2 0x1257 JUMP JUMPDEST JUMPDEST SWAP1 PUSH1 0x0 MSTORE PUSH1 0x20 PUSH1 0x0 KECCAK256 SWAP1 PUSH1 0x6 MUL ADD PUSH1 0x2 ADD PUSH1 0x0 SWAP1 SLOAD SWAP1 PUSH2 0x100 EXP SWAP1 DIV PUSH20 0xFFFFFFFFFFFFFFFFFFFFFFFFFFFFFFFFFFFFFFFF AND PUSH20 0xFFFFFFFFFFFFFFFFFFFFFFFFFFFFFFFFFFFFFFFF AND PUSH2 0x8FC PUSH1 0x2 PUSH1 0x1 DUP5 PUSH2 0x333 SWAP2 SWAP1 PUSH2 0x107D JUMP JUMPDEST DUP2 SLOAD DUP2 LT PUSH2 0x344 JUMPI PUSH2 0x343 PUSH2 0x1257 JUMP JUMPDEST JUMPDEST SWAP1 PUSH1 0x0 MSTORE PUSH1 0x20 PUSH1 0x0 KECCAK256 SWAP1 PUSH1 0x6 MUL ADD PUSH1 0x4 ADD SLOAD SWAP1 DUP2 ISZERO MUL SWAP1 PUSH1 0x40 MLOAD PUSH1 0x0 PUSH1 0x40 MLOAD DUP1 DUP4 SUB DUP2 DUP6 DUP9 DUP9 CALL SWAP4 POP POP POP POP ISZERO DUP1 ISZERO PUSH2 0x381 JUMPI RETURNDATASIZE PUSH1 0x0 DUP1 RETURNDATACOPY RETURNDATASIZE PUSH1 0x0 REVERT JUMPDEST POP POP JUMP JUMPDEST PUSH1 0x0 PUSH1 0x14 SWAP1 SLOAD SWAP1 PUSH2 0x100 EXP SWAP1 DIV PUSH1 0xFF AND ISZERO PUSH2 0x3D5 JUMPI PUSH1 0x40 MLOAD PUSH32 0x8C379A000000000000000000000000000000000000000000000000000000000 DUP2 MSTORE PUSH1 0x4 ADD PUSH2 0x3CC SWAP1 PUSH2 0xF51 JUMP JUMPDEST PUSH1 0x40 MLOAD DUP1 SWAP2 SUB SWAP1 REVERT JUMPDEST PUSH1 0x0 DUP2 GT PUSH2 0x418 JUMPI PUSH1 0x40 MLOAD PUSH32 0x8C379A000000000000000000000000000000000000000000000000000000000 DUP2 MSTORE PUSH1 0x4 ADD PUSH2 0x40F SWAP1 PUSH2 0xEF1 JUMP JUMPDEST PUSH1 0x40 MLOAD DUP1 SWAP2 SUB SWAP1 REVERT JUMPDEST PUSH2 0x420 PUSH2 0xAE2 JUMP JUMPDEST DUP4 DUP2 PUSH1 0x0 ADD DUP2 SWAP1 MSTORE POP DUP3 DUP2 PUSH1 0x20 ADD DUP2 SWAP1 MSTORE POP PUSH8 0xDE0B6B3A7640000 DUP3 PUSH2 0x446 SWAP2 SWAP1 PUSH2 0x1023 JUMP JUMPDEST DUP2 PUSH1 0x80 ADD DUP2 DUP2 MSTORE POP POP CALLER DUP2 PUSH1 0x40 ADD SWAP1 PUSH20 0xFFFFFFFFFFFFFFFFFFFFFFFFFFFFFFFFFFFFFFFF AND SWAP1 DUP2 PUSH20 0xFFFFFFFFFFFFFFFFFFFFFFFFFFFFFFFFFFFFFFFF AND DUP2 MSTORE POP POP PUSH1 0x1 SLOAD DUP2 PUSH1 0x60 ADD DUP2 DUP2 MSTORE POP POP PUSH1 0x2 DUP2 SWAP1 DUP1 PUSH1 0x1 DUP2 SLOAD ADD DUP1 DUP3 SSTORE DUP1 SWAP2 POP POP PUSH1 0x1 SWAP1 SUB SWAP1 PUSH1 0x0 MSTORE PUSH1 0x20 PUSH1 0x0 KECCAK256 SWAP1 PUSH1 0x6 MUL ADD PUSH1 0x0 SWAP1 SWAP2 SWAP1 SWAP2 SWAP1 SWAP2 POP PUSH1 0x0 DUP3 ADD MLOAD DUP2 PUSH1 0x0 ADD SWAP1 DUP1 MLOAD SWAP1 PUSH1 0x20 ADD SWAP1 PUSH2 0x4DB SWAP3 SWAP2 SWAP1 PUSH2 0xB4D JUMP JUMPDEST POP PUSH1 0x20 DUP3 ADD MLOAD DUP2 PUSH1 0x1 ADD SWAP1 DUP1 MLOAD SWAP1 PUSH1 0x20 ADD SWAP1 PUSH2 0x4F8 SWAP3 SWAP2 SWAP1 PUSH2 0xB4D JUMP JUMPDEST POP PUSH1 0x40 DUP3 ADD MLOAD DUP2 PUSH1 0x2 ADD PUSH1 0x0 PUSH2 0x100 EXP DUP2 SLOAD DUP2 PUSH20 0xFFFFFFFFFFFFFFFFFFFFFFFFFFFFFFFFFFFFFFFF MUL NOT AND SWAP1 DUP4 PUSH20 0xFFFFFFFFFFFFFFFFFFFFFFFFFFFFFFFFFFFFFFFF AND MUL OR SWAP1 SSTORE POP PUSH1 0x60 DUP3 ADD MLOAD DUP2 PUSH1 0x3 ADD SSTORE PUSH1 0x80 DUP3 ADD MLOAD DUP2 PUSH1 0x4 ADD SSTORE PUSH1 0xA0 DUP3 ADD MLOAD DUP2 PUSH1 0x5 ADD PUSH1 0x0 PUSH2 0x100 EXP DUP2 SLOAD DUP2 PUSH20 0xFFFFFFFFFFFFFFFFFFFFFFFFFFFFFFFFFFFFFFFF MUL NOT AND SWAP1 DUP4 PUSH20 0xFFFFFFFFFFFFFFFFFFFFFFFFFFFFFFFFFFFFFFFF AND MUL OR SWAP1 SSTORE POP PUSH1 0xC0 DUP3 ADD MLOAD DUP2 PUSH1 0x5 ADD PUSH1 0x14 PUSH2 0x100 EXP DUP2 SLOAD DUP2 PUSH1 0xFF MUL NOT AND SWAP1 DUP4 ISZERO ISZERO MUL OR SWAP1 SSTORE POP POP POP PUSH1 0x1 PUSH1 0x0 DUP2 SLOAD DUP1 SWAP3 SWAP2 SWAP1 PUSH2 0x5D0 SWAP1 PUSH2 0x11B0 JUMP JUMPDEST SWAP2 SWAP1 POP SSTORE POP POP POP POP POP JUMP JUMPDEST PUSH1 0x2 DUP2 DUP2 SLOAD DUP2 LT PUSH2 0x5EB JUMPI PUSH1 0x0 DUP1 REVERT JUMPDEST SWAP1 PUSH1 0x0 MSTORE PUSH1 0x20 PUSH1 0x0 KECCAK256 SWAP1 PUSH1 0x6 MUL ADD PUSH1 0x0 SWAP2 POP SWAP1 POP DUP1 PUSH1 0x0 ADD DUP1 SLOAD PUSH2 0x60E SWAP1 PUSH2 0x114D JUMP JUMPDEST DUP1 PUSH1 0x1F ADD PUSH1 0x20 DUP1 SWAP2 DIV MUL PUSH1 0x20 ADD PUSH1 0x40 MLOAD SWAP1 DUP2 ADD PUSH1 0x40 MSTORE DUP1 SWAP3 SWAP2 SWAP1 DUP2 DUP2 MSTORE PUSH1 0x20 ADD DUP3 DUP1 SLOAD PUSH2 0x63A SWAP1 PUSH2 0x114D JUMP JUMPDEST DUP1 ISZERO PUSH2 0x687 JUMPI DUP1 PUSH1 0x1F LT PUSH2 0x65C JUMPI PUSH2 0x100 DUP1 DUP4 SLOAD DIV MUL DUP4 MSTORE SWAP2 PUSH1 0x20 ADD SWAP2 PUSH2 0x687 JUMP JUMPDEST DUP3 ADD SWAP2 SWAP1 PUSH1 0x0 MSTORE PUSH1 0x20 PUSH1 0x0 KECCAK256 SWAP1 JUMPDEST DUP2 SLOAD DUP2 MSTORE SWAP1 PUSH1 0x1 ADD SWAP1 PUSH1 0x20 ADD DUP1 DUP4 GT PUSH2 0x66A JUMPI DUP3 SWAP1 SUB PUSH1 0x1F AND DUP3 ADD SWAP2 JUMPDEST POP POP POP POP POP SWAP1 DUP1 PUSH1 0x1 ADD DUP1 SLOAD PUSH2 0x69C SWAP1 PUSH2 0x114D JUMP JUMPDEST DUP1 PUSH1 0x1F ADD PUSH1 0x20 DUP1 SWAP2 DIV MUL PUSH1 0x20 ADD PUSH1 0x40 MLOAD SWAP1 DUP2 ADD PUSH1 0x40 MSTORE DUP1 SWAP3 SWAP2 SWAP1 DUP2 DUP2 MSTORE PUSH1 0x20 ADD DUP3 DUP1 SLOAD PUSH2 0x6C8 SWAP1 PUSH2 0x114D JUMP JUMPDEST DUP1 ISZERO PUSH2 0x715 JUMPI DUP1 PUSH1 0x1F LT PUSH2 0x6EA JUMPI PUSH2 0x100 DUP1 DUP4 SLOAD DIV MUL DUP4 MSTORE SWAP2 PUSH1 0x20 ADD SWAP2 PUSH2 0x715 JUMP JUMPDEST DUP3 ADD SWAP2 SWAP1 PUSH1 0x0 MSTORE PUSH1 0x20 PUSH1 0x0 KECCAK256 SWAP1 JUMPDEST DUP2 SLOAD DUP2 MSTORE SWAP1 PUSH1 0x1 ADD SWAP1 PUSH1 0x20 ADD DUP1 DUP4 GT PUSH2 0x6F8 JUMPI DUP3 SWAP1 SUB PUSH1 0x1F AND DUP3 ADD SWAP2 JUMPDEST POP POP POP POP POP SWAP1 DUP1 PUSH1 0x2 ADD PUSH1 0x0 SWAP1 SLOAD SWAP1 PUSH2 0x100 EXP SWAP1 DIV PUSH20 0xFFFFFFFFFFFFFFFFFFFFFFFFFFFFFFFFFFFFFFFF AND SWAP1 DUP1 PUSH1 0x3 ADD SLOAD SWAP1 DUP1 PUSH1 0x4 ADD SLOAD SWAP1 DUP1 PUSH1 0x5 ADD PUSH1 0x0 SWAP1 SLOAD SWAP1 PUSH2 0x100 EXP SWAP1 DIV PUSH20 0xFFFFFFFFFFFFFFFFFFFFFFFFFFFFFFFFFFFFFFFF AND SWAP1 DUP1 PUSH1 0x5 ADD PUSH1 0x14 SWAP1 SLOAD SWAP1 PUSH2 0x100 EXP SWAP1 DIV PUSH1 0xFF AND SWAP1 POP DUP8 JUMP JUMPDEST PUSH1 0x0 PUSH1 0x14 SWAP1 SLOAD SWAP1 PUSH2 0x100 EXP SWAP1 DIV PUSH1 0xFF AND ISZERO PUSH2 0x7DA JUMPI PUSH1 0x40 MLOAD PUSH32 0x8C379A000000000000000000000000000000000000000000000000000000000 DUP2 MSTORE PUSH1 0x4 ADD PUSH2 0x7D1 SWAP1 PUSH2 0xF51 JUMP JUMPDEST PUSH1 0x40 MLOAD DUP1 SWAP2 SUB SWAP1 REVERT JUMPDEST CALLER PUSH20 0xFFFFFFFFFFFFFFFFFFFFFFFFFFFFFFFFFFFFFFFF AND PUSH1 0x0 DUP1 SLOAD SWAP1 PUSH2 0x100 EXP SWAP1 DIV PUSH20 0xFFFFFFFFFFFFFFFFFFFFFFFFFFFFFFFFFFFFFFFF AND PUSH20 0xFFFFFFFFFFFFFFFFFFFFFFFFFFFFFFFFFFFFFFFF AND EQ PUSH2 0x868 JUMPI PUSH1 0x40 MLOAD PUSH32 0x8C379A000000000000000000000000000000000000000000000000000000000 DUP2 MSTORE PUSH1 0x4 ADD PUSH2 0x85F SWAP1 PUSH2 0xF71 JUMP JUMPDEST PUSH1 0x40 MLOAD DUP1 SWAP2 SUB SWAP1 REVERT JUMPDEST PUSH1 0x0 DUP1 SLOAD SWAP1 PUSH2 0x100 EXP SWAP1 DIV PUSH20 0xFFFFFFFFFFFFFFFFFFFFFFFFFFFFFFFFFFFFFFFF AND PUSH20 0xFFFFFFFFFFFFFFFFFFFFFFFFFFFFFFFFFFFFFFFF AND PUSH2 0x8FC SELFBALANCE SWAP1 DUP2 ISZERO MUL SWAP1 PUSH1 0x40 MLOAD PUSH1 0x0 PUSH1 0x40 MLOAD DUP1 DUP4 SUB DUP2 DUP6 DUP9 DUP9 CALL SWAP4 POP POP POP POP ISZERO DUP1 ISZERO PUSH2 0x8CE JUMPI RETURNDATASIZE PUSH1 0x0 DUP1 RETURNDATACOPY RETURNDATASIZE PUSH1 0x0 REVERT JUMPDEST POP PUSH1 0x1 PUSH1 0x0 PUSH1 0x14 PUSH2 0x100 EXP DUP2 SLOAD DUP2 PUSH1 0xFF MUL NOT AND SWAP1 DUP4 ISZERO ISZERO MUL OR SWAP1 SSTORE POP JUMP JUMPDEST PUSH1 0x0 PUSH1 0x14 SWAP1 SLOAD SWAP1 PUSH2 0x100 EXP SWAP1 DIV PUSH1 0xFF AND ISZERO PUSH2 0x93C JUMPI PUSH1 0x40 MLOAD PUSH32 0x8C379A000000000000000000000000000000000000000000000000000000000 DUP2 MSTORE PUSH1 0x4 ADD PUSH2 0x933 SWAP1 PUSH2 0xF51 JUMP JUMPDEST PUSH1 0x40 MLOAD DUP1 SWAP2 SUB SWAP1 REVERT JUMPDEST CALLVALUE PUSH1 0x2 PUSH1 0x1 DUP4 PUSH2 0x94C SWAP2 SWAP1 PUSH2 0x107D JUMP JUMPDEST DUP2 SLOAD DUP2 LT PUSH2 0x95D JUMPI PUSH2 0x95C PUSH2 0x1257 JUMP JUMPDEST JUMPDEST SWAP1 PUSH1 0x0 MSTORE PUSH1 0x20 PUSH1 0x0 KECCAK256 SWAP1 PUSH1 0x6 MUL ADD PUSH1 0x4 ADD SLOAD EQ PUSH2 0x9AF JUMPI PUSH1 0x40 MLOAD PUSH32 0x8C379A000000000000000000000000000000000000000000000000000000000 DUP2 MSTORE PUSH1 0x4 ADD PUSH2 0x9A6 SWAP1 PUSH2 0xF91 JUMP JUMPDEST PUSH1 0x40 MLOAD DUP1 SWAP2 SUB SWAP1 REVERT JUMPDEST CALLER PUSH20 0xFFFFFFFFFFFFFFFFFFFFFFFFFFFFFFFFFFFFFFFF AND PUSH1 0x2 PUSH1 0x1 DUP4 PUSH2 0x9D5 SWAP2 SWAP1 PUSH2 0x107D JUMP JUMPDEST DUP2 SLOAD DUP2 LT PUSH2 0x9E6 JUMPI PUSH2 0x9E5 PUSH2 0x1257 JUMP JUMPDEST JUMPDEST SWAP1 PUSH1 0x0 MSTORE PUSH1 0x20 PUSH1 0x0 KECCAK256 SWAP1 PUSH1 0x6 MUL ADD PUSH1 0x2 ADD PUSH1 0x0 SWAP1 SLOAD SWAP1 PUSH2 0x100 EXP SWAP1 DIV PUSH20 0xFFFFFFFFFFFFFFFFFFFFFFFFFFFFFFFFFFFFFFFF AND PUSH20 0xFFFFFFFFFFFFFFFFFFFFFFFFFFFFFFFFFFFFFFFF AND EQ ISZERO PUSH2 0xA6F JUMPI PUSH1 0x40 MLOAD PUSH32 0x8C379A000000000000000000000000000000000000000000000000000000000 DUP2 MSTORE PUSH1 0x4 ADD PUSH2 0xA66 SWAP1 PUSH2 0xF31 JUMP JUMPDEST PUSH1 0x40 MLOAD DUP1 SWAP2 SUB SWAP1 REVERT JUMPDEST CALLER PUSH1 0x2 PUSH1 0x1 DUP4 PUSH2 0xA7F SWAP2 SWAP1 PUSH2 0x107D JUMP JUMPDEST DUP2 SLOAD DUP2 LT PUSH2 0xA90 JUMPI PUSH2 0xA8F PUSH2 0x1257 JUMP JUMPDEST JUMPDEST SWAP1 PUSH1 0x0 MSTORE PUSH1 0x20 PUSH1 0x0 KECCAK256 SWAP1 PUSH1 0x6 MUL ADD PUSH1 0x5 ADD PUSH1 0x0 PUSH2 0x100 EXP DUP2 SLOAD DUP2 PUSH20 0xFFFFFFFFFFFFFFFFFFFFFFFFFFFFFFFFFFFFFFFF MUL NOT AND SWAP1 DUP4 PUSH20 0xFFFFFFFFFFFFFFFFFFFFFFFFFFFFFFFFFFFFFFFF AND MUL OR SWAP1 SSTORE POP POP JUMP JUMPDEST PUSH1 0x40 MLOAD DUP1 PUSH1 0xE0 ADD PUSH1 0x40 MSTORE DUP1 PUSH1 0x60 DUP2 MSTORE PUSH1 0x20 ADD PUSH1 0x60 DUP2 MSTORE PUSH1 0x20 ADD PUSH1 0x0 PUSH20 0xFFFFFFFFFFFFFFFFFFFFFFFFFFFFFFFFFFFFFFFF AND DUP2 MSTORE PUSH1 0x20 ADD PUSH1 0x0 DUP2 MSTORE PUSH1 0x20 ADD PUSH1 0x0 DUP2 MSTORE PUSH1 0x20 ADD PUSH1 0x0 PUSH20 0xFFFFFFFFFFFFFFFFFFFFFFFFFFFFFFFFFFFFFFFF AND DUP2 MSTORE PUSH1 0x20 ADD PUSH1 0x0 ISZERO ISZERO DUP2 MSTORE POP SWAP1 JUMP JUMPDEST DUP3 DUP1 SLOAD PUSH2 0xB59 SWAP1 PUSH2 0x114D JUMP JUMPDEST SWAP1 PUSH1 0x0 MSTORE PUSH1 0x20 PUSH1 0x0 KECCAK256 SWAP1 PUSH1 0x1F ADD PUSH1 0x20 SWAP1 DIV DUP2 ADD SWAP3 DUP3 PUSH2 0xB7B JUMPI PUSH1 0x0 DUP6 SSTORE PUSH2 0xBC2 JUMP JUMPDEST DUP3 PUSH1 0x1F LT PUSH2 0xB94 JUMPI DUP1 MLOAD PUSH1 0xFF NOT AND DUP4 DUP1 ADD OR DUP6 SSTORE PUSH2 0xBC2 JUMP JUMPDEST DUP3 DUP1 ADD PUSH1 0x1 ADD DUP6 SSTORE DUP3 ISZERO PUSH2 0xBC2 JUMPI SWAP2 DUP3 ADD JUMPDEST DUP3 DUP2 GT ISZERO PUSH2 0xBC1 JUMPI DUP3 MLOAD DUP3 SSTORE SWAP2 PUSH1 0x20 ADD SWAP2 SWAP1 PUSH1 0x1 ADD SWAP1 PUSH2 0xBA6 JUMP JUMPDEST JUMPDEST POP SWAP1 POP PUSH2 0xBCF SWAP2 SWAP1 PUSH2 0xBD3 JUMP JUMPDEST POP SWAP1 JUMP JUMPDEST JUMPDEST DUP1 DUP3 GT ISZERO PUSH2 0xBEC JUMPI PUSH1 0x0 DUP2 PUSH1 0x0 SWAP1 SSTORE POP PUSH1 0x1 ADD PUSH2 0xBD4 JUMP JUMPDEST POP SWAP1 JUMP JUMPDEST PUSH1 0x0 PUSH2 0xC03 PUSH2 0xBFE DUP5 PUSH2 0xFD6 JUMP JUMPDEST PUSH2 0xFB1 JUMP JUMPDEST SWAP1 POP DUP3 DUP2 MSTORE PUSH1 0x20 DUP2 ADD DUP5 DUP5 DUP5 ADD GT ISZERO PUSH2 0xC1F JUMPI PUSH2 0xC1E PUSH2 0x12BA JUMP JUMPDEST JUMPDEST PUSH2 0xC2A DUP5 DUP3 DUP6 PUSH2 0x110B JUMP JUMPDEST POP SWAP4 SWAP3 POP POP POP JUMP JUMPDEST PUSH1 0x0 DUP3 PUSH1 0x1F DUP4 ADD SLT PUSH2 0xC47 JUMPI PUSH2 0xC46 PUSH2 0x12B5 JUMP JUMPDEST JUMPDEST DUP2 CALLDATALOAD PUSH2 0xC57 DUP5 DUP3 PUSH1 0x20 DUP7 ADD PUSH2 0xBF0 JUMP JUMPDEST SWAP2 POP POP SWAP3 SWAP2 POP POP JUMP JUMPDEST PUSH1 0x0 DUP2 CALLDATALOAD SWAP1 POP PUSH2 0xC6F DUP2 PUSH2 0x13F6 JUMP JUMPDEST SWAP3 SWAP2 POP POP JUMP JUMPDEST PUSH1 0x0 DUP1 PUSH1 0x0 PUSH1 0x60 DUP5 DUP7 SUB SLT ISZERO PUSH2 0xC8E JUMPI PUSH2 0xC8D PUSH2 0x12C4 JUMP JUMPDEST JUMPDEST PUSH1 0x0 DUP5 ADD CALLDATALOAD PUSH8 0xFFFFFFFFFFFFFFFF DUP2 GT ISZERO PUSH2 0xCAC JUMPI PUSH2 0xCAB PUSH2 0x12BF JUMP JUMPDEST JUMPDEST PUSH2 0xCB8 DUP7 DUP3 DUP8 ADD PUSH2 0xC32 JUMP JUMPDEST SWAP4 POP POP PUSH1 0x20 DUP5 ADD CALLDATALOAD PUSH8 0xFFFFFFFFFFFFFFFF DUP2 GT ISZERO PUSH2 0xCD9 JUMPI PUSH2 0xCD8 PUSH2 0x12BF JUMP JUMPDEST JUMPDEST PUSH2 0xCE5 DUP7 DUP3 DUP8 ADD PUSH2 0xC32 JUMP JUMPDEST SWAP3 POP POP PUSH1 0x40 PUSH2 0xCF6 DUP7 DUP3 DUP8 ADD PUSH2 0xC60 JUMP JUMPDEST SWAP2 POP POP SWAP3 POP SWAP3 POP SWAP3 JUMP JUMPDEST PUSH1 0x0 PUSH1 0x20 DUP3 DUP5 SUB SLT ISZERO PUSH2 0xD16 JUMPI PUSH2 0xD15 PUSH2 0x12C4 JUMP JUMPDEST JUMPDEST PUSH1 0x0 PUSH2 0xD24 DUP5 DUP3 DUP6 ADD PUSH2 0xC60 JUMP JUMPDEST SWAP2 POP POP SWAP3 SWAP2 POP POP JUMP JUMPDEST PUSH2 0xD36 DUP2 PUSH2 0x10C3 JUMP JUMPDEST DUP3 MSTORE POP POP JUMP JUMPDEST PUSH2 0xD45 DUP2 PUSH2 0x10B1 JUMP JUMPDEST DUP3 MSTORE POP POP JUMP JUMPDEST PUSH2 0xD54 DUP2 PUSH2 0x10D5 JUMP JUMPDEST DUP3 MSTORE POP POP JUMP JUMPDEST PUSH1 0x0 PUSH2 0xD65 DUP3 PUSH2 0x1007 JUMP JUMPDEST PUSH2 0xD6F DUP2 DUP6 PUSH2 0x1012 JUMP JUMPDEST SWAP4 POP PUSH2 0xD7F DUP2 DUP6 PUSH1 0x20 DUP7 ADD PUSH2 0x111A JUMP JUMPDEST PUSH2 0xD88 DUP2 PUSH2 0x12C9 JUMP JUMPDEST DUP5 ADD SWAP2 POP POP SWAP3 SWAP2 POP POP JUMP JUMPDEST PUSH1 0x0 PUSH2 0xDA0 PUSH1 0x21 DUP4 PUSH2 0x1012 JUMP JUMPDEST SWAP2 POP PUSH2 0xDAB DUP3 PUSH2 0x12DA JUMP JUMPDEST PUSH1 0x40 DUP3 ADD SWAP1 POP SWAP2 SWAP1 POP JUMP JUMPDEST PUSH1 0x0 PUSH2 0xDC3 PUSH1 0x16 DUP4 PUSH2 0x1012 JUMP JUMPDEST SWAP2 POP PUSH2 0xDCE DUP3 PUSH2 0x1329 JUMP JUMPDEST PUSH1 0x20 DUP3 ADD SWAP1 POP SWAP2 SWAP1 POP JUMP JUMPDEST PUSH1 0x0 PUSH2 0xDE6 PUSH1 0x11 DUP4 PUSH2 0x1012 JUMP JUMPDEST SWAP2 POP PUSH2 0xDF1 DUP3 PUSH2 0x1352 JUMP JUMPDEST PUSH1 0x20 DUP3 ADD SWAP1 POP SWAP2 SWAP1 POP JUMP JUMPDEST PUSH1 0x0 PUSH2 0xE09 PUSH1 0x17 DUP4 PUSH2 0x1012 JUMP JUMPDEST SWAP2 POP PUSH2 0xE14 DUP3 PUSH2 0x137B JUMP JUMPDEST PUSH1 0x20 DUP3 ADD SWAP1 POP SWAP2 SWAP1 POP JUMP JUMPDEST PUSH1 0x0 PUSH2 0xE2C PUSH1 0x1A DUP4 PUSH2 0x1012 JUMP JUMPDEST SWAP2 POP PUSH2 0xE37 DUP3 PUSH2 0x13A4 JUMP JUMPDEST PUSH1 0x20 DUP3 ADD SWAP1 POP SWAP2 SWAP1 POP JUMP JUMPDEST PUSH1 0x0 PUSH2 0xE4F PUSH1 0x13 DUP4 PUSH2 0x1012 JUMP JUMPDEST SWAP2 POP PUSH2 0xE5A DUP3 PUSH2 0x13CD JUMP JUMPDEST PUSH1 0x20 DUP3 ADD SWAP1 POP SWAP2 SWAP1 POP JUMP JUMPDEST PUSH2 0xE6E DUP2 PUSH2 0x1101 JUMP JUMPDEST DUP3 MSTORE POP POP JUMP JUMPDEST PUSH1 0x0 PUSH1 0xE0 DUP3 ADD SWAP1 POP DUP2 DUP2 SUB PUSH1 0x0 DUP4 ADD MSTORE PUSH2 0xE8E DUP2 DUP11 PUSH2 0xD5A JUMP JUMPDEST SWAP1 POP DUP2 DUP2 SUB PUSH1 0x20 DUP4 ADD MSTORE PUSH2 0xEA2 DUP2 DUP10 PUSH2 0xD5A JUMP JUMPDEST SWAP1 POP PUSH2 0xEB1 PUSH1 0x40 DUP4 ADD DUP9 PUSH2 0xD2D JUMP JUMPDEST PUSH2 0xEBE PUSH1 0x60 DUP4 ADD DUP8 PUSH2 0xE65 JUMP JUMPDEST PUSH2 0xECB PUSH1 0x80 DUP4 ADD DUP7 PUSH2 0xE65 JUMP JUMPDEST PUSH2 0xED8 PUSH1 0xA0 DUP4 ADD DUP6 PUSH2 0xD3C JUMP JUMPDEST PUSH2 0xEE5 PUSH1 0xC0 DUP4 ADD DUP5 PUSH2 0xD4B JUMP JUMPDEST SWAP9 SWAP8 POP POP POP POP POP POP POP POP JUMP JUMPDEST PUSH1 0x0 PUSH1 0x20 DUP3 ADD SWAP1 POP DUP2 DUP2 SUB PUSH1 0x0 DUP4 ADD MSTORE PUSH2 0xF0A DUP2 PUSH2 0xD93 JUMP JUMPDEST SWAP1 POP SWAP2 SWAP1 POP JUMP JUMPDEST PUSH1 0x0 PUSH1 0x20 DUP3 ADD SWAP1 POP DUP2 DUP2 SUB PUSH1 0x0 DUP4 ADD MSTORE PUSH2 0xF2A DUP2 PUSH2 0xDB6 JUMP JUMPDEST SWAP1 POP SWAP2 SWAP1 POP JUMP JUMPDEST PUSH1 0x0 PUSH1 0x20 DUP3 ADD SWAP1 POP DUP2 DUP2 SUB PUSH1 0x0 DUP4 ADD MSTORE PUSH2 0xF4A DUP2 PUSH2 0xDD9 JUMP JUMPDEST SWAP1 POP SWAP2 SWAP1 POP JUMP JUMPDEST PUSH1 0x0 PUSH1 0x20 DUP3 ADD SWAP1 POP DUP2 DUP2 SUB PUSH1 0x0 DUP4 ADD MSTORE PUSH2 0xF6A DUP2 PUSH2 0xDFC JUMP JUMPDEST SWAP1 POP SWAP2 SWAP1 POP JUMP JUMPDEST PUSH1 0x0 PUSH1 0x20 DUP3 ADD SWAP1 POP DUP2 DUP2 SUB PUSH1 0x0 DUP4 ADD MSTORE PUSH2 0xF8A DUP2 PUSH2 0xE1F JUMP JUMPDEST SWAP1 POP SWAP2 SWAP1 POP JUMP JUMPDEST PUSH1 0x0 PUSH1 0x20 DUP3 ADD SWAP1 POP DUP2 DUP2 SUB PUSH1 0x0 DUP4 ADD MSTORE PUSH2 0xFAA DUP2 PUSH2 0xE42 JUMP JUMPDEST SWAP1 POP SWAP2 SWAP1 POP JUMP JUMPDEST PUSH1 0x0 PUSH2 0xFBB PUSH2 0xFCC JUMP JUMPDEST SWAP1 POP PUSH2 0xFC7 DUP3 DUP3 PUSH2 0x117F JUMP JUMPDEST SWAP2 SWAP1 POP JUMP JUMPDEST PUSH1 0x0 PUSH1 0x40 MLOAD SWAP1 POP SWAP1 JUMP JUMPDEST PUSH1 0x0 PUSH8 0xFFFFFFFFFFFFFFFF DUP3 GT ISZERO PUSH2 0xFF1 JUMPI PUSH2 0xFF0 PUSH2 0x1286 JUMP JUMPDEST JUMPDEST PUSH2 0xFFA DUP3 PUSH2 0x12C9 JUMP JUMPDEST SWAP1 POP PUSH1 0x20 DUP2 ADD SWAP1 POP SWAP2 SWAP1 POP JUMP JUMPDEST PUSH1 0x0 DUP2 MLOAD SWAP1 POP SWAP2 SWAP1 POP JUMP JUMPDEST PUSH1 0x0 DUP3 DUP3 MSTORE PUSH1 0x20 DUP3 ADD SWAP1 POP SWAP3 SWAP2 POP POP JUMP JUMPDEST PUSH1 0x0 PUSH2 0x102E DUP3 PUSH2 0x1101 JUMP JUMPDEST SWAP2 POP PUSH2 0x1039 DUP4 PUSH2 0x1101 JUMP JUMPDEST SWAP3 POP DUP2 PUSH32 0xFFFFFFFFFFFFFFFFFFFFFFFFFFFFFFFFFFFFFFFFFFFFFFFFFFFFFFFFFFFFFFFF DIV DUP4 GT DUP3 ISZERO ISZERO AND ISZERO PUSH2 0x1072 JUMPI PUSH2 0x1071 PUSH2 0x11F9 JUMP JUMPDEST JUMPDEST DUP3 DUP3 MUL SWAP1 POP SWAP3 SWAP2 POP POP JUMP JUMPDEST PUSH1 0x0 PUSH2 0x1088 DUP3 PUSH2 0x1101 JUMP JUMPDEST SWAP2 POP PUSH2 0x1093 DUP4 PUSH2 0x1101 JUMP JUMPDEST SWAP3 POP DUP3 DUP3 LT ISZERO PUSH2 0x10A6 JUMPI PUSH2 0x10A5 PUSH2 0x11F9 JUMP JUMPDEST JUMPDEST DUP3 DUP3 SUB SWAP1 POP SWAP3 SWAP2 POP POP JUMP JUMPDEST PUSH1 0x0 PUSH2 0x10BC DUP3 PUSH2 0x10E1 JUMP JUMPDEST SWAP1 POP SWAP2 SWAP1 POP JUMP JUMPDEST PUSH1 0x0 PUSH2 0x10CE DUP3 PUSH2 0x10E1 JUMP JUMPDEST SWAP1 POP SWAP2 SWAP1 POP JUMP JUMPDEST PUSH1 0x0 DUP2 ISZERO ISZERO SWAP1 POP SWAP2 SWAP1 POP JUMP JUMPDEST PUSH1 0x0 PUSH20 0xFFFFFFFFFFFFFFFFFFFFFFFFFFFFFFFFFFFFFFFF DUP3 AND SWAP1 POP SWAP2 SWAP1 POP JUMP JUMPDEST PUSH1 0x0 DUP2 SWAP1 POP SWAP2 SWAP1 POP JUMP JUMPDEST DUP3 DUP2 DUP4 CALLDATACOPY PUSH1 0x0 DUP4 DUP4 ADD MSTORE POP POP POP JUMP JUMPDEST PUSH1 0x0 JUMPDEST DUP4 DUP2 LT ISZERO PUSH2 0x1138 JUMPI DUP1 DUP3 ADD MLOAD DUP2 DUP5 ADD MSTORE PUSH1 0x20 DUP2 ADD SWAP1 POP PUSH2 0x111D JUMP JUMPDEST DUP4 DUP2 GT ISZERO PUSH2 0x1147 JUMPI PUSH1 0x0 DUP5 DUP5 ADD MSTORE JUMPDEST POP POP POP POP JUMP JUMPDEST PUSH1 0x0 PUSH1 0x2 DUP3 DIV SWAP1 POP PUSH1 0x1 DUP3 AND DUP1 PUSH2 0x1165 JUMPI PUSH1 0x7F DUP3 AND SWAP2 POP JUMPDEST PUSH1 0x20 DUP3 LT DUP2 EQ ISZERO PUSH2 0x1179 JUMPI PUSH2 0x1178 PUSH2 0x1228 JUMP JUMPDEST JUMPDEST POP SWAP2 SWAP1 POP JUMP JUMPDEST PUSH2 0x1188 DUP3 PUSH2 0x12C9 JUMP JUMPDEST DUP2 ADD DUP2 DUP2 LT PUSH8 0xFFFFFFFFFFFFFFFF DUP3 GT OR ISZERO PUSH2 0x11A7 JUMPI PUSH2 0x11A6 PUSH2 0x1286 JUMP JUMPDEST JUMPDEST DUP1 PUSH1 0x40 MSTORE POP POP POP JUMP JUMPDEST PUSH1 0x0 PUSH2 0x11BB DUP3 PUSH2 0x1101 JUMP JUMPDEST SWAP2 POP PUSH32 0xFFFFFFFFFFFFFFFFFFFFFFFFFFFFFFFFFFFFFFFFFFFFFFFFFFFFFFFFFFFFFFFF DUP3 EQ ISZERO PUSH2 0x11EE JUMPI PUSH2 0x11ED PUSH2 0x11F9 JUMP JUMPDEST JUMPDEST PUSH1 0x1 DUP3 ADD SWAP1 POP SWAP2 SWAP1 POP JUMP JUMPDEST PUSH32 0x4E487B7100000000000000000000000000000000000000000000000000000000 PUSH1 0x0 MSTORE PUSH1 0x11 PUSH1 0x4 MSTORE PUSH1 0x24 PUSH1 0x0 REVERT JUMPDEST PUSH32 0x4E487B7100000000000000000000000000000000000000000000000000000000 PUSH1 0x0 MSTORE PUSH1 0x22 PUSH1 0x4 MSTORE PUSH1 0x24 PUSH1 0x0 REVERT JUMPDEST PUSH32 0x4E487B7100000000000000000000000000000000000000000000000000000000 PUSH1 0x0 MSTORE PUSH1 0x32 PUSH1 0x4 MSTORE PUSH1 0x24 PUSH1 0x0 REVERT JUMPDEST PUSH32 0x4E487B7100000000000000000000000000000000000000000000000000000000 PUSH1 0x0 MSTORE PUSH1 0x41 PUSH1 0x4 MSTORE PUSH1 0x24 PUSH1 0x0 REVERT JUMPDEST PUSH1 0x0 DUP1 REVERT JUMPDEST PUSH1 0x0 DUP1 REVERT JUMPDEST PUSH1 0x0 DUP1 REVERT JUMPDEST PUSH1 0x0 DUP1 REVERT JUMPDEST PUSH1 0x0 PUSH1 0x1F NOT PUSH1 0x1F DUP4 ADD AND SWAP1 POP SWAP2 SWAP1 POP JUMP JUMPDEST PUSH32 0x50726963652073686F756C642062652067726561746572207468616E207A6572 PUSH1 0x0 DUP3 ADD MSTORE PUSH32 0x6F00000000000000000000000000000000000000000000000000000000000000 PUSH1 0x20 DUP3 ADD MSTORE POP JUMP JUMPDEST PUSH32 0x4F6E6C792062757965722063616E20636F6E6669726D00000000000000000000 PUSH1 0x0 DUP3 ADD MSTORE POP JUMP JUMPDEST PUSH32 0x53656C6C65722063616E6E6F7420627579000000000000000000000000000000 PUSH1 0x0 DUP3 ADD MSTORE POP JUMP JUMPDEST PUSH32 0x436F6E747261637420646F6573206E6F74206578697374000000000000000000 PUSH1 0x0 DUP3 ADD MSTORE POP JUMP JUMPDEST PUSH32 0x6F6E6C79206D616E616765722063616E2063616C6C2074686973000000000000 PUSH1 0x0 DUP3 ADD MSTORE POP JUMP JUMPDEST PUSH32 0x5061792074686520657861637420707269636500000000000000000000000000 PUSH1 0x0 DUP3 ADD MSTORE POP JUMP JUMPDEST PUSH2 0x13FF DUP2 PUSH2 0x1101 JUMP JUMPDEST DUP2 EQ PUSH2 0x140A JUMPI PUSH1 0x0 DUP1 REVERT JUMPDEST POP JUMP INVALID LOG2 PUSH5 0x6970667358 0x22 SLT KECCAK256 0x4D 0xB5 0xAF DUP4 PUSH27 0x92D2E3E70CF808DA92EDFD8E31BFA07F5103F71E1805C5AB1E7967 PUSH5 0x736F6C6343 STOP ADDMOD SMOD STOP CALLER "
				},
				"gasEstimates": {
					"creation": {
						"codeDepositCost": "1037400",
						"executionCost": "71769",
						"totalCost": "1109169"
					},
					"external": {
						"": "infinite",
						"buy(uint256)": "infinite",
						"delivery(uint256)": "infinite",
						"destroy()": "infinite",
						"products(uint256)": "infinite",
						"registerProduct(string,string,uint256)": "infinite"
					}
				},
				"methodIdentifiers": {
					"buy(uint256)": "d96a094a",
					"delivery(uint256)": "1144fd72",
					"destroy()": "83197ef0",
					"products(uint256)": "7acc0b20",
					"registerProduct(string,string,uint256)": "3153a15b"
				}
			},
			"storageLayout": {
				"storage": [
					{
						"astId": 17,
						"contract": "32-ecommerceContract.sol:Ecommerce",
						"label": "manager",
						"offset": 0,
						"slot": "0",
						"type": "t_address_payable"
					},
					{
						"astId": 20,
						"contract": "32-ecommerceContract.sol:Ecommerce",
						"label": "destroyed",
						"offset": 20,
						"slot": "0",
						"type": "t_bool"
					},
					{
						"astId": 35,
						"contract": "32-ecommerceContract.sol:Ecommerce",
						"label": "counter",
						"offset": 0,
						"slot": "1",
						"type": "t_uint256"
					},
					{
						"astId": 39,
						"contract": "32-ecommerceContract.sol:Ecommerce",
						"label": "products",
						"offset": 0,
						"slot": "2",
						"type": "t_array(t_struct(Product)15_storage)dyn_storage"
					}
				],
				"types": {
					"t_address": {
						"encoding": "inplace",
						"label": "address",
						"numberOfBytes": "20"
					},
					"t_address_payable": {
						"encoding": "inplace",
						"label": "address payable",
						"numberOfBytes": "20"
					},
					"t_array(t_struct(Product)15_storage)dyn_storage": {
						"base": "t_struct(Product)15_storage",
						"encoding": "dynamic_array",
						"label": "struct Ecommerce.Product[]",
						"numberOfBytes": "32"
					},
					"t_bool": {
						"encoding": "inplace",
						"label": "bool",
						"numberOfBytes": "1"
					},
					"t_string_storage": {
						"encoding": "bytes",
						"label": "string",
						"numberOfBytes": "32"
					},
					"t_struct(Product)15_storage": {
						"encoding": "inplace",
						"label": "struct Ecommerce.Product",
						"members": [
							{
								"astId": 2,
								"contract": "32-ecommerceContract.sol:Ecommerce",
								"label": "title",
								"offset": 0,
								"slot": "0",
								"type": "t_string_storage"
							},
							{
								"astId": 4,
								"contract": "32-ecommerceContract.sol:Ecommerce",
								"label": "desc",
								"offset": 0,
								"slot": "1",
								"type": "t_string_storage"
							},
							{
								"astId": 6,
								"contract": "32-ecommerceContract.sol:Ecommerce",
								"label": "seller",
								"offset": 0,
								"slot": "2",
								"type": "t_address_payable"
							},
							{
								"astId": 8,
								"contract": "32-ecommerceContract.sol:Ecommerce",
								"label": "productId",
								"offset": 0,
								"slot": "3",
								"type": "t_uint256"
							},
							{
								"astId": 10,
								"contract": "32-ecommerceContract.sol:Ecommerce",
								"label": "price",
								"offset": 0,
								"slot": "4",
								"type": "t_uint256"
							},
							{
								"astId": 12,
								"contract": "32-ecommerceContract.sol:Ecommerce",
								"label": "buyer",
								"offset": 0,
								"slot": "5",
								"type": "t_address"
							},
							{
								"astId": 14,
								"contract": "32-ecommerceContract.sol:Ecommerce",
								"label": "delivered",
								"offset": 20,
								"slot": "5",
								"type": "t_bool"
							}
						],
						"numberOfBytes": "192"
					},
					"t_uint256": {
						"encoding": "inplace",
						"label": "uint256",
						"numberOfBytes": "32"
					}
				}
			},
			"userdoc": {
				"kind": "user",
				"methods": {},
				"version": 1
			}
		}
	}
}