{
	"30-escrow.sol": {
		"Escrow": {
			"abi": [
				{
					"inputs": [
						{
							"internalType": "address",
							"name": "_payer",
							"type": "address"
						},
						{
							"internalType": "address payable",
							"name": "_payee",
							"type": "address"
						},
						{
							"internalType": "uint256",
							"name": "_amount",
							"type": "uint256"
						}
					],
					"stateMutability": "nonpayable",
					"type": "constructor"
				},
				{
					"inputs": [],
					"name": "amount",
					"outputs": [
						{
							"internalType": "uint256",
							"name": "",
							"type": "uint256"
						}
					],
					"stateMutability": "view",
					"type": "function"
				},
				{
					"inputs": [],
					"name": "balanceOf",
					"outputs": [
						{
							"internalType": "uint256",
							"name": "",
							"type": "uint256"
						}
					],
					"stateMutability": "view",
					"type": "function"
				},
				{
					"inputs": [],
					"name": "deposit",
					"outputs": [],
					"stateMutability": "payable",
					"type": "function"
				},
				{
					"inputs": [],
					"name": "payee",
					"outputs": [
						{
							"internalType": "address payable",
							"name": "",
							"type": "address"
						}
					],
					"stateMutability": "view",
					"type": "function"
				},
				{
					"inputs": [],
					"name": "payer",
					"outputs": [
						{
							"internalType": "address",
							"name": "",
							"type": "address"
						}
					],
					"stateMutability": "view",
					"type": "function"
				},
				{
					"inputs": [],
					"name": "release",
					"outputs": [],
					"stateMutability": "nonpayable",
					"type": "function"
				},
				{
					"inputs": [],
					"name": "thirdParty",
					"outputs": [
						{
							"internalType": "address",
							"name": "",
							"type": "address"
						}
					],
					"stateMutability": "view",
					"type": "function"
				}
			],
			"devdoc": {
				"kind": "dev",
				"methods": {},
				"version": 1
			},
			"evm": {
				"assembly": "    /* \"30-escrow.sol\":73:924  contract Escrow {\r... */\n  mstore(0x40, 0x80)\n    /* \"30-escrow.sol\":217:403  constructor( address _payer, address payable _payee, uint _amount) {\r... */\n  callvalue\n  dup1\n  iszero\n  tag_1\n  jumpi\n  0x00\n  dup1\n  revert\ntag_1:\n  pop\n  mload(0x40)\n  sub(codesize, bytecodeSize)\n  dup1\n  bytecodeSize\n  dup4\n  codecopy\n  dup2\n  dup2\n  add\n  0x40\n  mstore\n  dup2\n  add\n  swap1\n  tag_2\n  swap2\n  swap1\n  tag_3\n  jump\t// in\ntag_2:\n    /* \"30-escrow.sol\":303:309  _payer */\n  dup3\n    /* \"30-escrow.sol\":295:300  payer */\n  0x00\n  dup1\n    /* \"30-escrow.sol\":295:309  payer = _payer */\n  0x0100\n  exp\n  dup2\n  sload\n  dup2\n  0xffffffffffffffffffffffffffffffffffffffff\n  mul\n  not\n  and\n  swap1\n  dup4\n  0xffffffffffffffffffffffffffffffffffffffff\n  and\n  mul\n  or\n  swap1\n  sstore\n  pop\n    /* \"30-escrow.sol\":328:334  _payee */\n  dup2\n    /* \"30-escrow.sol\":320:325  payee */\n  0x01\n  0x00\n    /* \"30-escrow.sol\":320:334  payee = _payee */\n  0x0100\n  exp\n  dup2\n  sload\n  dup2\n  0xffffffffffffffffffffffffffffffffffffffff\n  mul\n  not\n  and\n  swap1\n  dup4\n  0xffffffffffffffffffffffffffffffffffffffff\n  and\n  mul\n  or\n  swap1\n  sstore\n  pop\n    /* \"30-escrow.sol\":358:368  msg.sender */\n  caller\n    /* \"30-escrow.sol\":345:355  thirdParty */\n  0x02\n  0x00\n    /* \"30-escrow.sol\":345:368  thirdParty = msg.sender */\n  0x0100\n  exp\n  dup2\n  sload\n  dup2\n  0xffffffffffffffffffffffffffffffffffffffff\n  mul\n  not\n  and\n  swap1\n  dup4\n  0xffffffffffffffffffffffffffffffffffffffff\n  and\n  mul\n  or\n  swap1\n  sstore\n  pop\n    /* \"30-escrow.sol\":388:395  _amount */\n  dup1\n    /* \"30-escrow.sol\":379:385  amount */\n  0x03\n    /* \"30-escrow.sol\":379:395  amount = _amount */\n  dup2\n  swap1\n  sstore\n  pop\n    /* \"30-escrow.sol\":217:403  constructor( address _payer, address payable _payee, uint _amount) {\r... */\n  pop\n  pop\n  pop\n    /* \"30-escrow.sol\":73:924  contract Escrow {\r... */\n  jump(tag_6)\n    /* \"#utility.yul\":7:150   */\ntag_8:\n    /* \"#utility.yul\":64:69   */\n  0x00\n    /* \"#utility.yul\":95:101   */\n  dup2\n    /* \"#utility.yul\":89:102   */\n  mload\n    /* \"#utility.yul\":80:102   */\n  swap1\n  pop\n    /* \"#utility.yul\":111:144   */\n  tag_10\n    /* \"#utility.yul\":138:143   */\n  dup2\n    /* \"#utility.yul\":111:144   */\n  tag_11\n  jump\t// in\ntag_10:\n    /* \"#utility.yul\":7:150   */\n  swap3\n  swap2\n  pop\n  pop\n  jump\t// out\n    /* \"#utility.yul\":156:315   */\ntag_12:\n    /* \"#utility.yul\":221:226   */\n  0x00\n    /* \"#utility.yul\":252:258   */\n  dup2\n    /* \"#utility.yul\":246:259   */\n  mload\n    /* \"#utility.yul\":237:259   */\n  swap1\n  pop\n    /* \"#utility.yul\":268:309   */\n  tag_14\n    /* \"#utility.yul\":303:308   */\n  dup2\n    /* \"#utility.yul\":268:309   */\n  tag_15\n  jump\t// in\ntag_14:\n    /* \"#utility.yul\":156:315   */\n  swap3\n  swap2\n  pop\n  pop\n  jump\t// out\n    /* \"#utility.yul\":321:464   */\ntag_16:\n    /* \"#utility.yul\":378:383   */\n  0x00\n    /* \"#utility.yul\":409:415   */\n  dup2\n    /* \"#utility.yul\":403:416   */\n  mload\n    /* \"#utility.yul\":394:416   */\n  swap1\n  pop\n    /* \"#utility.yul\":425:458   */\n  tag_18\n    /* \"#utility.yul\":452:457   */\n  dup2\n    /* \"#utility.yul\":425:458   */\n  tag_19\n  jump\t// in\ntag_18:\n    /* \"#utility.yul\":321:464   */\n  swap3\n  swap2\n  pop\n  pop\n  jump\t// out\n    /* \"#utility.yul\":470:1149   */\ntag_3:\n    /* \"#utility.yul\":566:572   */\n  0x00\n    /* \"#utility.yul\":574:580   */\n  dup1\n    /* \"#utility.yul\":582:588   */\n  0x00\n    /* \"#utility.yul\":631:633   */\n  0x60\n    /* \"#utility.yul\":619:628   */\n  dup5\n    /* \"#utility.yul\":610:617   */\n  dup7\n    /* \"#utility.yul\":606:629   */\n  sub\n    /* \"#utility.yul\":602:634   */\n  slt\n    /* \"#utility.yul\":599:718   */\n  iszero\n  tag_21\n  jumpi\n    /* \"#utility.yul\":637:716   */\n  tag_22\n  tag_23\n  jump\t// in\ntag_22:\n    /* \"#utility.yul\":599:718   */\ntag_21:\n    /* \"#utility.yul\":757:758   */\n  0x00\n    /* \"#utility.yul\":782:846   */\n  tag_24\n    /* \"#utility.yul\":838:845   */\n  dup7\n    /* \"#utility.yul\":829:835   */\n  dup3\n    /* \"#utility.yul\":818:827   */\n  dup8\n    /* \"#utility.yul\":814:836   */\n  add\n    /* \"#utility.yul\":782:846   */\n  tag_8\n  jump\t// in\ntag_24:\n    /* \"#utility.yul\":772:846   */\n  swap4\n  pop\n    /* \"#utility.yul\":728:856   */\n  pop\n    /* \"#utility.yul\":895:897   */\n  0x20\n    /* \"#utility.yul\":921:993   */\n  tag_25\n    /* \"#utility.yul\":985:992   */\n  dup7\n    /* \"#utility.yul\":976:982   */\n  dup3\n    /* \"#utility.yul\":965:974   */\n  dup8\n    /* \"#utility.yul\":961:983   */\n  add\n    /* \"#utility.yul\":921:993   */\n  tag_12\n  jump\t// in\ntag_25:\n    /* \"#utility.yul\":911:993   */\n  swap3\n  pop\n    /* \"#utility.yul\":866:1003   */\n  pop\n    /* \"#utility.yul\":1042:1044   */\n  0x40\n    /* \"#utility.yul\":1068:1132   */\n  tag_26\n    /* \"#utility.yul\":1124:1131   */\n  dup7\n    /* \"#utility.yul\":1115:1121   */\n  dup3\n    /* \"#utility.yul\":1104:1113   */\n  dup8\n    /* \"#utility.yul\":1100:1122   */\n  add\n    /* \"#utility.yul\":1068:1132   */\n  tag_16\n  jump\t// in\ntag_26:\n    /* \"#utility.yul\":1058:1132   */\n  swap2\n  pop\n    /* \"#utility.yul\":1013:1142   */\n  pop\n    /* \"#utility.yul\":470:1149   */\n  swap3\n  pop\n  swap3\n  pop\n  swap3\n  jump\t// out\n    /* \"#utility.yul\":1236:1332   */\ntag_29:\n    /* \"#utility.yul\":1273:1280   */\n  0x00\n    /* \"#utility.yul\":1302:1326   */\n  tag_31\n    /* \"#utility.yul\":1320:1325   */\n  dup3\n    /* \"#utility.yul\":1302:1326   */\n  tag_32\n  jump\t// in\ntag_31:\n    /* \"#utility.yul\":1291:1326   */\n  swap1\n  pop\n    /* \"#utility.yul\":1236:1332   */\n  swap2\n  swap1\n  pop\n  jump\t// out\n    /* \"#utility.yul\":1338:1442   */\ntag_33:\n    /* \"#utility.yul\":1383:1390   */\n  0x00\n    /* \"#utility.yul\":1412:1436   */\n  tag_35\n    /* \"#utility.yul\":1430:1435   */\n  dup3\n    /* \"#utility.yul\":1412:1436   */\n  tag_32\n  jump\t// in\ntag_35:\n    /* \"#utility.yul\":1401:1436   */\n  swap1\n  pop\n    /* \"#utility.yul\":1338:1442   */\n  swap2\n  swap1\n  pop\n  jump\t// out\n    /* \"#utility.yul\":1448:1574   */\ntag_32:\n    /* \"#utility.yul\":1485:1492   */\n  0x00\n    /* \"#utility.yul\":1525:1567   */\n  0xffffffffffffffffffffffffffffffffffffffff\n    /* \"#utility.yul\":1518:1523   */\n  dup3\n    /* \"#utility.yul\":1514:1568   */\n  and\n    /* \"#utility.yul\":1503:1568   */\n  swap1\n  pop\n    /* \"#utility.yul\":1448:1574   */\n  swap2\n  swap1\n  pop\n  jump\t// out\n    /* \"#utility.yul\":1580:1657   */\ntag_37:\n    /* \"#utility.yul\":1617:1624   */\n  0x00\n    /* \"#utility.yul\":1646:1651   */\n  dup2\n    /* \"#utility.yul\":1635:1651   */\n  swap1\n  pop\n    /* \"#utility.yul\":1580:1657   */\n  swap2\n  swap1\n  pop\n  jump\t// out\n    /* \"#utility.yul\":1786:1903   */\ntag_23:\n    /* \"#utility.yul\":1895:1896   */\n  0x00\n    /* \"#utility.yul\":1892:1893   */\n  dup1\n    /* \"#utility.yul\":1885:1897   */\n  revert\n    /* \"#utility.yul\":1909:2031   */\ntag_11:\n    /* \"#utility.yul\":1982:2006   */\n  tag_43\n    /* \"#utility.yul\":2000:2005   */\n  dup2\n    /* \"#utility.yul\":1982:2006   */\n  tag_29\n  jump\t// in\ntag_43:\n    /* \"#utility.yul\":1975:1980   */\n  dup2\n    /* \"#utility.yul\":1972:2007   */\n  eq\n    /* \"#utility.yul\":1962:2025   */\n  tag_44\n  jumpi\n    /* \"#utility.yul\":2021:2022   */\n  0x00\n    /* \"#utility.yul\":2018:2019   */\n  dup1\n    /* \"#utility.yul\":2011:2023   */\n  revert\n    /* \"#utility.yul\":1962:2025   */\ntag_44:\n    /* \"#utility.yul\":1909:2031   */\n  pop\n  jump\t// out\n    /* \"#utility.yul\":2037:2175   */\ntag_15:\n    /* \"#utility.yul\":2118:2150   */\n  tag_46\n    /* \"#utility.yul\":2144:2149   */\n  dup2\n    /* \"#utility.yul\":2118:2150   */\n  tag_33\n  jump\t// in\ntag_46:\n    /* \"#utility.yul\":2111:2116   */\n  dup2\n    /* \"#utility.yul\":2108:2151   */\n  eq\n    /* \"#utility.yul\":2098:2169   */\n  tag_47\n  jumpi\n    /* \"#utility.yul\":2165:2166   */\n  0x00\n    /* \"#utility.yul\":2162:2163   */\n  dup1\n    /* \"#utility.yul\":2155:2167   */\n  revert\n    /* \"#utility.yul\":2098:2169   */\ntag_47:\n    /* \"#utility.yul\":2037:2175   */\n  pop\n  jump\t// out\n    /* \"#utility.yul\":2181:2303   */\ntag_19:\n    /* \"#utility.yul\":2254:2278   */\n  tag_49\n    /* \"#utility.yul\":2272:2277   */\n  dup2\n    /* \"#utility.yul\":2254:2278   */\n  tag_37\n  jump\t// in\ntag_49:\n    /* \"#utility.yul\":2247:2252   */\n  dup2\n    /* \"#utility.yul\":2244:2279   */\n  eq\n    /* \"#utility.yul\":2234:2297   */\n  tag_50\n  jumpi\n    /* \"#utility.yul\":2293:2294   */\n  0x00\n    /* \"#utility.yul\":2290:2291   */\n  dup1\n    /* \"#utility.yul\":2283:2295   */\n  revert\n    /* \"#utility.yul\":2234:2297   */\ntag_50:\n    /* \"#utility.yul\":2181:2303   */\n  pop\n  jump\t// out\n    /* \"30-escrow.sol\":73:924  contract Escrow {\r... */\ntag_6:\n  dataSize(sub_0)\n  dup1\n  dataOffset(sub_0)\n  0x00\n  codecopy\n  0x00\n  return\nstop\n\nsub_0: assembly {\n        /* \"30-escrow.sol\":73:924  contract Escrow {\r... */\n      mstore(0x40, 0x80)\n      jumpi(tag_1, lt(calldatasize, 0x04))\n      shr(0xe0, calldataload(0x00))\n      dup1\n      0xaa8c217c\n      gt\n      tag_9\n      jumpi\n      dup1\n      0xaa8c217c\n      eq\n      tag_5\n      jumpi\n      dup1\n      0xae90b213\n      eq\n      tag_6\n      jumpi\n      dup1\n      0xd0e30db0\n      eq\n      tag_7\n      jumpi\n      dup1\n      0xe02ea484\n      eq\n      tag_8\n      jumpi\n      jump(tag_1)\n    tag_9:\n      dup1\n      0x123119cd\n      eq\n      tag_2\n      jumpi\n      dup1\n      0x722713f7\n      eq\n      tag_3\n      jumpi\n      dup1\n      0x86d1a69f\n      eq\n      tag_4\n      jumpi\n    tag_1:\n      0x00\n      dup1\n      revert\n        /* \"30-escrow.sol\":96:116  address public payer */\n    tag_2:\n      callvalue\n      dup1\n      iszero\n      tag_10\n      jumpi\n      0x00\n      dup1\n      revert\n    tag_10:\n      pop\n      tag_11\n      tag_12\n      jump\t// in\n    tag_11:\n      mload(0x40)\n      tag_13\n      swap2\n      swap1\n      tag_14\n      jump\t// in\n    tag_13:\n      mload(0x40)\n      dup1\n      swap2\n      sub\n      swap1\n      return\n        /* \"30-escrow.sol\":834:919  function balanceOf() public view returns(uint){\r... */\n    tag_3:\n      callvalue\n      dup1\n      iszero\n      tag_15\n      jumpi\n      0x00\n      dup1\n      revert\n    tag_15:\n      pop\n      tag_16\n      tag_17\n      jump\t// in\n    tag_16:\n      mload(0x40)\n      tag_18\n      swap2\n      swap1\n      tag_19\n      jump\t// in\n    tag_18:\n      mload(0x40)\n      dup1\n      swap2\n      sub\n      swap1\n      return\n        /* \"30-escrow.sol\":598:832  function release() public {\r... */\n    tag_4:\n      callvalue\n      dup1\n      iszero\n      tag_20\n      jumpi\n      0x00\n      dup1\n      revert\n    tag_20:\n      pop\n      tag_21\n      tag_22\n      jump\t// in\n    tag_21:\n      stop\n        /* \"30-escrow.sol\":190:208  uint public amount */\n    tag_5:\n      callvalue\n      dup1\n      iszero\n      tag_23\n      jumpi\n      0x00\n      dup1\n      revert\n    tag_23:\n      pop\n      tag_24\n      tag_25\n      jump\t// in\n    tag_24:\n      mload(0x40)\n      tag_26\n      swap2\n      swap1\n      tag_19\n      jump\t// in\n    tag_26:\n      mload(0x40)\n      dup1\n      swap2\n      sub\n      swap1\n      return\n        /* \"30-escrow.sol\":123:151  address payable public payee */\n    tag_6:\n      callvalue\n      dup1\n      iszero\n      tag_27\n      jumpi\n      0x00\n      dup1\n      revert\n    tag_27:\n      pop\n      tag_28\n      tag_29\n      jump\t// in\n    tag_28:\n      mload(0x40)\n      tag_30\n      swap2\n      swap1\n      tag_31\n      jump\t// in\n    tag_30:\n      mload(0x40)\n      dup1\n      swap2\n      sub\n      swap1\n      return\n        /* \"30-escrow.sol\":409:595  function deposit() public payable {\r... */\n    tag_7:\n      tag_32\n      tag_33\n      jump\t// in\n    tag_32:\n      stop\n        /* \"30-escrow.sol\":158:183  address public thirdParty */\n    tag_8:\n      callvalue\n      dup1\n      iszero\n      tag_34\n      jumpi\n      0x00\n      dup1\n      revert\n    tag_34:\n      pop\n      tag_35\n      tag_36\n      jump\t// in\n    tag_35:\n      mload(0x40)\n      tag_37\n      swap2\n      swap1\n      tag_14\n      jump\t// in\n    tag_37:\n      mload(0x40)\n      dup1\n      swap2\n      sub\n      swap1\n      return\n        /* \"30-escrow.sol\":96:116  address public payer */\n    tag_12:\n      0x00\n      dup1\n      sload\n      swap1\n      0x0100\n      exp\n      swap1\n      div\n      0xffffffffffffffffffffffffffffffffffffffff\n      and\n      dup2\n      jump\t// out\n        /* \"30-escrow.sol\":834:919  function balanceOf() public view returns(uint){\r... */\n    tag_17:\n        /* \"30-escrow.sol\":875:879  uint */\n      0x00\n        /* \"30-escrow.sol\":894:915  address(this).balance */\n      selfbalance\n        /* \"30-escrow.sol\":887:915  return address(this).balance */\n      swap1\n      pop\n        /* \"30-escrow.sol\":834:919  function balanceOf() public view returns(uint){\r... */\n      swap1\n      jump\t// out\n        /* \"30-escrow.sol\":598:832  function release() public {\r... */\n    tag_22:\n        /* \"30-escrow.sol\":653:663  thirdParty */\n      0x02\n      0x00\n      swap1\n      sload\n      swap1\n      0x0100\n      exp\n      swap1\n      div\n      0xffffffffffffffffffffffffffffffffffffffff\n      and\n        /* \"30-escrow.sol\":639:663  msg.sender == thirdParty */\n      0xffffffffffffffffffffffffffffffffffffffff\n      and\n        /* \"30-escrow.sol\":639:649  msg.sender */\n      caller\n        /* \"30-escrow.sol\":639:663  msg.sender == thirdParty */\n      0xffffffffffffffffffffffffffffffffffffffff\n      and\n      eq\n        /* \"30-escrow.sol\":631:701  require(msg.sender == thirdParty, \"only thirdParty can release funds\") */\n      tag_40\n      jumpi\n      mload(0x40)\n      0x08c379a000000000000000000000000000000000000000000000000000000000\n      dup2\n      mstore\n      0x04\n      add\n      tag_41\n      swap1\n      tag_42\n      jump\t// in\n    tag_41:\n      mload(0x40)\n      dup1\n      swap2\n      sub\n      swap1\n      revert\n    tag_40:\n        /* \"30-escrow.sol\":741:747  amount */\n      sload(0x03)\n        /* \"30-escrow.sol\":716:737  address(this).balance */\n      selfbalance\n        /* \"30-escrow.sol\":716:747  address(this).balance == amount */\n      eq\n        /* \"30-escrow.sol\":708:798  require(address(this).balance == amount,\"cannot release funds before full amount is sent\") */\n      tag_43\n      jumpi\n      mload(0x40)\n      0x08c379a000000000000000000000000000000000000000000000000000000000\n      dup2\n      mstore\n      0x04\n      add\n      tag_44\n      swap1\n      tag_45\n      jump\t// in\n    tag_44:\n      mload(0x40)\n      dup1\n      swap2\n      sub\n      swap1\n      revert\n    tag_43:\n        /* \"30-escrow.sol\":805:810  payee */\n      0x01\n      0x00\n      swap1\n      sload\n      swap1\n      0x0100\n      exp\n      swap1\n      div\n      0xffffffffffffffffffffffffffffffffffffffff\n      and\n        /* \"30-escrow.sol\":805:819  payee.transfer */\n      0xffffffffffffffffffffffffffffffffffffffff\n      and\n        /* \"30-escrow.sol\":805:827  payee.transfer(amount) */\n      0x08fc\n        /* \"30-escrow.sol\":820:826  amount */\n      sload(0x03)\n        /* \"30-escrow.sol\":805:827  payee.transfer(amount) */\n      swap1\n      dup2\n      iszero\n      mul\n      swap1\n      mload(0x40)\n      0x00\n      mload(0x40)\n      dup1\n      dup4\n      sub\n      dup2\n      dup6\n      dup9\n      dup9\n      call\n      swap4\n      pop\n      pop\n      pop\n      pop\n      iszero\n      dup1\n      iszero\n      tag_47\n      jumpi\n      returndatasize\n      0x00\n      dup1\n      returndatacopy\n      revert(0x00, returndatasize)\n    tag_47:\n      pop\n        /* \"30-escrow.sol\":598:832  function release() public {\r... */\n      jump\t// out\n        /* \"30-escrow.sol\":190:208  uint public amount */\n    tag_25:\n      sload(0x03)\n      dup2\n      jump\t// out\n        /* \"30-escrow.sol\":123:151  address payable public payee */\n    tag_29:\n      0x01\n      0x00\n      swap1\n      sload\n      swap1\n      0x0100\n      exp\n      swap1\n      div\n      0xffffffffffffffffffffffffffffffffffffffff\n      and\n      dup2\n      jump\t// out\n        /* \"30-escrow.sol\":409:595  function deposit() public payable {\r... */\n    tag_33:\n        /* \"30-escrow.sol\":473:478  payer */\n      0x00\n      dup1\n      sload\n      swap1\n      0x0100\n      exp\n      swap1\n      div\n      0xffffffffffffffffffffffffffffffffffffffff\n      and\n        /* \"30-escrow.sol\":459:478  msg.sender == payer */\n      0xffffffffffffffffffffffffffffffffffffffff\n      and\n        /* \"30-escrow.sol\":459:469  msg.sender */\n      caller\n        /* \"30-escrow.sol\":459:478  msg.sender == payer */\n      0xffffffffffffffffffffffffffffffffffffffff\n      and\n      eq\n        /* \"30-escrow.sol\":450:507  require (msg.sender == payer, \"Sender must be the payer\") */\n      tag_49\n      jumpi\n      mload(0x40)\n      0x08c379a000000000000000000000000000000000000000000000000000000000\n      dup2\n      mstore\n      0x04\n      add\n      tag_50\n      swap1\n      tag_51\n      jump\t// in\n    tag_50:\n      mload(0x40)\n      dup1\n      swap2\n      sub\n      swap1\n      revert\n    tag_49:\n        /* \"30-escrow.sol\":547:553  amount */\n      sload(0x03)\n        /* \"30-escrow.sol\":522:543  address(this).balance */\n      selfbalance\n        /* \"30-escrow.sol\":522:553  address(this).balance <= amount */\n      gt\n      iszero\n        /* \"30-escrow.sol\":514:590  require(address(this).balance <= amount,\"cant send more than escrow amount\") */\n      tag_52\n      jumpi\n      mload(0x40)\n      0x08c379a000000000000000000000000000000000000000000000000000000000\n      dup2\n      mstore\n      0x04\n      add\n      tag_53\n      swap1\n      tag_54\n      jump\t// in\n    tag_53:\n      mload(0x40)\n      dup1\n      swap2\n      sub\n      swap1\n      revert\n    tag_52:\n        /* \"30-escrow.sol\":409:595  function deposit() public payable {\r... */\n      jump\t// out\n        /* \"30-escrow.sol\":158:183  address public thirdParty */\n    tag_36:\n      0x02\n      0x00\n      swap1\n      sload\n      swap1\n      0x0100\n      exp\n      swap1\n      div\n      0xffffffffffffffffffffffffffffffffffffffff\n      and\n      dup2\n      jump\t// out\n        /* \"#utility.yul\":7:149   */\n    tag_56:\n        /* \"#utility.yul\":110:142   */\n      tag_58\n        /* \"#utility.yul\":136:141   */\n      dup2\n        /* \"#utility.yul\":110:142   */\n      tag_59\n      jump\t// in\n    tag_58:\n        /* \"#utility.yul\":105:108   */\n      dup3\n        /* \"#utility.yul\":98:143   */\n      mstore\n        /* \"#utility.yul\":7:149   */\n      pop\n      pop\n      jump\t// out\n        /* \"#utility.yul\":155:273   */\n    tag_60:\n        /* \"#utility.yul\":242:266   */\n      tag_62\n        /* \"#utility.yul\":260:265   */\n      dup2\n        /* \"#utility.yul\":242:266   */\n      tag_63\n      jump\t// in\n    tag_62:\n        /* \"#utility.yul\":237:240   */\n      dup3\n        /* \"#utility.yul\":230:267   */\n      mstore\n        /* \"#utility.yul\":155:273   */\n      pop\n      pop\n      jump\t// out\n        /* \"#utility.yul\":279:645   */\n    tag_64:\n        /* \"#utility.yul\":421:424   */\n      0x00\n        /* \"#utility.yul\":442:509   */\n      tag_66\n        /* \"#utility.yul\":506:508   */\n      0x21\n        /* \"#utility.yul\":501:504   */\n      dup4\n        /* \"#utility.yul\":442:509   */\n      tag_67\n      jump\t// in\n    tag_66:\n        /* \"#utility.yul\":435:509   */\n      swap2\n      pop\n        /* \"#utility.yul\":518:611   */\n      tag_68\n        /* \"#utility.yul\":607:610   */\n      dup3\n        /* \"#utility.yul\":518:611   */\n      tag_69\n      jump\t// in\n    tag_68:\n        /* \"#utility.yul\":636:638   */\n      0x40\n        /* \"#utility.yul\":631:634   */\n      dup3\n        /* \"#utility.yul\":627:639   */\n      add\n        /* \"#utility.yul\":620:639   */\n      swap1\n      pop\n        /* \"#utility.yul\":279:645   */\n      swap2\n      swap1\n      pop\n      jump\t// out\n        /* \"#utility.yul\":651:1017   */\n    tag_70:\n        /* \"#utility.yul\":793:796   */\n      0x00\n        /* \"#utility.yul\":814:881   */\n      tag_72\n        /* \"#utility.yul\":878:880   */\n      0x2f\n        /* \"#utility.yul\":873:876   */\n      dup4\n        /* \"#utility.yul\":814:881   */\n      tag_67\n      jump\t// in\n    tag_72:\n        /* \"#utility.yul\":807:881   */\n      swap2\n      pop\n        /* \"#utility.yul\":890:983   */\n      tag_73\n        /* \"#utility.yul\":979:982   */\n      dup3\n        /* \"#utility.yul\":890:983   */\n      tag_74\n      jump\t// in\n    tag_73:\n        /* \"#utility.yul\":1008:1010   */\n      0x40\n        /* \"#utility.yul\":1003:1006   */\n      dup3\n        /* \"#utility.yul\":999:1011   */\n      add\n        /* \"#utility.yul\":992:1011   */\n      swap1\n      pop\n        /* \"#utility.yul\":651:1017   */\n      swap2\n      swap1\n      pop\n      jump\t// out\n        /* \"#utility.yul\":1023:1389   */\n    tag_75:\n        /* \"#utility.yul\":1165:1168   */\n      0x00\n        /* \"#utility.yul\":1186:1253   */\n      tag_77\n        /* \"#utility.yul\":1250:1252   */\n      0x21\n        /* \"#utility.yul\":1245:1248   */\n      dup4\n        /* \"#utility.yul\":1186:1253   */\n      tag_67\n      jump\t// in\n    tag_77:\n        /* \"#utility.yul\":1179:1253   */\n      swap2\n      pop\n        /* \"#utility.yul\":1262:1355   */\n      tag_78\n        /* \"#utility.yul\":1351:1354   */\n      dup3\n        /* \"#utility.yul\":1262:1355   */\n      tag_79\n      jump\t// in\n    tag_78:\n        /* \"#utility.yul\":1380:1382   */\n      0x40\n        /* \"#utility.yul\":1375:1378   */\n      dup3\n        /* \"#utility.yul\":1371:1383   */\n      add\n        /* \"#utility.yul\":1364:1383   */\n      swap1\n      pop\n        /* \"#utility.yul\":1023:1389   */\n      swap2\n      swap1\n      pop\n      jump\t// out\n        /* \"#utility.yul\":1395:1761   */\n    tag_80:\n        /* \"#utility.yul\":1537:1540   */\n      0x00\n        /* \"#utility.yul\":1558:1625   */\n      tag_82\n        /* \"#utility.yul\":1622:1624   */\n      0x18\n        /* \"#utility.yul\":1617:1620   */\n      dup4\n        /* \"#utility.yul\":1558:1625   */\n      tag_67\n      jump\t// in\n    tag_82:\n        /* \"#utility.yul\":1551:1625   */\n      swap2\n      pop\n        /* \"#utility.yul\":1634:1727   */\n      tag_83\n        /* \"#utility.yul\":1723:1726   */\n      dup3\n        /* \"#utility.yul\":1634:1727   */\n      tag_84\n      jump\t// in\n    tag_83:\n        /* \"#utility.yul\":1752:1754   */\n      0x20\n        /* \"#utility.yul\":1747:1750   */\n      dup3\n        /* \"#utility.yul\":1743:1755   */\n      add\n        /* \"#utility.yul\":1736:1755   */\n      swap1\n      pop\n        /* \"#utility.yul\":1395:1761   */\n      swap2\n      swap1\n      pop\n      jump\t// out\n        /* \"#utility.yul\":1767:1885   */\n    tag_85:\n        /* \"#utility.yul\":1854:1878   */\n      tag_87\n        /* \"#utility.yul\":1872:1877   */\n      dup2\n        /* \"#utility.yul\":1854:1878   */\n      tag_88\n      jump\t// in\n    tag_87:\n        /* \"#utility.yul\":1849:1852   */\n      dup3\n        /* \"#utility.yul\":1842:1879   */\n      mstore\n        /* \"#utility.yul\":1767:1885   */\n      pop\n      pop\n      jump\t// out\n        /* \"#utility.yul\":1891:2113   */\n    tag_14:\n        /* \"#utility.yul\":1984:1988   */\n      0x00\n        /* \"#utility.yul\":2022:2024   */\n      0x20\n        /* \"#utility.yul\":2011:2020   */\n      dup3\n        /* \"#utility.yul\":2007:2025   */\n      add\n        /* \"#utility.yul\":1999:2025   */\n      swap1\n      pop\n        /* \"#utility.yul\":2035:2106   */\n      tag_90\n        /* \"#utility.yul\":2103:2104   */\n      0x00\n        /* \"#utility.yul\":2092:2101   */\n      dup4\n        /* \"#utility.yul\":2088:2105   */\n      add\n        /* \"#utility.yul\":2079:2085   */\n      dup5\n        /* \"#utility.yul\":2035:2106   */\n      tag_60\n      jump\t// in\n    tag_90:\n        /* \"#utility.yul\":1891:2113   */\n      swap3\n      swap2\n      pop\n      pop\n      jump\t// out\n        /* \"#utility.yul\":2119:2373   */\n    tag_31:\n        /* \"#utility.yul\":2228:2232   */\n      0x00\n        /* \"#utility.yul\":2266:2268   */\n      0x20\n        /* \"#utility.yul\":2255:2264   */\n      dup3\n        /* \"#utility.yul\":2251:2269   */\n      add\n        /* \"#utility.yul\":2243:2269   */\n      swap1\n      pop\n        /* \"#utility.yul\":2279:2366   */\n      tag_92\n        /* \"#utility.yul\":2363:2364   */\n      0x00\n        /* \"#utility.yul\":2352:2361   */\n      dup4\n        /* \"#utility.yul\":2348:2365   */\n      add\n        /* \"#utility.yul\":2339:2345   */\n      dup5\n        /* \"#utility.yul\":2279:2366   */\n      tag_56\n      jump\t// in\n    tag_92:\n        /* \"#utility.yul\":2119:2373   */\n      swap3\n      swap2\n      pop\n      pop\n      jump\t// out\n        /* \"#utility.yul\":2379:2798   */\n    tag_42:\n        /* \"#utility.yul\":2545:2549   */\n      0x00\n        /* \"#utility.yul\":2583:2585   */\n      0x20\n        /* \"#utility.yul\":2572:2581   */\n      dup3\n        /* \"#utility.yul\":2568:2586   */\n      add\n        /* \"#utility.yul\":2560:2586   */\n      swap1\n      pop\n        /* \"#utility.yul\":2632:2641   */\n      dup2\n        /* \"#utility.yul\":2626:2630   */\n      dup2\n        /* \"#utility.yul\":2622:2642   */\n      sub\n        /* \"#utility.yul\":2618:2619   */\n      0x00\n        /* \"#utility.yul\":2607:2616   */\n      dup4\n        /* \"#utility.yul\":2603:2620   */\n      add\n        /* \"#utility.yul\":2596:2643   */\n      mstore\n        /* \"#utility.yul\":2660:2791   */\n      tag_94\n        /* \"#utility.yul\":2786:2790   */\n      dup2\n        /* \"#utility.yul\":2660:2791   */\n      tag_64\n      jump\t// in\n    tag_94:\n        /* \"#utility.yul\":2652:2791   */\n      swap1\n      pop\n        /* \"#utility.yul\":2379:2798   */\n      swap2\n      swap1\n      pop\n      jump\t// out\n        /* \"#utility.yul\":2804:3223   */\n    tag_45:\n        /* \"#utility.yul\":2970:2974   */\n      0x00\n        /* \"#utility.yul\":3008:3010   */\n      0x20\n        /* \"#utility.yul\":2997:3006   */\n      dup3\n        /* \"#utility.yul\":2993:3011   */\n      add\n        /* \"#utility.yul\":2985:3011   */\n      swap1\n      pop\n        /* \"#utility.yul\":3057:3066   */\n      dup2\n        /* \"#utility.yul\":3051:3055   */\n      dup2\n        /* \"#utility.yul\":3047:3067   */\n      sub\n        /* \"#utility.yul\":3043:3044   */\n      0x00\n        /* \"#utility.yul\":3032:3041   */\n      dup4\n        /* \"#utility.yul\":3028:3045   */\n      add\n        /* \"#utility.yul\":3021:3068   */\n      mstore\n        /* \"#utility.yul\":3085:3216   */\n      tag_96\n        /* \"#utility.yul\":3211:3215   */\n      dup2\n        /* \"#utility.yul\":3085:3216   */\n      tag_70\n      jump\t// in\n    tag_96:\n        /* \"#utility.yul\":3077:3216   */\n      swap1\n      pop\n        /* \"#utility.yul\":2804:3223   */\n      swap2\n      swap1\n      pop\n      jump\t// out\n        /* \"#utility.yul\":3229:3648   */\n    tag_54:\n        /* \"#utility.yul\":3395:3399   */\n      0x00\n        /* \"#utility.yul\":3433:3435   */\n      0x20\n        /* \"#utility.yul\":3422:3431   */\n      dup3\n        /* \"#utility.yul\":3418:3436   */\n      add\n        /* \"#utility.yul\":3410:3436   */\n      swap1\n      pop\n        /* \"#utility.yul\":3482:3491   */\n      dup2\n        /* \"#utility.yul\":3476:3480   */\n      dup2\n        /* \"#utility.yul\":3472:3492   */\n      sub\n        /* \"#utility.yul\":3468:3469   */\n      0x00\n        /* \"#utility.yul\":3457:3466   */\n      dup4\n        /* \"#utility.yul\":3453:3470   */\n      add\n        /* \"#utility.yul\":3446:3493   */\n      mstore\n        /* \"#utility.yul\":3510:3641   */\n      tag_98\n        /* \"#utility.yul\":3636:3640   */\n      dup2\n        /* \"#utility.yul\":3510:3641   */\n      tag_75\n      jump\t// in\n    tag_98:\n        /* \"#utility.yul\":3502:3641   */\n      swap1\n      pop\n        /* \"#utility.yul\":3229:3648   */\n      swap2\n      swap1\n      pop\n      jump\t// out\n        /* \"#utility.yul\":3654:4073   */\n    tag_51:\n        /* \"#utility.yul\":3820:3824   */\n      0x00\n        /* \"#utility.yul\":3858:3860   */\n      0x20\n        /* \"#utility.yul\":3847:3856   */\n      dup3\n        /* \"#utility.yul\":3843:3861   */\n      add\n        /* \"#utility.yul\":3835:3861   */\n      swap1\n      pop\n        /* \"#utility.yul\":3907:3916   */\n      dup2\n        /* \"#utility.yul\":3901:3905   */\n      dup2\n        /* \"#utility.yul\":3897:3917   */\n      sub\n        /* \"#utility.yul\":3893:3894   */\n      0x00\n        /* \"#utility.yul\":3882:3891   */\n      dup4\n        /* \"#utility.yul\":3878:3895   */\n      add\n        /* \"#utility.yul\":3871:3918   */\n      mstore\n        /* \"#utility.yul\":3935:4066   */\n      tag_100\n        /* \"#utility.yul\":4061:4065   */\n      dup2\n        /* \"#utility.yul\":3935:4066   */\n      tag_80\n      jump\t// in\n    tag_100:\n        /* \"#utility.yul\":3927:4066   */\n      swap1\n      pop\n        /* \"#utility.yul\":3654:4073   */\n      swap2\n      swap1\n      pop\n      jump\t// out\n        /* \"#utility.yul\":4079:4301   */\n    tag_19:\n        /* \"#utility.yul\":4172:4176   */\n      0x00\n        /* \"#utility.yul\":4210:4212   */\n      0x20\n        /* \"#utility.yul\":4199:4208   */\n      dup3\n        /* \"#utility.yul\":4195:4213   */\n      add\n        /* \"#utility.yul\":4187:4213   */\n      swap1\n      pop\n        /* \"#utility.yul\":4223:4294   */\n      tag_102\n        /* \"#utility.yul\":4291:4292   */\n      0x00\n        /* \"#utility.yul\":4280:4289   */\n      dup4\n        /* \"#utility.yul\":4276:4293   */\n      add\n        /* \"#utility.yul\":4267:4273   */\n      dup5\n        /* \"#utility.yul\":4223:4294   */\n      tag_85\n      jump\t// in\n    tag_102:\n        /* \"#utility.yul\":4079:4301   */\n      swap3\n      swap2\n      pop\n      pop\n      jump\t// out\n        /* \"#utility.yul\":4307:4476   */\n    tag_67:\n        /* \"#utility.yul\":4391:4402   */\n      0x00\n        /* \"#utility.yul\":4425:4431   */\n      dup3\n        /* \"#utility.yul\":4420:4423   */\n      dup3\n        /* \"#utility.yul\":4413:4432   */\n      mstore\n        /* \"#utility.yul\":4465:4469   */\n      0x20\n        /* \"#utility.yul\":4460:4463   */\n      dup3\n        /* \"#utility.yul\":4456:4470   */\n      add\n        /* \"#utility.yul\":4441:4470   */\n      swap1\n      pop\n        /* \"#utility.yul\":4307:4476   */\n      swap3\n      swap2\n      pop\n      pop\n      jump\t// out\n        /* \"#utility.yul\":4482:4578   */\n    tag_63:\n        /* \"#utility.yul\":4519:4526   */\n      0x00\n        /* \"#utility.yul\":4548:4572   */\n      tag_105\n        /* \"#utility.yul\":4566:4571   */\n      dup3\n        /* \"#utility.yul\":4548:4572   */\n      tag_106\n      jump\t// in\n    tag_105:\n        /* \"#utility.yul\":4537:4572   */\n      swap1\n      pop\n        /* \"#utility.yul\":4482:4578   */\n      swap2\n      swap1\n      pop\n      jump\t// out\n        /* \"#utility.yul\":4584:4688   */\n    tag_59:\n        /* \"#utility.yul\":4629:4636   */\n      0x00\n        /* \"#utility.yul\":4658:4682   */\n      tag_108\n        /* \"#utility.yul\":4676:4681   */\n      dup3\n        /* \"#utility.yul\":4658:4682   */\n      tag_106\n      jump\t// in\n    tag_108:\n        /* \"#utility.yul\":4647:4682   */\n      swap1\n      pop\n        /* \"#utility.yul\":4584:4688   */\n      swap2\n      swap1\n      pop\n      jump\t// out\n        /* \"#utility.yul\":4694:4820   */\n    tag_106:\n        /* \"#utility.yul\":4731:4738   */\n      0x00\n        /* \"#utility.yul\":4771:4813   */\n      0xffffffffffffffffffffffffffffffffffffffff\n        /* \"#utility.yul\":4764:4769   */\n      dup3\n        /* \"#utility.yul\":4760:4814   */\n      and\n        /* \"#utility.yul\":4749:4814   */\n      swap1\n      pop\n        /* \"#utility.yul\":4694:4820   */\n      swap2\n      swap1\n      pop\n      jump\t// out\n        /* \"#utility.yul\":4826:4903   */\n    tag_88:\n        /* \"#utility.yul\":4863:4870   */\n      0x00\n        /* \"#utility.yul\":4892:4897   */\n      dup2\n        /* \"#utility.yul\":4881:4897   */\n      swap1\n      pop\n        /* \"#utility.yul\":4826:4903   */\n      swap2\n      swap1\n      pop\n      jump\t// out\n        /* \"#utility.yul\":4909:5129   */\n    tag_69:\n        /* \"#utility.yul\":5049:5083   */\n      0x6f6e6c7920746869726450617274792063616e2072656c656173652066756e64\n        /* \"#utility.yul\":5045:5046   */\n      0x00\n        /* \"#utility.yul\":5037:5043   */\n      dup3\n        /* \"#utility.yul\":5033:5047   */\n      add\n        /* \"#utility.yul\":5026:5084   */\n      mstore\n        /* \"#utility.yul\":5118:5121   */\n      0x7300000000000000000000000000000000000000000000000000000000000000\n        /* \"#utility.yul\":5113:5115   */\n      0x20\n        /* \"#utility.yul\":5105:5111   */\n      dup3\n        /* \"#utility.yul\":5101:5116   */\n      add\n        /* \"#utility.yul\":5094:5122   */\n      mstore\n        /* \"#utility.yul\":4909:5129   */\n      pop\n      jump\t// out\n        /* \"#utility.yul\":5135:5369   */\n    tag_74:\n        /* \"#utility.yul\":5275:5309   */\n      0x63616e6e6f742072656c656173652066756e6473206265666f72652066756c6c\n        /* \"#utility.yul\":5271:5272   */\n      0x00\n        /* \"#utility.yul\":5263:5269   */\n      dup3\n        /* \"#utility.yul\":5259:5273   */\n      add\n        /* \"#utility.yul\":5252:5310   */\n      mstore\n        /* \"#utility.yul\":5344:5361   */\n      0x20616d6f756e742069732073656e740000000000000000000000000000000000\n        /* \"#utility.yul\":5339:5341   */\n      0x20\n        /* \"#utility.yul\":5331:5337   */\n      dup3\n        /* \"#utility.yul\":5327:5342   */\n      add\n        /* \"#utility.yul\":5320:5362   */\n      mstore\n        /* \"#utility.yul\":5135:5369   */\n      pop\n      jump\t// out\n        /* \"#utility.yul\":5375:5595   */\n    tag_79:\n        /* \"#utility.yul\":5515:5549   */\n      0x63616e742073656e64206d6f7265207468616e20657363726f7720616d6f756e\n        /* \"#utility.yul\":5511:5512   */\n      0x00\n        /* \"#utility.yul\":5503:5509   */\n      dup3\n        /* \"#utility.yul\":5499:5513   */\n      add\n        /* \"#utility.yul\":5492:5550   */\n      mstore\n        /* \"#utility.yul\":5584:5587   */\n      0x7400000000000000000000000000000000000000000000000000000000000000\n        /* \"#utility.yul\":5579:5581   */\n      0x20\n        /* \"#utility.yul\":5571:5577   */\n      dup3\n        /* \"#utility.yul\":5567:5582   */\n      add\n        /* \"#utility.yul\":5560:5588   */\n      mstore\n        /* \"#utility.yul\":5375:5595   */\n      pop\n      jump\t// out\n        /* \"#utility.yul\":5601:5775   */\n    tag_84:\n        /* \"#utility.yul\":5741:5767   */\n      0x53656e646572206d757374206265207468652070617965720000000000000000\n        /* \"#utility.yul\":5737:5738   */\n      0x00\n        /* \"#utility.yul\":5729:5735   */\n      dup3\n        /* \"#utility.yul\":5725:5739   */\n      add\n        /* \"#utility.yul\":5718:5768   */\n      mstore\n        /* \"#utility.yul\":5601:5775   */\n      pop\n      jump\t// out\n\n    auxdata: 0xa26469706673582212208f1d872685e99e9b44d3678a8d8a39778a4633bd6ceadc94e7a288af14671e7f64736f6c63430008070033\n}\n",
				"bytecode": {
					"linkReferences": {},
					"object": "608060405234801561001057600080fd5b5060405161097238038061097283398181016040528101906100329190610142565b826000806101000a81548173ffffffffffffffffffffffffffffffffffffffff021916908373ffffffffffffffffffffffffffffffffffffffff16021790555081600160006101000a81548173ffffffffffffffffffffffffffffffffffffffff021916908373ffffffffffffffffffffffffffffffffffffffff16021790555033600260006101000a81548173ffffffffffffffffffffffffffffffffffffffff021916908373ffffffffffffffffffffffffffffffffffffffff1602179055508060038190555050505061022d565b600081519050610112816101e8565b92915050565b600081519050610127816101ff565b92915050565b60008151905061013c81610216565b92915050565b60008060006060848603121561015b5761015a6101e3565b5b600061016986828701610103565b935050602061017a86828701610118565b925050604061018b8682870161012d565b9150509250925092565b60006101a0826101b9565b9050919050565b60006101b2826101b9565b9050919050565b600073ffffffffffffffffffffffffffffffffffffffff82169050919050565b6000819050919050565b600080fd5b6101f181610195565b81146101fc57600080fd5b50565b610208816101a7565b811461021357600080fd5b50565b61021f816101d9565b811461022a57600080fd5b50565b6107368061023c6000396000f3fe6080604052600436106100705760003560e01c8063aa8c217c1161004e578063aa8c217c146100e2578063ae90b2131461010d578063d0e30db014610138578063e02ea4841461014257610070565b8063123119cd14610075578063722713f7146100a057806386d1a69f146100cb575b600080fd5b34801561008157600080fd5b5061008a61016d565b60405161009791906104ba565b60405180910390f35b3480156100ac57600080fd5b506100b5610191565b6040516100c29190610570565b60405180910390f35b3480156100d757600080fd5b506100e0610199565b005b3480156100ee57600080fd5b506100f76102da565b6040516101049190610570565b60405180910390f35b34801561011957600080fd5b506101226102e0565b60405161012f91906104d5565b60405180910390f35b610140610306565b005b34801561014e57600080fd5b506101576103db565b60405161016491906104ba565b60405180910390f35b60008054906101000a900473ffffffffffffffffffffffffffffffffffffffff1681565b600047905090565b600260009054906101000a900473ffffffffffffffffffffffffffffffffffffffff1673ffffffffffffffffffffffffffffffffffffffff163373ffffffffffffffffffffffffffffffffffffffff1614610229576040517f08c379a0000000000000000000000000000000000000000000000000000000008152600401610220906104f0565b60405180910390fd5b600354471461026d576040517f08c379a000000000000000000000000000000000000000000000000000000000815260040161026490610510565b60405180910390fd5b600160009054906101000a900473ffffffffffffffffffffffffffffffffffffffff1673ffffffffffffffffffffffffffffffffffffffff166108fc6003549081150290604051600060405180830381858888f193505050501580156102d7573d6000803e3d6000fd5b50565b60035481565b600160009054906101000a900473ffffffffffffffffffffffffffffffffffffffff1681565b60008054906101000a900473ffffffffffffffffffffffffffffffffffffffff1673ffffffffffffffffffffffffffffffffffffffff163373ffffffffffffffffffffffffffffffffffffffff1614610394576040517f08c379a000000000000000000000000000000000000000000000000000000000815260040161038b90610550565b60405180910390fd5b6003544711156103d9576040517f08c379a00000000000000000000000000000000000000000000000000000000081526004016103d090610530565b60405180910390fd5b565b600260009054906101000a900473ffffffffffffffffffffffffffffffffffffffff1681565b61040a816105ae565b82525050565b6104198161059c565b82525050565b600061042c60218361058b565b9150610437826105ea565b604082019050919050565b600061044f602f8361058b565b915061045a82610639565b604082019050919050565b600061047260218361058b565b915061047d82610688565b604082019050919050565b600061049560188361058b565b91506104a0826106d7565b602082019050919050565b6104b4816105e0565b82525050565b60006020820190506104cf6000830184610410565b92915050565b60006020820190506104ea6000830184610401565b92915050565b600060208201905081810360008301526105098161041f565b9050919050565b6000602082019050818103600083015261052981610442565b9050919050565b6000602082019050818103600083015261054981610465565b9050919050565b6000602082019050818103600083015261056981610488565b9050919050565b600060208201905061058560008301846104ab565b92915050565b600082825260208201905092915050565b60006105a7826105c0565b9050919050565b60006105b9826105c0565b9050919050565b600073ffffffffffffffffffffffffffffffffffffffff82169050919050565b6000819050919050565b7f6f6e6c7920746869726450617274792063616e2072656c656173652066756e6460008201527f7300000000000000000000000000000000000000000000000000000000000000602082015250565b7f63616e6e6f742072656c656173652066756e6473206265666f72652066756c6c60008201527f20616d6f756e742069732073656e740000000000000000000000000000000000602082015250565b7f63616e742073656e64206d6f7265207468616e20657363726f7720616d6f756e60008201527f7400000000000000000000000000000000000000000000000000000000000000602082015250565b7f53656e646572206d75737420626520746865207061796572000000000000000060008201525056fea26469706673582212208f1d872685e99e9b44d3678a8d8a39778a4633bd6ceadc94e7a288af14671e7f64736f6c63430008070033",
					"opcodes": "PUSH1 0x80 PUSH1 0x40 MSTORE CALLVALUE DUP1 ISZERO PUSH2 0x10 JUMPI PUSH1 0x0 DUP1 REVERT JUMPDEST POP PUSH1 0x40 MLOAD PUSH2 0x972 CODESIZE SUB DUP1 PUSH2 0x972 DUP4 CODECOPY DUP2 DUP2 ADD PUSH1 0x40 MSTORE DUP2 ADD SWAP1 PUSH2 0x32 SWAP2 SWAP1 PUSH2 0x142 JUMP JUMPDEST DUP3 PUSH1 0x0 DUP1 PUSH2 0x100 EXP DUP2 SLOAD DUP2 PUSH20 0xFFFFFFFFFFFFFFFFFFFFFFFFFFFFFFFFFFFFFFFF MUL NOT AND SWAP1 DUP4 PUSH20 0xFFFFFFFFFFFFFFFFFFFFFFFFFFFFFFFFFFFFFFFF AND MUL OR SWAP1 SSTORE POP DUP2 PUSH1 0x1 PUSH1 0x0 PUSH2 0x100 EXP DUP2 SLOAD DUP2 PUSH20 0xFFFFFFFFFFFFFFFFFFFFFFFFFFFFFFFFFFFFFFFF MUL NOT AND SWAP1 DUP4 PUSH20 0xFFFFFFFFFFFFFFFFFFFFFFFFFFFFFFFFFFFFFFFF AND MUL OR SWAP1 SSTORE POP CALLER PUSH1 0x2 PUSH1 0x0 PUSH2 0x100 EXP DUP2 SLOAD DUP2 PUSH20 0xFFFFFFFFFFFFFFFFFFFFFFFFFFFFFFFFFFFFFFFF MUL NOT AND SWAP1 DUP4 PUSH20 0xFFFFFFFFFFFFFFFFFFFFFFFFFFFFFFFFFFFFFFFF AND MUL OR SWAP1 SSTORE POP DUP1 PUSH1 0x3 DUP2 SWAP1 SSTORE POP POP POP POP PUSH2 0x22D JUMP JUMPDEST PUSH1 0x0 DUP2 MLOAD SWAP1 POP PUSH2 0x112 DUP2 PUSH2 0x1E8 JUMP JUMPDEST SWAP3 SWAP2 POP POP JUMP JUMPDEST PUSH1 0x0 DUP2 MLOAD SWAP1 POP PUSH2 0x127 DUP2 PUSH2 0x1FF JUMP JUMPDEST SWAP3 SWAP2 POP POP JUMP JUMPDEST PUSH1 0x0 DUP2 MLOAD SWAP1 POP PUSH2 0x13C DUP2 PUSH2 0x216 JUMP JUMPDEST SWAP3 SWAP2 POP POP JUMP JUMPDEST PUSH1 0x0 DUP1 PUSH1 0x0 PUSH1 0x60 DUP5 DUP7 SUB SLT ISZERO PUSH2 0x15B JUMPI PUSH2 0x15A PUSH2 0x1E3 JUMP JUMPDEST JUMPDEST PUSH1 0x0 PUSH2 0x169 DUP7 DUP3 DUP8 ADD PUSH2 0x103 JUMP JUMPDEST SWAP4 POP POP PUSH1 0x20 PUSH2 0x17A DUP7 DUP3 DUP8 ADD PUSH2 0x118 JUMP JUMPDEST SWAP3 POP POP PUSH1 0x40 PUSH2 0x18B DUP7 DUP3 DUP8 ADD PUSH2 0x12D JUMP JUMPDEST SWAP2 POP POP SWAP3 POP SWAP3 POP SWAP3 JUMP JUMPDEST PUSH1 0x0 PUSH2 0x1A0 DUP3 PUSH2 0x1B9 JUMP JUMPDEST SWAP1 POP SWAP2 SWAP1 POP JUMP JUMPDEST PUSH1 0x0 PUSH2 0x1B2 DUP3 PUSH2 0x1B9 JUMP JUMPDEST SWAP1 POP SWAP2 SWAP1 POP JUMP JUMPDEST PUSH1 0x0 PUSH20 0xFFFFFFFFFFFFFFFFFFFFFFFFFFFFFFFFFFFFFFFF DUP3 AND SWAP1 POP SWAP2 SWAP1 POP JUMP JUMPDEST PUSH1 0x0 DUP2 SWAP1 POP SWAP2 SWAP1 POP JUMP JUMPDEST PUSH1 0x0 DUP1 REVERT JUMPDEST PUSH2 0x1F1 DUP2 PUSH2 0x195 JUMP JUMPDEST DUP2 EQ PUSH2 0x1FC JUMPI PUSH1 0x0 DUP1 REVERT JUMPDEST POP JUMP JUMPDEST PUSH2 0x208 DUP2 PUSH2 0x1A7 JUMP JUMPDEST DUP2 EQ PUSH2 0x213 JUMPI PUSH1 0x0 DUP1 REVERT JUMPDEST POP JUMP JUMPDEST PUSH2 0x21F DUP2 PUSH2 0x1D9 JUMP JUMPDEST DUP2 EQ PUSH2 0x22A JUMPI PUSH1 0x0 DUP1 REVERT JUMPDEST POP JUMP JUMPDEST PUSH2 0x736 DUP1 PUSH2 0x23C PUSH1 0x0 CODECOPY PUSH1 0x0 RETURN INVALID PUSH1 0x80 PUSH1 0x40 MSTORE PUSH1 0x4 CALLDATASIZE LT PUSH2 0x70 JUMPI PUSH1 0x0 CALLDATALOAD PUSH1 0xE0 SHR DUP1 PUSH4 0xAA8C217C GT PUSH2 0x4E JUMPI DUP1 PUSH4 0xAA8C217C EQ PUSH2 0xE2 JUMPI DUP1 PUSH4 0xAE90B213 EQ PUSH2 0x10D JUMPI DUP1 PUSH4 0xD0E30DB0 EQ PUSH2 0x138 JUMPI DUP1 PUSH4 0xE02EA484 EQ PUSH2 0x142 JUMPI PUSH2 0x70 JUMP JUMPDEST DUP1 PUSH4 0x123119CD EQ PUSH2 0x75 JUMPI DUP1 PUSH4 0x722713F7 EQ PUSH2 0xA0 JUMPI DUP1 PUSH4 0x86D1A69F EQ PUSH2 0xCB JUMPI JUMPDEST PUSH1 0x0 DUP1 REVERT JUMPDEST CALLVALUE DUP1 ISZERO PUSH2 0x81 JUMPI PUSH1 0x0 DUP1 REVERT JUMPDEST POP PUSH2 0x8A PUSH2 0x16D JUMP JUMPDEST PUSH1 0x40 MLOAD PUSH2 0x97 SWAP2 SWAP1 PUSH2 0x4BA JUMP JUMPDEST PUSH1 0x40 MLOAD DUP1 SWAP2 SUB SWAP1 RETURN JUMPDEST CALLVALUE DUP1 ISZERO PUSH2 0xAC JUMPI PUSH1 0x0 DUP1 REVERT JUMPDEST POP PUSH2 0xB5 PUSH2 0x191 JUMP JUMPDEST PUSH1 0x40 MLOAD PUSH2 0xC2 SWAP2 SWAP1 PUSH2 0x570 JUMP JUMPDEST PUSH1 0x40 MLOAD DUP1 SWAP2 SUB SWAP1 RETURN JUMPDEST CALLVALUE DUP1 ISZERO PUSH2 0xD7 JUMPI PUSH1 0x0 DUP1 REVERT JUMPDEST POP PUSH2 0xE0 PUSH2 0x199 JUMP JUMPDEST STOP JUMPDEST CALLVALUE DUP1 ISZERO PUSH2 0xEE JUMPI PUSH1 0x0 DUP1 REVERT JUMPDEST POP PUSH2 0xF7 PUSH2 0x2DA JUMP JUMPDEST PUSH1 0x40 MLOAD PUSH2 0x104 SWAP2 SWAP1 PUSH2 0x570 JUMP JUMPDEST PUSH1 0x40 MLOAD DUP1 SWAP2 SUB SWAP1 RETURN JUMPDEST CALLVALUE DUP1 ISZERO PUSH2 0x119 JUMPI PUSH1 0x0 DUP1 REVERT JUMPDEST POP PUSH2 0x122 PUSH2 0x2E0 JUMP JUMPDEST PUSH1 0x40 MLOAD PUSH2 0x12F SWAP2 SWAP1 PUSH2 0x4D5 JUMP JUMPDEST PUSH1 0x40 MLOAD DUP1 SWAP2 SUB SWAP1 RETURN JUMPDEST PUSH2 0x140 PUSH2 0x306 JUMP JUMPDEST STOP JUMPDEST CALLVALUE DUP1 ISZERO PUSH2 0x14E JUMPI PUSH1 0x0 DUP1 REVERT JUMPDEST POP PUSH2 0x157 PUSH2 0x3DB JUMP JUMPDEST PUSH1 0x40 MLOAD PUSH2 0x164 SWAP2 SWAP1 PUSH2 0x4BA JUMP JUMPDEST PUSH1 0x40 MLOAD DUP1 SWAP2 SUB SWAP1 RETURN JUMPDEST PUSH1 0x0 DUP1 SLOAD SWAP1 PUSH2 0x100 EXP SWAP1 DIV PUSH20 0xFFFFFFFFFFFFFFFFFFFFFFFFFFFFFFFFFFFFFFFF AND DUP2 JUMP JUMPDEST PUSH1 0x0 SELFBALANCE SWAP1 POP SWAP1 JUMP JUMPDEST PUSH1 0x2 PUSH1 0x0 SWAP1 SLOAD SWAP1 PUSH2 0x100 EXP SWAP1 DIV PUSH20 0xFFFFFFFFFFFFFFFFFFFFFFFFFFFFFFFFFFFFFFFF AND PUSH20 0xFFFFFFFFFFFFFFFFFFFFFFFFFFFFFFFFFFFFFFFF AND CALLER PUSH20 0xFFFFFFFFFFFFFFFFFFFFFFFFFFFFFFFFFFFFFFFF AND EQ PUSH2 0x229 JUMPI PUSH1 0x40 MLOAD PUSH32 0x8C379A000000000000000000000000000000000000000000000000000000000 DUP2 MSTORE PUSH1 0x4 ADD PUSH2 0x220 SWAP1 PUSH2 0x4F0 JUMP JUMPDEST PUSH1 0x40 MLOAD DUP1 SWAP2 SUB SWAP1 REVERT JUMPDEST PUSH1 0x3 SLOAD SELFBALANCE EQ PUSH2 0x26D JUMPI PUSH1 0x40 MLOAD PUSH32 0x8C379A000000000000000000000000000000000000000000000000000000000 DUP2 MSTORE PUSH1 0x4 ADD PUSH2 0x264 SWAP1 PUSH2 0x510 JUMP JUMPDEST PUSH1 0x40 MLOAD DUP1 SWAP2 SUB SWAP1 REVERT JUMPDEST PUSH1 0x1 PUSH1 0x0 SWAP1 SLOAD SWAP1 PUSH2 0x100 EXP SWAP1 DIV PUSH20 0xFFFFFFFFFFFFFFFFFFFFFFFFFFFFFFFFFFFFFFFF AND PUSH20 0xFFFFFFFFFFFFFFFFFFFFFFFFFFFFFFFFFFFFFFFF AND PUSH2 0x8FC PUSH1 0x3 SLOAD SWAP1 DUP2 ISZERO MUL SWAP1 PUSH1 0x40 MLOAD PUSH1 0x0 PUSH1 0x40 MLOAD DUP1 DUP4 SUB DUP2 DUP6 DUP9 DUP9 CALL SWAP4 POP POP POP POP ISZERO DUP1 ISZERO PUSH2 0x2D7 JUMPI RETURNDATASIZE PUSH1 0x0 DUP1 RETURNDATACOPY RETURNDATASIZE PUSH1 0x0 REVERT JUMPDEST POP JUMP JUMPDEST PUSH1 0x3 SLOAD DUP2 JUMP JUMPDEST PUSH1 0x1 PUSH1 0x0 SWAP1 SLOAD SWAP1 PUSH2 0x100 EXP SWAP1 DIV PUSH20 0xFFFFFFFFFFFFFFFFFFFFFFFFFFFFFFFFFFFFFFFF AND DUP2 JUMP JUMPDEST PUSH1 0x0 DUP1 SLOAD SWAP1 PUSH2 0x100 EXP SWAP1 DIV PUSH20 0xFFFFFFFFFFFFFFFFFFFFFFFFFFFFFFFFFFFFFFFF AND PUSH20 0xFFFFFFFFFFFFFFFFFFFFFFFFFFFFFFFFFFFFFFFF AND CALLER PUSH20 0xFFFFFFFFFFFFFFFFFFFFFFFFFFFFFFFFFFFFFFFF AND EQ PUSH2 0x394 JUMPI PUSH1 0x40 MLOAD PUSH32 0x8C379A000000000000000000000000000000000000000000000000000000000 DUP2 MSTORE PUSH1 0x4 ADD PUSH2 0x38B SWAP1 PUSH2 0x550 JUMP JUMPDEST PUSH1 0x40 MLOAD DUP1 SWAP2 SUB SWAP1 REVERT JUMPDEST PUSH1 0x3 SLOAD SELFBALANCE GT ISZERO PUSH2 0x3D9 JUMPI PUSH1 0x40 MLOAD PUSH32 0x8C379A000000000000000000000000000000000000000000000000000000000 DUP2 MSTORE PUSH1 0x4 ADD PUSH2 0x3D0 SWAP1 PUSH2 0x530 JUMP JUMPDEST PUSH1 0x40 MLOAD DUP1 SWAP2 SUB SWAP1 REVERT JUMPDEST JUMP JUMPDEST PUSH1 0x2 PUSH1 0x0 SWAP1 SLOAD SWAP1 PUSH2 0x100 EXP SWAP1 DIV PUSH20 0xFFFFFFFFFFFFFFFFFFFFFFFFFFFFFFFFFFFFFFFF AND DUP2 JUMP JUMPDEST PUSH2 0x40A DUP2 PUSH2 0x5AE JUMP JUMPDEST DUP3 MSTORE POP POP JUMP JUMPDEST PUSH2 0x419 DUP2 PUSH2 0x59C JUMP JUMPDEST DUP3 MSTORE POP POP JUMP JUMPDEST PUSH1 0x0 PUSH2 0x42C PUSH1 0x21 DUP4 PUSH2 0x58B JUMP JUMPDEST SWAP2 POP PUSH2 0x437 DUP3 PUSH2 0x5EA JUMP JUMPDEST PUSH1 0x40 DUP3 ADD SWAP1 POP SWAP2 SWAP1 POP JUMP JUMPDEST PUSH1 0x0 PUSH2 0x44F PUSH1 0x2F DUP4 PUSH2 0x58B JUMP JUMPDEST SWAP2 POP PUSH2 0x45A DUP3 PUSH2 0x639 JUMP JUMPDEST PUSH1 0x40 DUP3 ADD SWAP1 POP SWAP2 SWAP1 POP JUMP JUMPDEST PUSH1 0x0 PUSH2 0x472 PUSH1 0x21 DUP4 PUSH2 0x58B JUMP JUMPDEST SWAP2 POP PUSH2 0x47D DUP3 PUSH2 0x688 JUMP JUMPDEST PUSH1 0x40 DUP3 ADD SWAP1 POP SWAP2 SWAP1 POP JUMP JUMPDEST PUSH1 0x0 PUSH2 0x495 PUSH1 0x18 DUP4 PUSH2 0x58B JUMP JUMPDEST SWAP2 POP PUSH2 0x4A0 DUP3 PUSH2 0x6D7 JUMP JUMPDEST PUSH1 0x20 DUP3 ADD SWAP1 POP SWAP2 SWAP1 POP JUMP JUMPDEST PUSH2 0x4B4 DUP2 PUSH2 0x5E0 JUMP JUMPDEST DUP3 MSTORE POP POP JUMP JUMPDEST PUSH1 0x0 PUSH1 0x20 DUP3 ADD SWAP1 POP PUSH2 0x4CF PUSH1 0x0 DUP4 ADD DUP5 PUSH2 0x410 JUMP JUMPDEST SWAP3 SWAP2 POP POP JUMP JUMPDEST PUSH1 0x0 PUSH1 0x20 DUP3 ADD SWAP1 POP PUSH2 0x4EA PUSH1 0x0 DUP4 ADD DUP5 PUSH2 0x401 JUMP JUMPDEST SWAP3 SWAP2 POP POP JUMP JUMPDEST PUSH1 0x0 PUSH1 0x20 DUP3 ADD SWAP1 POP DUP2 DUP2 SUB PUSH1 0x0 DUP4 ADD MSTORE PUSH2 0x509 DUP2 PUSH2 0x41F JUMP JUMPDEST SWAP1 POP SWAP2 SWAP1 POP JUMP JUMPDEST PUSH1 0x0 PUSH1 0x20 DUP3 ADD SWAP1 POP DUP2 DUP2 SUB PUSH1 0x0 DUP4 ADD MSTORE PUSH2 0x529 DUP2 PUSH2 0x442 JUMP JUMPDEST SWAP1 POP SWAP2 SWAP1 POP JUMP JUMPDEST PUSH1 0x0 PUSH1 0x20 DUP3 ADD SWAP1 POP DUP2 DUP2 SUB PUSH1 0x0 DUP4 ADD MSTORE PUSH2 0x549 DUP2 PUSH2 0x465 JUMP JUMPDEST SWAP1 POP SWAP2 SWAP1 POP JUMP JUMPDEST PUSH1 0x0 PUSH1 0x20 DUP3 ADD SWAP1 POP DUP2 DUP2 SUB PUSH1 0x0 DUP4 ADD MSTORE PUSH2 0x569 DUP2 PUSH2 0x488 JUMP JUMPDEST SWAP1 POP SWAP2 SWAP1 POP JUMP JUMPDEST PUSH1 0x0 PUSH1 0x20 DUP3 ADD SWAP1 POP PUSH2 0x585 PUSH1 0x0 DUP4 ADD DUP5 PUSH2 0x4AB JUMP JUMPDEST SWAP3 SWAP2 POP POP JUMP JUMPDEST PUSH1 0x0 DUP3 DUP3 MSTORE PUSH1 0x20 DUP3 ADD SWAP1 POP SWAP3 SWAP2 POP POP JUMP JUMPDEST PUSH1 0x0 PUSH2 0x5A7 DUP3 PUSH2 0x5C0 JUMP JUMPDEST SWAP1 POP SWAP2 SWAP1 POP JUMP JUMPDEST PUSH1 0x0 PUSH2 0x5B9 DUP3 PUSH2 0x5C0 JUMP JUMPDEST SWAP1 POP SWAP2 SWAP1 POP JUMP JUMPDEST PUSH1 0x0 PUSH20 0xFFFFFFFFFFFFFFFFFFFFFFFFFFFFFFFFFFFFFFFF DUP3 AND SWAP1 POP SWAP2 SWAP1 POP JUMP JUMPDEST PUSH1 0x0 DUP2 SWAP1 POP SWAP2 SWAP1 POP JUMP JUMPDEST PUSH32 0x6F6E6C7920746869726450617274792063616E2072656C656173652066756E64 PUSH1 0x0 DUP3 ADD MSTORE PUSH32 0x7300000000000000000000000000000000000000000000000000000000000000 PUSH1 0x20 DUP3 ADD MSTORE POP JUMP JUMPDEST PUSH32 0x63616E6E6F742072656C656173652066756E6473206265666F72652066756C6C PUSH1 0x0 DUP3 ADD MSTORE PUSH32 0x20616D6F756E742069732073656E740000000000000000000000000000000000 PUSH1 0x20 DUP3 ADD MSTORE POP JUMP JUMPDEST PUSH32 0x63616E742073656E64206D6F7265207468616E20657363726F7720616D6F756E PUSH1 0x0 DUP3 ADD MSTORE PUSH32 0x7400000000000000000000000000000000000000000000000000000000000000 PUSH1 0x20 DUP3 ADD MSTORE POP JUMP JUMPDEST PUSH32 0x53656E646572206D757374206265207468652070617965720000000000000000 PUSH1 0x0 DUP3 ADD MSTORE POP JUMP INVALID LOG2 PUSH5 0x6970667358 0x22 SLT KECCAK256 DUP16 SAR DUP8 0x26 DUP6 0xE9 SWAP15 SWAP12 DIFFICULTY 0xD3 PUSH8 0x8A8D8A39778A4633 0xBD PUSH13 0xEADC94E7A288AF14671E7F6473 PUSH16 0x6C634300080700330000000000000000 "
				},
				"gasEstimates": {
					"creation": {
						"codeDepositCost": "369200",
						"executionCost": "infinite",
						"totalCost": "infinite"
					},
					"external": {
						"amount()": "2429",
						"balanceOf()": "362",
						"deposit()": "4766",
						"payee()": "2536",
						"payer()": "2512",
						"release()": "infinite",
						"thirdParty()": "2580"
					}
				},
				"methodIdentifiers": {
					"amount()": "aa8c217c",
					"balanceOf()": "722713f7",
					"deposit()": "d0e30db0",
					"payee()": "ae90b213",
					"payer()": "123119cd",
					"release()": "86d1a69f",
					"thirdParty()": "e02ea484"
				}
			},
			"storageLayout": {
				"storage": [
					{
						"astId": 3,
						"contract": "30-escrow.sol:Escrow",
						"label": "payer",
						"offset": 0,
						"slot": "0",
						"type": "t_address"
					},
					{
						"astId": 5,
						"contract": "30-escrow.sol:Escrow",
						"label": "payee",
						"offset": 0,
						"slot": "1",
						"type": "t_address_payable"
					},
					{
						"astId": 7,
						"contract": "30-escrow.sol:Escrow",
						"label": "thirdParty",
						"offset": 0,
						"slot": "2",
						"type": "t_address"
					},
					{
						"astId": 9,
						"contract": "30-escrow.sol:Escrow",
						"label": "amount",
						"offset": 0,
						"slot": "3",
						"type": "t_uint256"
					}
				],
				"types": {
					"t_address": {
						"encoding": "inplace",
						"label": "address",
						"numberOfBytes": "20"
					},
					"t_address_payable": {
						"encoding": "inplace",
						"label": "address payable",
						"numberOfBytes": "20"
					},
					"t_uint256": {
						"encoding": "inplace",
						"label": "uint256",
						"numberOfBytes": "32"
					}
				}
			},
			"userdoc": {
				"kind": "user",
				"methods": {},
				"version": 1
			}
		}
	}
}