{
	"11-bool.sol": {
		"Bool": {
			"abi": [
				{
					"inputs": [
						{
							"internalType": "bool",
							"name": "_bool",
							"type": "bool"
						}
					],
					"name": "check",
					"outputs": [
						{
							"internalType": "string",
							"name": "",
							"type": "string"
						}
					],
					"stateMutability": "pure",
					"type": "function"
				}
			],
			"devdoc": {
				"kind": "dev",
				"methods": {},
				"version": 1
			},
			"evm": {
				"assembly": "    /* \"11-bool.sol\":74:287  contract Bool {\r... */\n  mstore(0x40, 0x80)\n  callvalue\n  dup1\n  iszero\n  tag_1\n  jumpi\n  0x00\n  dup1\n  revert\ntag_1:\n  pop\n  dataSize(sub_0)\n  dup1\n  dataOffset(sub_0)\n  0x00\n  codecopy\n  0x00\n  return\nstop\n\nsub_0: assembly {\n        /* \"11-bool.sol\":74:287  contract Bool {\r... */\n      mstore(0x40, 0x80)\n      callvalue\n      dup1\n      iszero\n      tag_1\n      jumpi\n      0x00\n      dup1\n      revert\n    tag_1:\n      pop\n      jumpi(tag_2, lt(calldatasize, 0x04))\n      shr(0xe0, calldataload(0x00))\n      dup1\n      0x241c5912\n      eq\n      tag_3\n      jumpi\n    tag_2:\n      0x00\n      dup1\n      revert\n        /* \"11-bool.sol\":95:284  function check(bool _bool) pure public returns(string memory) {\r... */\n    tag_3:\n      tag_4\n      0x04\n      dup1\n      calldatasize\n      sub\n      dup2\n      add\n      swap1\n      tag_5\n      swap2\n      swap1\n      tag_6\n      jump\t// in\n    tag_5:\n      tag_7\n      jump\t// in\n    tag_4:\n      mload(0x40)\n      tag_8\n      swap2\n      swap1\n      tag_9\n      jump\t// in\n    tag_8:\n      mload(0x40)\n      dup1\n      swap2\n      sub\n      swap1\n      return\n    tag_7:\n        /* \"11-bool.sol\":142:155  string memory */\n      0x60\n        /* \"11-bool.sol\":168:173  _bool */\n      dup2\n        /* \"11-bool.sol\":164:277  if (_bool){\r... */\n      iszero\n      tag_11\n      jumpi\n        /* \"11-bool.sol\":185:211  return \"The value is true\" */\n      mload(0x40)\n      dup1\n      0x40\n      add\n      0x40\n      mstore\n      dup1\n      0x11\n      dup2\n      mstore\n      0x20\n      add\n      0x5468652076616c75652069732074727565000000000000000000000000000000\n      dup2\n      mstore\n      pop\n      swap1\n      pop\n      jump(tag_10)\n        /* \"11-bool.sol\":164:277  if (_bool){\r... */\n    tag_11:\n        /* \"11-bool.sol\":238:265  return \"The value is false\" */\n      mload(0x40)\n      dup1\n      0x40\n      add\n      0x40\n      mstore\n      dup1\n      0x12\n      dup2\n      mstore\n      0x20\n      add\n      0x5468652076616c75652069732066616c73650000000000000000000000000000\n      dup2\n      mstore\n      pop\n      swap1\n      pop\n        /* \"11-bool.sol\":95:284  function check(bool _bool) pure public returns(string memory) {\r... */\n    tag_10:\n      swap2\n      swap1\n      pop\n      jump\t// out\n        /* \"#utility.yul\":7:140   */\n    tag_14:\n        /* \"#utility.yul\":50:55   */\n      0x00\n        /* \"#utility.yul\":88:94   */\n      dup2\n        /* \"#utility.yul\":75:95   */\n      calldataload\n        /* \"#utility.yul\":66:95   */\n      swap1\n      pop\n        /* \"#utility.yul\":104:134   */\n      tag_16\n        /* \"#utility.yul\":128:133   */\n      dup2\n        /* \"#utility.yul\":104:134   */\n      tag_17\n      jump\t// in\n    tag_16:\n        /* \"#utility.yul\":7:140   */\n      swap3\n      swap2\n      pop\n      pop\n      jump\t// out\n        /* \"#utility.yul\":146:469   */\n    tag_6:\n        /* \"#utility.yul\":202:208   */\n      0x00\n        /* \"#utility.yul\":251:253   */\n      0x20\n        /* \"#utility.yul\":239:248   */\n      dup3\n        /* \"#utility.yul\":230:237   */\n      dup5\n        /* \"#utility.yul\":226:249   */\n      sub\n        /* \"#utility.yul\":222:254   */\n      slt\n        /* \"#utility.yul\":219:338   */\n      iszero\n      tag_19\n      jumpi\n        /* \"#utility.yul\":257:336   */\n      tag_20\n      tag_21\n      jump\t// in\n    tag_20:\n        /* \"#utility.yul\":219:338   */\n    tag_19:\n        /* \"#utility.yul\":377:378   */\n      0x00\n        /* \"#utility.yul\":402:452   */\n      tag_22\n        /* \"#utility.yul\":444:451   */\n      dup5\n        /* \"#utility.yul\":435:441   */\n      dup3\n        /* \"#utility.yul\":424:433   */\n      dup6\n        /* \"#utility.yul\":420:442   */\n      add\n        /* \"#utility.yul\":402:452   */\n      tag_14\n      jump\t// in\n    tag_22:\n        /* \"#utility.yul\":392:452   */\n      swap2\n      pop\n        /* \"#utility.yul\":348:462   */\n      pop\n        /* \"#utility.yul\":146:469   */\n      swap3\n      swap2\n      pop\n      pop\n      jump\t// out\n        /* \"#utility.yul\":475:839   */\n    tag_23:\n        /* \"#utility.yul\":563:566   */\n      0x00\n        /* \"#utility.yul\":591:630   */\n      tag_25\n        /* \"#utility.yul\":624:629   */\n      dup3\n        /* \"#utility.yul\":591:630   */\n      tag_26\n      jump\t// in\n    tag_25:\n        /* \"#utility.yul\":646:717   */\n      tag_27\n        /* \"#utility.yul\":710:716   */\n      dup2\n        /* \"#utility.yul\":705:708   */\n      dup6\n        /* \"#utility.yul\":646:717   */\n      tag_28\n      jump\t// in\n    tag_27:\n        /* \"#utility.yul\":639:717   */\n      swap4\n      pop\n        /* \"#utility.yul\":726:778   */\n      tag_29\n        /* \"#utility.yul\":771:777   */\n      dup2\n        /* \"#utility.yul\":766:769   */\n      dup6\n        /* \"#utility.yul\":759:763   */\n      0x20\n        /* \"#utility.yul\":752:757   */\n      dup7\n        /* \"#utility.yul\":748:764   */\n      add\n        /* \"#utility.yul\":726:778   */\n      tag_30\n      jump\t// in\n    tag_29:\n        /* \"#utility.yul\":803:832   */\n      tag_31\n        /* \"#utility.yul\":825:831   */\n      dup2\n        /* \"#utility.yul\":803:832   */\n      tag_32\n      jump\t// in\n    tag_31:\n        /* \"#utility.yul\":798:801   */\n      dup5\n        /* \"#utility.yul\":794:833   */\n      add\n        /* \"#utility.yul\":787:833   */\n      swap2\n      pop\n        /* \"#utility.yul\":567:839   */\n      pop\n        /* \"#utility.yul\":475:839   */\n      swap3\n      swap2\n      pop\n      pop\n      jump\t// out\n        /* \"#utility.yul\":845:1158   */\n    tag_9:\n        /* \"#utility.yul\":958:962   */\n      0x00\n        /* \"#utility.yul\":996:998   */\n      0x20\n        /* \"#utility.yul\":985:994   */\n      dup3\n        /* \"#utility.yul\":981:999   */\n      add\n        /* \"#utility.yul\":973:999   */\n      swap1\n      pop\n        /* \"#utility.yul\":1045:1054   */\n      dup2\n        /* \"#utility.yul\":1039:1043   */\n      dup2\n        /* \"#utility.yul\":1035:1055   */\n      sub\n        /* \"#utility.yul\":1031:1032   */\n      0x00\n        /* \"#utility.yul\":1020:1029   */\n      dup4\n        /* \"#utility.yul\":1016:1033   */\n      add\n        /* \"#utility.yul\":1009:1056   */\n      mstore\n        /* \"#utility.yul\":1073:1151   */\n      tag_34\n        /* \"#utility.yul\":1146:1150   */\n      dup2\n        /* \"#utility.yul\":1137:1143   */\n      dup5\n        /* \"#utility.yul\":1073:1151   */\n      tag_23\n      jump\t// in\n    tag_34:\n        /* \"#utility.yul\":1065:1151   */\n      swap1\n      pop\n        /* \"#utility.yul\":845:1158   */\n      swap3\n      swap2\n      pop\n      pop\n      jump\t// out\n        /* \"#utility.yul\":1245:1344   */\n    tag_26:\n        /* \"#utility.yul\":1297:1303   */\n      0x00\n        /* \"#utility.yul\":1331:1336   */\n      dup2\n        /* \"#utility.yul\":1325:1337   */\n      mload\n        /* \"#utility.yul\":1315:1337   */\n      swap1\n      pop\n        /* \"#utility.yul\":1245:1344   */\n      swap2\n      swap1\n      pop\n      jump\t// out\n        /* \"#utility.yul\":1350:1519   */\n    tag_28:\n        /* \"#utility.yul\":1434:1445   */\n      0x00\n        /* \"#utility.yul\":1468:1474   */\n      dup3\n        /* \"#utility.yul\":1463:1466   */\n      dup3\n        /* \"#utility.yul\":1456:1475   */\n      mstore\n        /* \"#utility.yul\":1508:1512   */\n      0x20\n        /* \"#utility.yul\":1503:1506   */\n      dup3\n        /* \"#utility.yul\":1499:1513   */\n      add\n        /* \"#utility.yul\":1484:1513   */\n      swap1\n      pop\n        /* \"#utility.yul\":1350:1519   */\n      swap3\n      swap2\n      pop\n      pop\n      jump\t// out\n        /* \"#utility.yul\":1525:1615   */\n    tag_39:\n        /* \"#utility.yul\":1559:1566   */\n      0x00\n        /* \"#utility.yul\":1602:1607   */\n      dup2\n        /* \"#utility.yul\":1595:1608   */\n      iszero\n        /* \"#utility.yul\":1588:1609   */\n      iszero\n        /* \"#utility.yul\":1577:1609   */\n      swap1\n      pop\n        /* \"#utility.yul\":1525:1615   */\n      swap2\n      swap1\n      pop\n      jump\t// out\n        /* \"#utility.yul\":1621:1928   */\n    tag_30:\n        /* \"#utility.yul\":1689:1690   */\n      0x00\n        /* \"#utility.yul\":1699:1812   */\n    tag_42:\n        /* \"#utility.yul\":1713:1719   */\n      dup4\n        /* \"#utility.yul\":1710:1711   */\n      dup2\n        /* \"#utility.yul\":1707:1720   */\n      lt\n        /* \"#utility.yul\":1699:1812   */\n      iszero\n      tag_44\n      jumpi\n        /* \"#utility.yul\":1798:1799   */\n      dup1\n        /* \"#utility.yul\":1793:1796   */\n      dup3\n        /* \"#utility.yul\":1789:1800   */\n      add\n        /* \"#utility.yul\":1783:1801   */\n      mload\n        /* \"#utility.yul\":1779:1780   */\n      dup2\n        /* \"#utility.yul\":1774:1777   */\n      dup5\n        /* \"#utility.yul\":1770:1781   */\n      add\n        /* \"#utility.yul\":1763:1802   */\n      mstore\n        /* \"#utility.yul\":1735:1737   */\n      0x20\n        /* \"#utility.yul\":1732:1733   */\n      dup2\n        /* \"#utility.yul\":1728:1738   */\n      add\n        /* \"#utility.yul\":1723:1738   */\n      swap1\n      pop\n        /* \"#utility.yul\":1699:1812   */\n      jump(tag_42)\n    tag_44:\n        /* \"#utility.yul\":1830:1836   */\n      dup4\n        /* \"#utility.yul\":1827:1828   */\n      dup2\n        /* \"#utility.yul\":1824:1837   */\n      gt\n        /* \"#utility.yul\":1821:1922   */\n      iszero\n      tag_45\n      jumpi\n        /* \"#utility.yul\":1910:1911   */\n      0x00\n        /* \"#utility.yul\":1901:1907   */\n      dup5\n        /* \"#utility.yul\":1896:1899   */\n      dup5\n        /* \"#utility.yul\":1892:1908   */\n      add\n        /* \"#utility.yul\":1885:1912   */\n      mstore\n        /* \"#utility.yul\":1821:1922   */\n    tag_45:\n        /* \"#utility.yul\":1670:1928   */\n      pop\n        /* \"#utility.yul\":1621:1928   */\n      pop\n      pop\n      pop\n      jump\t// out\n        /* \"#utility.yul\":2057:2174   */\n    tag_21:\n        /* \"#utility.yul\":2166:2167   */\n      0x00\n        /* \"#utility.yul\":2163:2164   */\n      dup1\n        /* \"#utility.yul\":2156:2168   */\n      revert\n        /* \"#utility.yul\":2180:2282   */\n    tag_32:\n        /* \"#utility.yul\":2221:2227   */\n      0x00\n        /* \"#utility.yul\":2272:2274   */\n      0x1f\n        /* \"#utility.yul\":2268:2275   */\n      not\n        /* \"#utility.yul\":2263:2265   */\n      0x1f\n        /* \"#utility.yul\":2256:2261   */\n      dup4\n        /* \"#utility.yul\":2252:2266   */\n      add\n        /* \"#utility.yul\":2248:2276   */\n      and\n        /* \"#utility.yul\":2238:2276   */\n      swap1\n      pop\n        /* \"#utility.yul\":2180:2282   */\n      swap2\n      swap1\n      pop\n      jump\t// out\n        /* \"#utility.yul\":2288:2404   */\n    tag_17:\n        /* \"#utility.yul\":2358:2379   */\n      tag_51\n        /* \"#utility.yul\":2373:2378   */\n      dup2\n        /* \"#utility.yul\":2358:2379   */\n      tag_39\n      jump\t// in\n    tag_51:\n        /* \"#utility.yul\":2351:2356   */\n      dup2\n        /* \"#utility.yul\":2348:2380   */\n      eq\n        /* \"#utility.yul\":2338:2398   */\n      tag_52\n      jumpi\n        /* \"#utility.yul\":2394:2395   */\n      0x00\n        /* \"#utility.yul\":2391:2392   */\n      dup1\n        /* \"#utility.yul\":2384:2396   */\n      revert\n        /* \"#utility.yul\":2338:2398   */\n    tag_52:\n        /* \"#utility.yul\":2288:2404   */\n      pop\n      jump\t// out\n\n    auxdata: 0xa2646970667358221220920ad372033fbd5f25c86a53da4b99ae7aa54f632febe0ee3c7a610c34cae67064736f6c63430008070033\n}\n",
				"bytecode": {
					"linkReferences": {},
					"object": "608060405234801561001057600080fd5b5061023e806100206000396000f3fe608060405234801561001057600080fd5b506004361061002b5760003560e01c8063241c591214610030575b600080fd5b61004a600480360381019061004591906100f8565b610060565b604051610057919061015e565b60405180910390f35b606081156100a5576040518060400160405280601181526020017f5468652076616c7565206973207472756500000000000000000000000000000081525090506100de565b6040518060400160405280601281526020017f5468652076616c75652069732066616c7365000000000000000000000000000081525090505b919050565b6000813590506100f2816101f1565b92915050565b60006020828403121561010e5761010d6101db565b5b600061011c848285016100e3565b91505092915050565b600061013082610180565b61013a818561018b565b935061014a8185602086016101a8565b610153816101e0565b840191505092915050565b600060208201905081810360008301526101788184610125565b905092915050565b600081519050919050565b600082825260208201905092915050565b60008115159050919050565b60005b838110156101c65780820151818401526020810190506101ab565b838111156101d5576000848401525b50505050565b600080fd5b6000601f19601f8301169050919050565b6101fa8161019c565b811461020557600080fd5b5056fea2646970667358221220920ad372033fbd5f25c86a53da4b99ae7aa54f632febe0ee3c7a610c34cae67064736f6c63430008070033",
					"opcodes": "PUSH1 0x80 PUSH1 0x40 MSTORE CALLVALUE DUP1 ISZERO PUSH2 0x10 JUMPI PUSH1 0x0 DUP1 REVERT JUMPDEST POP PUSH2 0x23E DUP1 PUSH2 0x20 PUSH1 0x0 CODECOPY PUSH1 0x0 RETURN INVALID PUSH1 0x80 PUSH1 0x40 MSTORE CALLVALUE DUP1 ISZERO PUSH2 0x10 JUMPI PUSH1 0x0 DUP1 REVERT JUMPDEST POP PUSH1 0x4 CALLDATASIZE LT PUSH2 0x2B JUMPI PUSH1 0x0 CALLDATALOAD PUSH1 0xE0 SHR DUP1 PUSH4 0x241C5912 EQ PUSH2 0x30 JUMPI JUMPDEST PUSH1 0x0 DUP1 REVERT JUMPDEST PUSH2 0x4A PUSH1 0x4 DUP1 CALLDATASIZE SUB DUP2 ADD SWAP1 PUSH2 0x45 SWAP2 SWAP1 PUSH2 0xF8 JUMP JUMPDEST PUSH2 0x60 JUMP JUMPDEST PUSH1 0x40 MLOAD PUSH2 0x57 SWAP2 SWAP1 PUSH2 0x15E JUMP JUMPDEST PUSH1 0x40 MLOAD DUP1 SWAP2 SUB SWAP1 RETURN JUMPDEST PUSH1 0x60 DUP2 ISZERO PUSH2 0xA5 JUMPI PUSH1 0x40 MLOAD DUP1 PUSH1 0x40 ADD PUSH1 0x40 MSTORE DUP1 PUSH1 0x11 DUP2 MSTORE PUSH1 0x20 ADD PUSH32 0x5468652076616C75652069732074727565000000000000000000000000000000 DUP2 MSTORE POP SWAP1 POP PUSH2 0xDE JUMP JUMPDEST PUSH1 0x40 MLOAD DUP1 PUSH1 0x40 ADD PUSH1 0x40 MSTORE DUP1 PUSH1 0x12 DUP2 MSTORE PUSH1 0x20 ADD PUSH32 0x5468652076616C75652069732066616C73650000000000000000000000000000 DUP2 MSTORE POP SWAP1 POP JUMPDEST SWAP2 SWAP1 POP JUMP JUMPDEST PUSH1 0x0 DUP2 CALLDATALOAD SWAP1 POP PUSH2 0xF2 DUP2 PUSH2 0x1F1 JUMP JUMPDEST SWAP3 SWAP2 POP POP JUMP JUMPDEST PUSH1 0x0 PUSH1 0x20 DUP3 DUP5 SUB SLT ISZERO PUSH2 0x10E JUMPI PUSH2 0x10D PUSH2 0x1DB JUMP JUMPDEST JUMPDEST PUSH1 0x0 PUSH2 0x11C DUP5 DUP3 DUP6 ADD PUSH2 0xE3 JUMP JUMPDEST SWAP2 POP POP SWAP3 SWAP2 POP POP JUMP JUMPDEST PUSH1 0x0 PUSH2 0x130 DUP3 PUSH2 0x180 JUMP JUMPDEST PUSH2 0x13A DUP2 DUP6 PUSH2 0x18B JUMP JUMPDEST SWAP4 POP PUSH2 0x14A DUP2 DUP6 PUSH1 0x20 DUP7 ADD PUSH2 0x1A8 JUMP JUMPDEST PUSH2 0x153 DUP2 PUSH2 0x1E0 JUMP JUMPDEST DUP5 ADD SWAP2 POP POP SWAP3 SWAP2 POP POP JUMP JUMPDEST PUSH1 0x0 PUSH1 0x20 DUP3 ADD SWAP1 POP DUP2 DUP2 SUB PUSH1 0x0 DUP4 ADD MSTORE PUSH2 0x178 DUP2 DUP5 PUSH2 0x125 JUMP JUMPDEST SWAP1 POP SWAP3 SWAP2 POP POP JUMP JUMPDEST PUSH1 0x0 DUP2 MLOAD SWAP1 POP SWAP2 SWAP1 POP JUMP JUMPDEST PUSH1 0x0 DUP3 DUP3 MSTORE PUSH1 0x20 DUP3 ADD SWAP1 POP SWAP3 SWAP2 POP POP JUMP JUMPDEST PUSH1 0x0 DUP2 ISZERO ISZERO SWAP1 POP SWAP2 SWAP1 POP JUMP JUMPDEST PUSH1 0x0 JUMPDEST DUP4 DUP2 LT ISZERO PUSH2 0x1C6 JUMPI DUP1 DUP3 ADD MLOAD DUP2 DUP5 ADD MSTORE PUSH1 0x20 DUP2 ADD SWAP1 POP PUSH2 0x1AB JUMP JUMPDEST DUP4 DUP2 GT ISZERO PUSH2 0x1D5 JUMPI PUSH1 0x0 DUP5 DUP5 ADD MSTORE JUMPDEST POP POP POP POP JUMP JUMPDEST PUSH1 0x0 DUP1 REVERT JUMPDEST PUSH1 0x0 PUSH1 0x1F NOT PUSH1 0x1F DUP4 ADD AND SWAP1 POP SWAP2 SWAP1 POP JUMP JUMPDEST PUSH2 0x1FA DUP2 PUSH2 0x19C JUMP JUMPDEST DUP2 EQ PUSH2 0x205 JUMPI PUSH1 0x0 DUP1 REVERT JUMPDEST POP JUMP INVALID LOG2 PUSH5 0x6970667358 0x22 SLT KECCAK256 SWAP3 EXP 0xD3 PUSH19 0x33FBD5F25C86A53DA4B99AE7AA54F632FEBE0 0xEE EXTCODECOPY PUSH27 0x610C34CAE67064736F6C6343000807003300000000000000000000 "
				},
				"gasEstimates": {
					"creation": {
						"codeDepositCost": "114800",
						"executionCost": "159",
						"totalCost": "114959"
					},
					"external": {
						"check(bool)": "infinite"
					}
				},
				"methodIdentifiers": {
					"check(bool)": "241c5912"
				}
			},
			"storageLayout": {
				"storage": [],
				"types": null
			},
			"userdoc": {
				"kind": "user",
				"methods": {},
				"version": 1
			}
		}
	}
}