{
	"24-lab3.sol": {
		"Day3": {
			"abi": [
				{
					"inputs": [
						{
							"internalType": "address",
							"name": "",
							"type": "address"
						}
					],
					"name": "balances",
					"outputs": [
						{
							"internalType": "uint256",
							"name": "",
							"type": "uint256"
						}
					],
					"stateMutability": "view",
					"type": "function"
				},
				{
					"inputs": [
						{
							"internalType": "address",
							"name": "_user",
							"type": "address"
						}
					],
					"name": "checkBalance",
					"outputs": [
						{
							"internalType": "uint256",
							"name": "",
							"type": "uint256"
						}
					],
					"stateMutability": "view",
					"type": "function"
				},
				{
					"inputs": [
						{
							"internalType": "uint256",
							"name": "newBalance",
							"type": "uint256"
						}
					],
					"name": "updateBalance",
					"outputs": [],
					"stateMutability": "nonpayable",
					"type": "function"
				}
			],
			"devdoc": {
				"kind": "dev",
				"methods": {},
				"version": 1
			},
			"evm": {
				"assembly": "    /* \"24-lab3.sol\":69:409  contract Day3 {\r... */\n  mstore(0x40, 0x80)\n  callvalue\n  dup1\n  iszero\n  tag_1\n  jumpi\n  0x00\n  dup1\n  revert\ntag_1:\n  pop\n  dataSize(sub_0)\n  dup1\n  dataOffset(sub_0)\n  0x00\n  codecopy\n  0x00\n  return\nstop\n\nsub_0: assembly {\n        /* \"24-lab3.sol\":69:409  contract Day3 {\r... */\n      mstore(0x40, 0x80)\n      callvalue\n      dup1\n      iszero\n      tag_1\n      jumpi\n      0x00\n      dup1\n      revert\n    tag_1:\n      pop\n      jumpi(tag_2, lt(calldatasize, 0x04))\n      shr(0xe0, calldataload(0x00))\n      dup1\n      0x27e235e3\n      eq\n      tag_3\n      jumpi\n      dup1\n      0x5f515226\n      eq\n      tag_4\n      jumpi\n      dup1\n      0xba7b37d4\n      eq\n      tag_5\n      jumpi\n    tag_2:\n      0x00\n      dup1\n      revert\n        /* \"24-lab3.sol\":86:129  mapping(address => uint256) public balances */\n    tag_3:\n      tag_6\n      0x04\n      dup1\n      calldatasize\n      sub\n      dup2\n      add\n      swap1\n      tag_7\n      swap2\n      swap1\n      tag_8\n      jump\t// in\n    tag_7:\n      tag_9\n      jump\t// in\n    tag_6:\n      mload(0x40)\n      tag_10\n      swap2\n      swap1\n      tag_11\n      jump\t// in\n    tag_10:\n      mload(0x40)\n      dup1\n      swap2\n      sub\n      swap1\n      return\n        /* \"24-lab3.sol\":232:406  function checkBalance(address _user) public view returns(uint256) {\r... */\n    tag_4:\n      tag_12\n      0x04\n      dup1\n      calldatasize\n      sub\n      dup2\n      add\n      swap1\n      tag_13\n      swap2\n      swap1\n      tag_8\n      jump\t// in\n    tag_13:\n      tag_14\n      jump\t// in\n    tag_12:\n      mload(0x40)\n      tag_15\n      swap2\n      swap1\n      tag_11\n      jump\t// in\n    tag_15:\n      mload(0x40)\n      dup1\n      swap2\n      sub\n      swap1\n      return\n        /* \"24-lab3.sol\":134:228  function updateBalance(uint256 newBalance) public {\r... */\n    tag_5:\n      tag_16\n      0x04\n      dup1\n      calldatasize\n      sub\n      dup2\n      add\n      swap1\n      tag_17\n      swap2\n      swap1\n      tag_18\n      jump\t// in\n    tag_17:\n      tag_19\n      jump\t// in\n    tag_16:\n      stop\n        /* \"24-lab3.sol\":86:129  mapping(address => uint256) public balances */\n    tag_9:\n      mstore(0x20, 0x00)\n      dup1\n      0x00\n      mstore\n      keccak256(0x00, 0x40)\n      0x00\n      swap2\n      pop\n      swap1\n      pop\n      sload\n      dup2\n      jump\t// out\n        /* \"24-lab3.sol\":232:406  function checkBalance(address _user) public view returns(uint256) {\r... */\n    tag_14:\n        /* \"24-lab3.sol\":289:296  uint256 */\n      0x00\n        /* \"24-lab3.sol\":327:332  _user */\n      dup2\n        /* \"24-lab3.sol\":313:332  msg.sender == _user */\n      0xffffffffffffffffffffffffffffffffffffffff\n      and\n        /* \"24-lab3.sol\":313:323  msg.sender */\n      caller\n        /* \"24-lab3.sol\":313:332  msg.sender == _user */\n      0xffffffffffffffffffffffffffffffffffffffff\n      and\n      eq\n        /* \"24-lab3.sol\":305:373  require(msg.sender == _user, \"You are not the owner of the account\") */\n      tag_21\n      jumpi\n      mload(0x40)\n      0x08c379a000000000000000000000000000000000000000000000000000000000\n      dup2\n      mstore\n      0x04\n      add\n      tag_22\n      swap1\n      tag_23\n      jump\t// in\n    tag_22:\n      mload(0x40)\n      dup1\n      swap2\n      sub\n      swap1\n      revert\n    tag_21:\n        /* \"24-lab3.sol\":387:395  balances */\n      0x00\n        /* \"24-lab3.sol\":387:402  balances[_user] */\n      dup1\n        /* \"24-lab3.sol\":396:401  _user */\n      dup4\n        /* \"24-lab3.sol\":387:402  balances[_user] */\n      0xffffffffffffffffffffffffffffffffffffffff\n      and\n      0xffffffffffffffffffffffffffffffffffffffff\n      and\n      dup2\n      mstore\n      0x20\n      add\n      swap1\n      dup2\n      mstore\n      0x20\n      add\n      0x00\n      keccak256\n      sload\n        /* \"24-lab3.sol\":380:402  return balances[_user] */\n      swap1\n      pop\n        /* \"24-lab3.sol\":232:406  function checkBalance(address _user) public view returns(uint256) {\r... */\n      swap2\n      swap1\n      pop\n      jump\t// out\n        /* \"24-lab3.sol\":134:228  function updateBalance(uint256 newBalance) public {\r... */\n    tag_19:\n        /* \"24-lab3.sol\":214:224  newBalance */\n      dup1\n        /* \"24-lab3.sol\":191:199  balances */\n      0x00\n        /* \"24-lab3.sol\":191:211  balances[msg.sender] */\n      dup1\n        /* \"24-lab3.sol\":200:210  msg.sender */\n      caller\n        /* \"24-lab3.sol\":191:211  balances[msg.sender] */\n      0xffffffffffffffffffffffffffffffffffffffff\n      and\n      0xffffffffffffffffffffffffffffffffffffffff\n      and\n      dup2\n      mstore\n      0x20\n      add\n      swap1\n      dup2\n      mstore\n      0x20\n      add\n      0x00\n      keccak256\n        /* \"24-lab3.sol\":191:224  balances[msg.sender] = newBalance */\n      dup2\n      swap1\n      sstore\n      pop\n        /* \"24-lab3.sol\":134:228  function updateBalance(uint256 newBalance) public {\r... */\n      pop\n      jump\t// out\n        /* \"#utility.yul\":7:146   */\n    tag_26:\n        /* \"#utility.yul\":53:58   */\n      0x00\n        /* \"#utility.yul\":91:97   */\n      dup2\n        /* \"#utility.yul\":78:98   */\n      calldataload\n        /* \"#utility.yul\":69:98   */\n      swap1\n      pop\n        /* \"#utility.yul\":107:140   */\n      tag_28\n        /* \"#utility.yul\":134:139   */\n      dup2\n        /* \"#utility.yul\":107:140   */\n      tag_29\n      jump\t// in\n    tag_28:\n        /* \"#utility.yul\":7:146   */\n      swap3\n      swap2\n      pop\n      pop\n      jump\t// out\n        /* \"#utility.yul\":152:291   */\n    tag_30:\n        /* \"#utility.yul\":198:203   */\n      0x00\n        /* \"#utility.yul\":236:242   */\n      dup2\n        /* \"#utility.yul\":223:243   */\n      calldataload\n        /* \"#utility.yul\":214:243   */\n      swap1\n      pop\n        /* \"#utility.yul\":252:285   */\n      tag_32\n        /* \"#utility.yul\":279:284   */\n      dup2\n        /* \"#utility.yul\":252:285   */\n      tag_33\n      jump\t// in\n    tag_32:\n        /* \"#utility.yul\":152:291   */\n      swap3\n      swap2\n      pop\n      pop\n      jump\t// out\n        /* \"#utility.yul\":297:626   */\n    tag_8:\n        /* \"#utility.yul\":356:362   */\n      0x00\n        /* \"#utility.yul\":405:407   */\n      0x20\n        /* \"#utility.yul\":393:402   */\n      dup3\n        /* \"#utility.yul\":384:391   */\n      dup5\n        /* \"#utility.yul\":380:403   */\n      sub\n        /* \"#utility.yul\":376:408   */\n      slt\n        /* \"#utility.yul\":373:492   */\n      iszero\n      tag_35\n      jumpi\n        /* \"#utility.yul\":411:490   */\n      tag_36\n      tag_37\n      jump\t// in\n    tag_36:\n        /* \"#utility.yul\":373:492   */\n    tag_35:\n        /* \"#utility.yul\":531:532   */\n      0x00\n        /* \"#utility.yul\":556:609   */\n      tag_38\n        /* \"#utility.yul\":601:608   */\n      dup5\n        /* \"#utility.yul\":592:598   */\n      dup3\n        /* \"#utility.yul\":581:590   */\n      dup6\n        /* \"#utility.yul\":577:599   */\n      add\n        /* \"#utility.yul\":556:609   */\n      tag_26\n      jump\t// in\n    tag_38:\n        /* \"#utility.yul\":546:609   */\n      swap2\n      pop\n        /* \"#utility.yul\":502:619   */\n      pop\n        /* \"#utility.yul\":297:626   */\n      swap3\n      swap2\n      pop\n      pop\n      jump\t// out\n        /* \"#utility.yul\":632:961   */\n    tag_18:\n        /* \"#utility.yul\":691:697   */\n      0x00\n        /* \"#utility.yul\":740:742   */\n      0x20\n        /* \"#utility.yul\":728:737   */\n      dup3\n        /* \"#utility.yul\":719:726   */\n      dup5\n        /* \"#utility.yul\":715:738   */\n      sub\n        /* \"#utility.yul\":711:743   */\n      slt\n        /* \"#utility.yul\":708:827   */\n      iszero\n      tag_40\n      jumpi\n        /* \"#utility.yul\":746:825   */\n      tag_41\n      tag_37\n      jump\t// in\n    tag_41:\n        /* \"#utility.yul\":708:827   */\n    tag_40:\n        /* \"#utility.yul\":866:867   */\n      0x00\n        /* \"#utility.yul\":891:944   */\n      tag_42\n        /* \"#utility.yul\":936:943   */\n      dup5\n        /* \"#utility.yul\":927:933   */\n      dup3\n        /* \"#utility.yul\":916:925   */\n      dup6\n        /* \"#utility.yul\":912:934   */\n      add\n        /* \"#utility.yul\":891:944   */\n      tag_30\n      jump\t// in\n    tag_42:\n        /* \"#utility.yul\":881:944   */\n      swap2\n      pop\n        /* \"#utility.yul\":837:954   */\n      pop\n        /* \"#utility.yul\":632:961   */\n      swap3\n      swap2\n      pop\n      pop\n      jump\t// out\n        /* \"#utility.yul\":967:1333   */\n    tag_43:\n        /* \"#utility.yul\":1109:1112   */\n      0x00\n        /* \"#utility.yul\":1130:1197   */\n      tag_45\n        /* \"#utility.yul\":1194:1196   */\n      0x24\n        /* \"#utility.yul\":1189:1192   */\n      dup4\n        /* \"#utility.yul\":1130:1197   */\n      tag_46\n      jump\t// in\n    tag_45:\n        /* \"#utility.yul\":1123:1197   */\n      swap2\n      pop\n        /* \"#utility.yul\":1206:1299   */\n      tag_47\n        /* \"#utility.yul\":1295:1298   */\n      dup3\n        /* \"#utility.yul\":1206:1299   */\n      tag_48\n      jump\t// in\n    tag_47:\n        /* \"#utility.yul\":1324:1326   */\n      0x40\n        /* \"#utility.yul\":1319:1322   */\n      dup3\n        /* \"#utility.yul\":1315:1327   */\n      add\n        /* \"#utility.yul\":1308:1327   */\n      swap1\n      pop\n        /* \"#utility.yul\":967:1333   */\n      swap2\n      swap1\n      pop\n      jump\t// out\n        /* \"#utility.yul\":1339:1457   */\n    tag_49:\n        /* \"#utility.yul\":1426:1450   */\n      tag_51\n        /* \"#utility.yul\":1444:1449   */\n      dup2\n        /* \"#utility.yul\":1426:1450   */\n      tag_52\n      jump\t// in\n    tag_51:\n        /* \"#utility.yul\":1421:1424   */\n      dup3\n        /* \"#utility.yul\":1414:1451   */\n      mstore\n        /* \"#utility.yul\":1339:1457   */\n      pop\n      pop\n      jump\t// out\n        /* \"#utility.yul\":1463:1882   */\n    tag_23:\n        /* \"#utility.yul\":1629:1633   */\n      0x00\n        /* \"#utility.yul\":1667:1669   */\n      0x20\n        /* \"#utility.yul\":1656:1665   */\n      dup3\n        /* \"#utility.yul\":1652:1670   */\n      add\n        /* \"#utility.yul\":1644:1670   */\n      swap1\n      pop\n        /* \"#utility.yul\":1716:1725   */\n      dup2\n        /* \"#utility.yul\":1710:1714   */\n      dup2\n        /* \"#utility.yul\":1706:1726   */\n      sub\n        /* \"#utility.yul\":1702:1703   */\n      0x00\n        /* \"#utility.yul\":1691:1700   */\n      dup4\n        /* \"#utility.yul\":1687:1704   */\n      add\n        /* \"#utility.yul\":1680:1727   */\n      mstore\n        /* \"#utility.yul\":1744:1875   */\n      tag_54\n        /* \"#utility.yul\":1870:1874   */\n      dup2\n        /* \"#utility.yul\":1744:1875   */\n      tag_43\n      jump\t// in\n    tag_54:\n        /* \"#utility.yul\":1736:1875   */\n      swap1\n      pop\n        /* \"#utility.yul\":1463:1882   */\n      swap2\n      swap1\n      pop\n      jump\t// out\n        /* \"#utility.yul\":1888:2110   */\n    tag_11:\n        /* \"#utility.yul\":1981:1985   */\n      0x00\n        /* \"#utility.yul\":2019:2021   */\n      0x20\n        /* \"#utility.yul\":2008:2017   */\n      dup3\n        /* \"#utility.yul\":2004:2022   */\n      add\n        /* \"#utility.yul\":1996:2022   */\n      swap1\n      pop\n        /* \"#utility.yul\":2032:2103   */\n      tag_56\n        /* \"#utility.yul\":2100:2101   */\n      0x00\n        /* \"#utility.yul\":2089:2098   */\n      dup4\n        /* \"#utility.yul\":2085:2102   */\n      add\n        /* \"#utility.yul\":2076:2082   */\n      dup5\n        /* \"#utility.yul\":2032:2103   */\n      tag_49\n      jump\t// in\n    tag_56:\n        /* \"#utility.yul\":1888:2110   */\n      swap3\n      swap2\n      pop\n      pop\n      jump\t// out\n        /* \"#utility.yul\":2197:2366   */\n    tag_46:\n        /* \"#utility.yul\":2281:2292   */\n      0x00\n        /* \"#utility.yul\":2315:2321   */\n      dup3\n        /* \"#utility.yul\":2310:2313   */\n      dup3\n        /* \"#utility.yul\":2303:2322   */\n      mstore\n        /* \"#utility.yul\":2355:2359   */\n      0x20\n        /* \"#utility.yul\":2350:2353   */\n      dup3\n        /* \"#utility.yul\":2346:2360   */\n      add\n        /* \"#utility.yul\":2331:2360   */\n      swap1\n      pop\n        /* \"#utility.yul\":2197:2366   */\n      swap3\n      swap2\n      pop\n      pop\n      jump\t// out\n        /* \"#utility.yul\":2372:2468   */\n    tag_60:\n        /* \"#utility.yul\":2409:2416   */\n      0x00\n        /* \"#utility.yul\":2438:2462   */\n      tag_62\n        /* \"#utility.yul\":2456:2461   */\n      dup3\n        /* \"#utility.yul\":2438:2462   */\n      tag_63\n      jump\t// in\n    tag_62:\n        /* \"#utility.yul\":2427:2462   */\n      swap1\n      pop\n        /* \"#utility.yul\":2372:2468   */\n      swap2\n      swap1\n      pop\n      jump\t// out\n        /* \"#utility.yul\":2474:2600   */\n    tag_63:\n        /* \"#utility.yul\":2511:2518   */\n      0x00\n        /* \"#utility.yul\":2551:2593   */\n      0xffffffffffffffffffffffffffffffffffffffff\n        /* \"#utility.yul\":2544:2549   */\n      dup3\n        /* \"#utility.yul\":2540:2594   */\n      and\n        /* \"#utility.yul\":2529:2594   */\n      swap1\n      pop\n        /* \"#utility.yul\":2474:2600   */\n      swap2\n      swap1\n      pop\n      jump\t// out\n        /* \"#utility.yul\":2606:2683   */\n    tag_52:\n        /* \"#utility.yul\":2643:2650   */\n      0x00\n        /* \"#utility.yul\":2672:2677   */\n      dup2\n        /* \"#utility.yul\":2661:2677   */\n      swap1\n      pop\n        /* \"#utility.yul\":2606:2683   */\n      swap2\n      swap1\n      pop\n      jump\t// out\n        /* \"#utility.yul\":2812:2929   */\n    tag_37:\n        /* \"#utility.yul\":2921:2922   */\n      0x00\n        /* \"#utility.yul\":2918:2919   */\n      dup1\n        /* \"#utility.yul\":2911:2923   */\n      revert\n        /* \"#utility.yul\":2935:3158   */\n    tag_48:\n        /* \"#utility.yul\":3075:3109   */\n      0x596f7520617265206e6f7420746865206f776e6572206f662074686520616363\n        /* \"#utility.yul\":3071:3072   */\n      0x00\n        /* \"#utility.yul\":3063:3069   */\n      dup3\n        /* \"#utility.yul\":3059:3073   */\n      add\n        /* \"#utility.yul\":3052:3110   */\n      mstore\n        /* \"#utility.yul\":3144:3150   */\n      0x6f756e7400000000000000000000000000000000000000000000000000000000\n        /* \"#utility.yul\":3139:3141   */\n      0x20\n        /* \"#utility.yul\":3131:3137   */\n      dup3\n        /* \"#utility.yul\":3127:3142   */\n      add\n        /* \"#utility.yul\":3120:3151   */\n      mstore\n        /* \"#utility.yul\":2935:3158   */\n      pop\n      jump\t// out\n        /* \"#utility.yul\":3164:3286   */\n    tag_29:\n        /* \"#utility.yul\":3237:3261   */\n      tag_71\n        /* \"#utility.yul\":3255:3260   */\n      dup2\n        /* \"#utility.yul\":3237:3261   */\n      tag_60\n      jump\t// in\n    tag_71:\n        /* \"#utility.yul\":3230:3235   */\n      dup2\n        /* \"#utility.yul\":3227:3262   */\n      eq\n        /* \"#utility.yul\":3217:3280   */\n      tag_72\n      jumpi\n        /* \"#utility.yul\":3276:3277   */\n      0x00\n        /* \"#utility.yul\":3273:3274   */\n      dup1\n        /* \"#utility.yul\":3266:3278   */\n      revert\n        /* \"#utility.yul\":3217:3280   */\n    tag_72:\n        /* \"#utility.yul\":3164:3286   */\n      pop\n      jump\t// out\n        /* \"#utility.yul\":3292:3414   */\n    tag_33:\n        /* \"#utility.yul\":3365:3389   */\n      tag_74\n        /* \"#utility.yul\":3383:3388   */\n      dup2\n        /* \"#utility.yul\":3365:3389   */\n      tag_52\n      jump\t// in\n    tag_74:\n        /* \"#utility.yul\":3358:3363   */\n      dup2\n        /* \"#utility.yul\":3355:3390   */\n      eq\n        /* \"#utility.yul\":3345:3408   */\n      tag_75\n      jumpi\n        /* \"#utility.yul\":3404:3405   */\n      0x00\n        /* \"#utility.yul\":3401:3402   */\n      dup1\n        /* \"#utility.yul\":3394:3406   */\n      revert\n        /* \"#utility.yul\":3345:3408   */\n    tag_75:\n        /* \"#utility.yul\":3292:3414   */\n      pop\n      jump\t// out\n\n    auxdata: 0xa26469706673582212209f78816f87b2e527e511263d484d32a785751471168078d88fa6c1781a5bfd1564736f6c63430008070033\n}\n",
				"bytecode": {
					"linkReferences": {},
					"object": "608060405234801561001057600080fd5b506103cc806100206000396000f3fe608060405234801561001057600080fd5b50600436106100415760003560e01c806327e235e3146100465780635f51522614610076578063ba7b37d4146100a6575b600080fd5b610060600480360381019061005b9190610200565b6100c2565b60405161006d91906102ac565b60405180910390f35b610090600480360381019061008b9190610200565b6100da565b60405161009d91906102ac565b60405180910390f35b6100c060048036038101906100bb919061022d565b610190565b005b60006020528060005260406000206000915090505481565b60008173ffffffffffffffffffffffffffffffffffffffff163373ffffffffffffffffffffffffffffffffffffffff161461014a576040517f08c379a00000000000000000000000000000000000000000000000000000000081526004016101419061028c565b60405180910390fd5b6000808373ffffffffffffffffffffffffffffffffffffffff1673ffffffffffffffffffffffffffffffffffffffff168152602001908152602001600020549050919050565b806000803373ffffffffffffffffffffffffffffffffffffffff1673ffffffffffffffffffffffffffffffffffffffff1681526020019081526020016000208190555050565b6000813590506101e581610368565b92915050565b6000813590506101fa8161037f565b92915050565b60006020828403121561021657610215610314565b5b6000610224848285016101d6565b91505092915050565b60006020828403121561024357610242610314565b5b6000610251848285016101eb565b91505092915050565b60006102676024836102c7565b915061027282610319565b604082019050919050565b6102868161030a565b82525050565b600060208201905081810360008301526102a58161025a565b9050919050565b60006020820190506102c1600083018461027d565b92915050565b600082825260208201905092915050565b60006102e3826102ea565b9050919050565b600073ffffffffffffffffffffffffffffffffffffffff82169050919050565b6000819050919050565b600080fd5b7f596f7520617265206e6f7420746865206f776e6572206f66207468652061636360008201527f6f756e7400000000000000000000000000000000000000000000000000000000602082015250565b610371816102d8565b811461037c57600080fd5b50565b6103888161030a565b811461039357600080fd5b5056fea26469706673582212209f78816f87b2e527e511263d484d32a785751471168078d88fa6c1781a5bfd1564736f6c63430008070033",
					"opcodes": "PUSH1 0x80 PUSH1 0x40 MSTORE CALLVALUE DUP1 ISZERO PUSH2 0x10 JUMPI PUSH1 0x0 DUP1 REVERT JUMPDEST POP PUSH2 0x3CC DUP1 PUSH2 0x20 PUSH1 0x0 CODECOPY PUSH1 0x0 RETURN INVALID PUSH1 0x80 PUSH1 0x40 MSTORE CALLVALUE DUP1 ISZERO PUSH2 0x10 JUMPI PUSH1 0x0 DUP1 REVERT JUMPDEST POP PUSH1 0x4 CALLDATASIZE LT PUSH2 0x41 JUMPI PUSH1 0x0 CALLDATALOAD PUSH1 0xE0 SHR DUP1 PUSH4 0x27E235E3 EQ PUSH2 0x46 JUMPI DUP1 PUSH4 0x5F515226 EQ PUSH2 0x76 JUMPI DUP1 PUSH4 0xBA7B37D4 EQ PUSH2 0xA6 JUMPI JUMPDEST PUSH1 0x0 DUP1 REVERT JUMPDEST PUSH2 0x60 PUSH1 0x4 DUP1 CALLDATASIZE SUB DUP2 ADD SWAP1 PUSH2 0x5B SWAP2 SWAP1 PUSH2 0x200 JUMP JUMPDEST PUSH2 0xC2 JUMP JUMPDEST PUSH1 0x40 MLOAD PUSH2 0x6D SWAP2 SWAP1 PUSH2 0x2AC JUMP JUMPDEST PUSH1 0x40 MLOAD DUP1 SWAP2 SUB SWAP1 RETURN JUMPDEST PUSH2 0x90 PUSH1 0x4 DUP1 CALLDATASIZE SUB DUP2 ADD SWAP1 PUSH2 0x8B SWAP2 SWAP1 PUSH2 0x200 JUMP JUMPDEST PUSH2 0xDA JUMP JUMPDEST PUSH1 0x40 MLOAD PUSH2 0x9D SWAP2 SWAP1 PUSH2 0x2AC JUMP JUMPDEST PUSH1 0x40 MLOAD DUP1 SWAP2 SUB SWAP1 RETURN JUMPDEST PUSH2 0xC0 PUSH1 0x4 DUP1 CALLDATASIZE SUB DUP2 ADD SWAP1 PUSH2 0xBB SWAP2 SWAP1 PUSH2 0x22D JUMP JUMPDEST PUSH2 0x190 JUMP JUMPDEST STOP JUMPDEST PUSH1 0x0 PUSH1 0x20 MSTORE DUP1 PUSH1 0x0 MSTORE PUSH1 0x40 PUSH1 0x0 KECCAK256 PUSH1 0x0 SWAP2 POP SWAP1 POP SLOAD DUP2 JUMP JUMPDEST PUSH1 0x0 DUP2 PUSH20 0xFFFFFFFFFFFFFFFFFFFFFFFFFFFFFFFFFFFFFFFF AND CALLER PUSH20 0xFFFFFFFFFFFFFFFFFFFFFFFFFFFFFFFFFFFFFFFF AND EQ PUSH2 0x14A JUMPI PUSH1 0x40 MLOAD PUSH32 0x8C379A000000000000000000000000000000000000000000000000000000000 DUP2 MSTORE PUSH1 0x4 ADD PUSH2 0x141 SWAP1 PUSH2 0x28C JUMP JUMPDEST PUSH1 0x40 MLOAD DUP1 SWAP2 SUB SWAP1 REVERT JUMPDEST PUSH1 0x0 DUP1 DUP4 PUSH20 0xFFFFFFFFFFFFFFFFFFFFFFFFFFFFFFFFFFFFFFFF AND PUSH20 0xFFFFFFFFFFFFFFFFFFFFFFFFFFFFFFFFFFFFFFFF AND DUP2 MSTORE PUSH1 0x20 ADD SWAP1 DUP2 MSTORE PUSH1 0x20 ADD PUSH1 0x0 KECCAK256 SLOAD SWAP1 POP SWAP2 SWAP1 POP JUMP JUMPDEST DUP1 PUSH1 0x0 DUP1 CALLER PUSH20 0xFFFFFFFFFFFFFFFFFFFFFFFFFFFFFFFFFFFFFFFF AND PUSH20 0xFFFFFFFFFFFFFFFFFFFFFFFFFFFFFFFFFFFFFFFF AND DUP2 MSTORE PUSH1 0x20 ADD SWAP1 DUP2 MSTORE PUSH1 0x20 ADD PUSH1 0x0 KECCAK256 DUP2 SWAP1 SSTORE POP POP JUMP JUMPDEST PUSH1 0x0 DUP2 CALLDATALOAD SWAP1 POP PUSH2 0x1E5 DUP2 PUSH2 0x368 JUMP JUMPDEST SWAP3 SWAP2 POP POP JUMP JUMPDEST PUSH1 0x0 DUP2 CALLDATALOAD SWAP1 POP PUSH2 0x1FA DUP2 PUSH2 0x37F JUMP JUMPDEST SWAP3 SWAP2 POP POP JUMP JUMPDEST PUSH1 0x0 PUSH1 0x20 DUP3 DUP5 SUB SLT ISZERO PUSH2 0x216 JUMPI PUSH2 0x215 PUSH2 0x314 JUMP JUMPDEST JUMPDEST PUSH1 0x0 PUSH2 0x224 DUP5 DUP3 DUP6 ADD PUSH2 0x1D6 JUMP JUMPDEST SWAP2 POP POP SWAP3 SWAP2 POP POP JUMP JUMPDEST PUSH1 0x0 PUSH1 0x20 DUP3 DUP5 SUB SLT ISZERO PUSH2 0x243 JUMPI PUSH2 0x242 PUSH2 0x314 JUMP JUMPDEST JUMPDEST PUSH1 0x0 PUSH2 0x251 DUP5 DUP3 DUP6 ADD PUSH2 0x1EB JUMP JUMPDEST SWAP2 POP POP SWAP3 SWAP2 POP POP JUMP JUMPDEST PUSH1 0x0 PUSH2 0x267 PUSH1 0x24 DUP4 PUSH2 0x2C7 JUMP JUMPDEST SWAP2 POP PUSH2 0x272 DUP3 PUSH2 0x319 JUMP JUMPDEST PUSH1 0x40 DUP3 ADD SWAP1 POP SWAP2 SWAP1 POP JUMP JUMPDEST PUSH2 0x286 DUP2 PUSH2 0x30A JUMP JUMPDEST DUP3 MSTORE POP POP JUMP JUMPDEST PUSH1 0x0 PUSH1 0x20 DUP3 ADD SWAP1 POP DUP2 DUP2 SUB PUSH1 0x0 DUP4 ADD MSTORE PUSH2 0x2A5 DUP2 PUSH2 0x25A JUMP JUMPDEST SWAP1 POP SWAP2 SWAP1 POP JUMP JUMPDEST PUSH1 0x0 PUSH1 0x20 DUP3 ADD SWAP1 POP PUSH2 0x2C1 PUSH1 0x0 DUP4 ADD DUP5 PUSH2 0x27D JUMP JUMPDEST SWAP3 SWAP2 POP POP JUMP JUMPDEST PUSH1 0x0 DUP3 DUP3 MSTORE PUSH1 0x20 DUP3 ADD SWAP1 POP SWAP3 SWAP2 POP POP JUMP JUMPDEST PUSH1 0x0 PUSH2 0x2E3 DUP3 PUSH2 0x2EA JUMP JUMPDEST SWAP1 POP SWAP2 SWAP1 POP JUMP JUMPDEST PUSH1 0x0 PUSH20 0xFFFFFFFFFFFFFFFFFFFFFFFFFFFFFFFFFFFFFFFF DUP3 AND SWAP1 POP SWAP2 SWAP1 POP JUMP JUMPDEST PUSH1 0x0 DUP2 SWAP1 POP SWAP2 SWAP1 POP JUMP JUMPDEST PUSH1 0x0 DUP1 REVERT JUMPDEST PUSH32 0x596F7520617265206E6F7420746865206F776E6572206F662074686520616363 PUSH1 0x0 DUP3 ADD MSTORE PUSH32 0x6F756E7400000000000000000000000000000000000000000000000000000000 PUSH1 0x20 DUP3 ADD MSTORE POP JUMP JUMPDEST PUSH2 0x371 DUP2 PUSH2 0x2D8 JUMP JUMPDEST DUP2 EQ PUSH2 0x37C JUMPI PUSH1 0x0 DUP1 REVERT JUMPDEST POP JUMP JUMPDEST PUSH2 0x388 DUP2 PUSH2 0x30A JUMP JUMPDEST DUP2 EQ PUSH2 0x393 JUMPI PUSH1 0x0 DUP1 REVERT JUMPDEST POP JUMP INVALID LOG2 PUSH5 0x6970667358 0x22 SLT KECCAK256 SWAP16 PUSH25 0x816F87B2E527E511263D484D32A785751471168078D88FA6C1 PUSH25 0x1A5BFD1564736F6C6343000807003300000000000000000000 "
				},
				"gasEstimates": {
					"creation": {
						"codeDepositCost": "194400",
						"executionCost": "238",
						"totalCost": "194638"
					},
					"external": {
						"balances(address)": "2792",
						"checkBalance(address)": "2875",
						"updateBalance(uint256)": "22631"
					}
				},
				"methodIdentifiers": {
					"balances(address)": "27e235e3",
					"checkBalance(address)": "5f515226",
					"updateBalance(uint256)": "ba7b37d4"
				}
			},
			"storageLayout": {
				"storage": [
					{
						"astId": 5,
						"contract": "24-lab3.sol:Day3",
						"label": "balances",
						"offset": 0,
						"slot": "0",
						"type": "t_mapping(t_address,t_uint256)"
					}
				],
				"types": {
					"t_address": {
						"encoding": "inplace",
						"label": "address",
						"numberOfBytes": "20"
					},
					"t_mapping(t_address,t_uint256)": {
						"encoding": "mapping",
						"key": "t_address",
						"label": "mapping(address => uint256)",
						"numberOfBytes": "32",
						"value": "t_uint256"
					},
					"t_uint256": {
						"encoding": "inplace",
						"label": "uint256",
						"numberOfBytes": "32"
					}
				}
			},
			"userdoc": {
				"kind": "user",
				"methods": {},
				"version": 1
			}
		}
	}
}