{
	"data": {
		"bytecode": {
			"linkReferences": {},
			"object": "60806040527f61000000000000000000000000000000000000000000000000000000000000006000806101000a81548160ff021916908360f81c021790555034801561004a57600080fd5b506101cc8061005a6000396000f3fe608060405234801561001057600080fd5b50600436106100415760003560e01c80638abe51fd14610046578063e027a4c114610064578063ee49500214610080575b600080fd5b61004e61009e565b60405161005b9190610133565b60405180910390f35b61007e600480360381019061007991906100f7565b6100b4565b005b6100886100d1565b6040516100959190610133565b60405180910390f35b60008060009054906101000a900460f81b905090565b806000806101000a81548160ff021916908360f81c021790555050565b60008054906101000a900460f81b81565b6000813590506100f18161017f565b92915050565b60006020828403121561010d5761010c61017a565b5b600061011b848285016100e2565b91505092915050565b61012d8161014e565b82525050565b60006020820190506101486000830184610124565b92915050565b60007fff0000000000000000000000000000000000000000000000000000000000000082169050919050565b600080fd5b6101888161014e565b811461019357600080fd5b5056fea26469706673582212204cf37ac3031b1a2f426cd39f9d35e826aeb2745c3523b756e4e2de7186ea7a2a64736f6c63430008070033",
			"opcodes": "PUSH1 0x80 PUSH1 0x40 MSTORE PUSH32 0x6100000000000000000000000000000000000000000000000000000000000000 PUSH1 0x0 DUP1 PUSH2 0x100 EXP DUP2 SLOAD DUP2 PUSH1 0xFF MUL NOT AND SWAP1 DUP4 PUSH1 0xF8 SHR MUL OR SWAP1 SSTORE POP CALLVALUE DUP1 ISZERO PUSH2 0x4A JUMPI PUSH1 0x0 DUP1 REVERT JUMPDEST POP PUSH2 0x1CC DUP1 PUSH2 0x5A PUSH1 0x0 CODECOPY PUSH1 0x0 RETURN INVALID PUSH1 0x80 PUSH1 0x40 MSTORE CALLVALUE DUP1 ISZERO PUSH2 0x10 JUMPI PUSH1 0x0 DUP1 REVERT JUMPDEST POP PUSH1 0x4 CALLDATASIZE LT PUSH2 0x41 JUMPI PUSH1 0x0 CALLDATALOAD PUSH1 0xE0 SHR DUP1 PUSH4 0x8ABE51FD EQ PUSH2 0x46 JUMPI DUP1 PUSH4 0xE027A4C1 EQ PUSH2 0x64 JUMPI DUP1 PUSH4 0xEE495002 EQ PUSH2 0x80 JUMPI JUMPDEST PUSH1 0x0 DUP1 REVERT JUMPDEST PUSH2 0x4E PUSH2 0x9E JUMP JUMPDEST PUSH1 0x40 MLOAD PUSH2 0x5B SWAP2 SWAP1 PUSH2 0x133 JUMP JUMPDEST PUSH1 0x40 MLOAD DUP1 SWAP2 SUB SWAP1 RETURN JUMPDEST PUSH2 0x7E PUSH1 0x4 DUP1 CALLDATASIZE SUB DUP2 ADD SWAP1 PUSH2 0x79 SWAP2 SWAP1 PUSH2 0xF7 JUMP JUMPDEST PUSH2 0xB4 JUMP JUMPDEST STOP JUMPDEST PUSH2 0x88 PUSH2 0xD1 JUMP JUMPDEST PUSH1 0x40 MLOAD PUSH2 0x95 SWAP2 SWAP1 PUSH2 0x133 JUMP JUMPDEST PUSH1 0x40 MLOAD DUP1 SWAP2 SUB SWAP1 RETURN JUMPDEST PUSH1 0x0 DUP1 PUSH1 0x0 SWAP1 SLOAD SWAP1 PUSH2 0x100 EXP SWAP1 DIV PUSH1 0xF8 SHL SWAP1 POP SWAP1 JUMP JUMPDEST DUP1 PUSH1 0x0 DUP1 PUSH2 0x100 EXP DUP2 SLOAD DUP2 PUSH1 0xFF MUL NOT AND SWAP1 DUP4 PUSH1 0xF8 SHR MUL OR SWAP1 SSTORE POP POP JUMP JUMPDEST PUSH1 0x0 DUP1 SLOAD SWAP1 PUSH2 0x100 EXP SWAP1 DIV PUSH1 0xF8 SHL DUP2 JUMP JUMPDEST PUSH1 0x0 DUP2 CALLDATALOAD SWAP1 POP PUSH2 0xF1 DUP2 PUSH2 0x17F JUMP JUMPDEST SWAP3 SWAP2 POP POP JUMP JUMPDEST PUSH1 0x0 PUSH1 0x20 DUP3 DUP5 SUB SLT ISZERO PUSH2 0x10D JUMPI PUSH2 0x10C PUSH2 0x17A JUMP JUMPDEST JUMPDEST PUSH1 0x0 PUSH2 0x11B DUP5 DUP3 DUP6 ADD PUSH2 0xE2 JUMP JUMPDEST SWAP2 POP POP SWAP3 SWAP2 POP POP JUMP JUMPDEST PUSH2 0x12D DUP2 PUSH2 0x14E JUMP JUMPDEST DUP3 MSTORE POP POP JUMP JUMPDEST PUSH1 0x0 PUSH1 0x20 DUP3 ADD SWAP1 POP PUSH2 0x148 PUSH1 0x0 DUP4 ADD DUP5 PUSH2 0x124 JUMP JUMPDEST SWAP3 SWAP2 POP POP JUMP JUMPDEST PUSH1 0x0 PUSH32 0xFF00000000000000000000000000000000000000000000000000000000000000 DUP3 AND SWAP1 POP SWAP2 SWAP1 POP JUMP JUMPDEST PUSH1 0x0 DUP1 REVERT JUMPDEST PUSH2 0x188 DUP2 PUSH2 0x14E JUMP JUMPDEST DUP2 EQ PUSH2 0x193 JUMPI PUSH1 0x0 DUP1 REVERT JUMPDEST POP JUMP INVALID LOG2 PUSH5 0x6970667358 0x22 SLT KECCAK256 0x4C RETURN PUSH27 0xC3031B1A2F426CD39F9D35E826AEB2745C3523B756E4E2DE7186EA PUSH27 0x2A64736F6C63430008070033000000000000000000000000000000 "
		},
		"gasEstimates": {
			"creation": {
				"codeDepositCost": "92000",
				"executionCost": "24408",
				"totalCost": "116408"
			},
			"external": {
				"b1()": "2490",
				"getByteValue()": "2457",
				"setBytesArray(bytes1)": "24679"
			}
		},
		"methodIdentifiers": {
			"b1()": "ee495002",
			"getByteValue()": "8abe51fd",
			"setBytesArray(bytes1)": "e027a4c1"
		}
	},
	"abi": [
		{
			"inputs": [],
			"name": "b1",
			"outputs": [
				{
					"internalType": "bytes1",
					"name": "",
					"type": "bytes1"
				}
			],
			"stateMutability": "view",
			"type": "function"
		},
		{
			"inputs": [],
			"name": "getByteValue",
			"outputs": [
				{
					"internalType": "bytes1",
					"name": "",
					"type": "bytes1"
				}
			],
			"stateMutability": "view",
			"type": "function"
		},
		{
			"inputs": [
				{
					"internalType": "bytes1",
					"name": "_item",
					"type": "bytes1"
				}
			],
			"name": "setBytesArray",
			"outputs": [],
			"stateMutability": "nonpayable",
			"type": "function"
		}
	]
}