{
	"data": {
		"bytecode": {
			"linkReferences": {},
			"object": "608060405234801561001057600080fd5b50610301806100206000396000f3fe608060405234801561001057600080fd5b506004361061002b5760003560e01c8063ee708b5314610030575b600080fd5b61004a6004803603810190610045919061015d565b610060565b60405161005791906101c3565b60405180910390f35b6060806000600284610072919061023e565b9050600084126101055760008114156100c2576040518060400160405280600e81526020017f4e756d626572206973206576656e00000000000000000000000000000000000081525091506100fb565b6040518060400160405280600d81526020017f4e756d626572206973206f64640000000000000000000000000000000000000081525091505b8192505050610143565b6040518060400160405280601e81526020017f506c6561736520656e746572206120706f736974697665206e756d6265720000815250915081925050505b919050565b600081359050610157816102b4565b92915050565b6000602082840312156101735761017261029e565b5b600061018184828501610148565b91505092915050565b6000610195826101e5565b61019f81856101f0565b93506101af81856020860161020b565b6101b8816102a3565b840191505092915050565b600060208201905081810360008301526101dd818461018a565b905092915050565b600081519050919050565b600082825260208201905092915050565b6000819050919050565b60005b8381101561022957808201518184015260208101905061020e565b83811115610238576000848401525b50505050565b600061024982610201565b915061025483610201565b9250826102645761026361026f565b5b828207905092915050565b7f4e487b7100000000000000000000000000000000000000000000000000000000600052601260045260246000fd5b600080fd5b6000601f19601f8301169050919050565b6102bd81610201565b81146102c857600080fd5b5056fea2646970667358221220d3ac612322a23b174d0e6800cb27b5f8151cc5355c1e6978871933a67d4ab49264736f6c63430008070033",
			"opcodes": "PUSH1 0x80 PUSH1 0x40 MSTORE CALLVALUE DUP1 ISZERO PUSH2 0x10 JUMPI PUSH1 0x0 DUP1 REVERT JUMPDEST POP PUSH2 0x301 DUP1 PUSH2 0x20 PUSH1 0x0 CODECOPY PUSH1 0x0 RETURN INVALID PUSH1 0x80 PUSH1 0x40 MSTORE CALLVALUE DUP1 ISZERO PUSH2 0x10 JUMPI PUSH1 0x0 DUP1 REVERT JUMPDEST POP PUSH1 0x4 CALLDATASIZE LT PUSH2 0x2B JUMPI PUSH1 0x0 CALLDATALOAD PUSH1 0xE0 SHR DUP1 PUSH4 0xEE708B53 EQ PUSH2 0x30 JUMPI JUMPDEST PUSH1 0x0 DUP1 REVERT JUMPDEST PUSH2 0x4A PUSH1 0x4 DUP1 CALLDATASIZE SUB DUP2 ADD SWAP1 PUSH2 0x45 SWAP2 SWAP1 PUSH2 0x15D JUMP JUMPDEST PUSH2 0x60 JUMP JUMPDEST PUSH1 0x40 MLOAD PUSH2 0x57 SWAP2 SWAP1 PUSH2 0x1C3 JUMP JUMPDEST PUSH1 0x40 MLOAD DUP1 SWAP2 SUB SWAP1 RETURN JUMPDEST PUSH1 0x60 DUP1 PUSH1 0x0 PUSH1 0x2 DUP5 PUSH2 0x72 SWAP2 SWAP1 PUSH2 0x23E JUMP JUMPDEST SWAP1 POP PUSH1 0x0 DUP5 SLT PUSH2 0x105 JUMPI PUSH1 0x0 DUP2 EQ ISZERO PUSH2 0xC2 JUMPI PUSH1 0x40 MLOAD DUP1 PUSH1 0x40 ADD PUSH1 0x40 MSTORE DUP1 PUSH1 0xE DUP2 MSTORE PUSH1 0x20 ADD PUSH32 0x4E756D626572206973206576656E000000000000000000000000000000000000 DUP2 MSTORE POP SWAP2 POP PUSH2 0xFB JUMP JUMPDEST PUSH1 0x40 MLOAD DUP1 PUSH1 0x40 ADD PUSH1 0x40 MSTORE DUP1 PUSH1 0xD DUP2 MSTORE PUSH1 0x20 ADD PUSH32 0x4E756D626572206973206F646400000000000000000000000000000000000000 DUP2 MSTORE POP SWAP2 POP JUMPDEST DUP2 SWAP3 POP POP POP PUSH2 0x143 JUMP JUMPDEST PUSH1 0x40 MLOAD DUP1 PUSH1 0x40 ADD PUSH1 0x40 MSTORE DUP1 PUSH1 0x1E DUP2 MSTORE PUSH1 0x20 ADD PUSH32 0x506C6561736520656E746572206120706F736974697665206E756D6265720000 DUP2 MSTORE POP SWAP2 POP DUP2 SWAP3 POP POP POP JUMPDEST SWAP2 SWAP1 POP JUMP JUMPDEST PUSH1 0x0 DUP2 CALLDATALOAD SWAP1 POP PUSH2 0x157 DUP2 PUSH2 0x2B4 JUMP JUMPDEST SWAP3 SWAP2 POP POP JUMP JUMPDEST PUSH1 0x0 PUSH1 0x20 DUP3 DUP5 SUB SLT ISZERO PUSH2 0x173 JUMPI PUSH2 0x172 PUSH2 0x29E JUMP JUMPDEST JUMPDEST PUSH1 0x0 PUSH2 0x181 DUP5 DUP3 DUP6 ADD PUSH2 0x148 JUMP JUMPDEST SWAP2 POP POP SWAP3 SWAP2 POP POP JUMP JUMPDEST PUSH1 0x0 PUSH2 0x195 DUP3 PUSH2 0x1E5 JUMP JUMPDEST PUSH2 0x19F DUP2 DUP6 PUSH2 0x1F0 JUMP JUMPDEST SWAP4 POP PUSH2 0x1AF DUP2 DUP6 PUSH1 0x20 DUP7 ADD PUSH2 0x20B JUMP JUMPDEST PUSH2 0x1B8 DUP2 PUSH2 0x2A3 JUMP JUMPDEST DUP5 ADD SWAP2 POP POP SWAP3 SWAP2 POP POP JUMP JUMPDEST PUSH1 0x0 PUSH1 0x20 DUP3 ADD SWAP1 POP DUP2 DUP2 SUB PUSH1 0x0 DUP4 ADD MSTORE PUSH2 0x1DD DUP2 DUP5 PUSH2 0x18A JUMP JUMPDEST SWAP1 POP SWAP3 SWAP2 POP POP JUMP JUMPDEST PUSH1 0x0 DUP2 MLOAD SWAP1 POP SWAP2 SWAP1 POP JUMP JUMPDEST PUSH1 0x0 DUP3 DUP3 MSTORE PUSH1 0x20 DUP3 ADD SWAP1 POP SWAP3 SWAP2 POP POP JUMP JUMPDEST PUSH1 0x0 DUP2 SWAP1 POP SWAP2 SWAP1 POP JUMP JUMPDEST PUSH1 0x0 JUMPDEST DUP4 DUP2 LT ISZERO PUSH2 0x229 JUMPI DUP1 DUP3 ADD MLOAD DUP2 DUP5 ADD MSTORE PUSH1 0x20 DUP2 ADD SWAP1 POP PUSH2 0x20E JUMP JUMPDEST DUP4 DUP2 GT ISZERO PUSH2 0x238 JUMPI PUSH1 0x0 DUP5 DUP5 ADD MSTORE JUMPDEST POP POP POP POP JUMP JUMPDEST PUSH1 0x0 PUSH2 0x249 DUP3 PUSH2 0x201 JUMP JUMPDEST SWAP2 POP PUSH2 0x254 DUP4 PUSH2 0x201 JUMP JUMPDEST SWAP3 POP DUP3 PUSH2 0x264 JUMPI PUSH2 0x263 PUSH2 0x26F JUMP JUMPDEST JUMPDEST DUP3 DUP3 SMOD SWAP1 POP SWAP3 SWAP2 POP POP JUMP JUMPDEST PUSH32 0x4E487B7100000000000000000000000000000000000000000000000000000000 PUSH1 0x0 MSTORE PUSH1 0x12 PUSH1 0x4 MSTORE PUSH1 0x24 PUSH1 0x0 REVERT JUMPDEST PUSH1 0x0 DUP1 REVERT JUMPDEST PUSH1 0x0 PUSH1 0x1F NOT PUSH1 0x1F DUP4 ADD AND SWAP1 POP SWAP2 SWAP1 POP JUMP JUMPDEST PUSH2 0x2BD DUP2 PUSH2 0x201 JUMP JUMPDEST DUP2 EQ PUSH2 0x2C8 JUMPI PUSH1 0x0 DUP1 REVERT JUMPDEST POP JUMP INVALID LOG2 PUSH5 0x6970667358 0x22 SLT KECCAK256 0xD3 0xAC PUSH2 0x2322 LOG2 EXTCODESIZE OR 0x4D 0xE PUSH9 0xCB27B5F8151CC535 0x5C 0x1E PUSH10 0x78871933A67D4AB49264 PUSH20 0x6F6C634300080700330000000000000000000000 "
		},
		"gasEstimates": {
			"creation": {
				"codeDepositCost": "153800",
				"executionCost": "202",
				"totalCost": "154002"
			},
			"external": {
				"checkEvenOdd(int256)": "infinite"
			}
		},
		"methodIdentifiers": {
			"checkEvenOdd(int256)": "ee708b53"
		}
	},
	"abi": [
		{
			"inputs": [
				{
					"internalType": "int256",
					"name": "num",
					"type": "int256"
				}
			],
			"name": "checkEvenOdd",
			"outputs": [
				{
					"internalType": "string",
					"name": "",
					"type": "string"
				}
			],
			"stateMutability": "pure",
			"type": "function"
		}
	]
}