{
	"data": {
		"bytecode": {
			"linkReferences": {},
			"object": "608060405234801561001057600080fd5b506102c4806100206000396000f3fe608060405234801561001057600080fd5b50600436106100365760003560e01c80639ecfbe1c1461003b578063adefc37b1461006b575b600080fd5b61005560048036038101906100509190610128565b61009b565b604051610062919061018a565b60405180910390f35b610085600480360381019061008091906100e8565b6100bd565b604051610092919061018a565b60405180910390f35b60008183856100aa91906101a5565b6100b491906101a5565b90509392505050565b600081836100cb91906101a5565b905092915050565b6000813590506100e281610277565b92915050565b600080604083850312156100ff576100fe610272565b5b600061010d858286016100d3565b925050602061011e858286016100d3565b9150509250929050565b60008060006060848603121561014157610140610272565b5b600061014f868287016100d3565b9350506020610160868287016100d3565b9250506040610171868287016100d3565b9150509250925092565b61018481610239565b82525050565b600060208201905061019f600083018461017b565b92915050565b60006101b082610239565b91506101bb83610239565b9250827f8000000000000000000000000000000000000000000000000000000000000000018212600084121516156101f6576101f5610243565b5b827f7fffffffffffffffffffffffffffffffffffffffffffffffffffffffffffffff01821360008412161561022e5761022d610243565b5b828203905092915050565b6000819050919050565b7f4e487b7100000000000000000000000000000000000000000000000000000000600052601160045260246000fd5b600080fd5b61028081610239565b811461028b57600080fd5b5056fea2646970667358221220eea79c2a9b08aa626cdd43d71570e4103b7ecae70978e9afeb657bffb40e3c9564736f6c63430008070033",
			"opcodes": "PUSH1 0x80 PUSH1 0x40 MSTORE CALLVALUE DUP1 ISZERO PUSH2 0x10 JUMPI PUSH1 0x0 DUP1 REVERT JUMPDEST POP PUSH2 0x2C4 DUP1 PUSH2 0x20 PUSH1 0x0 CODECOPY PUSH1 0x0 RETURN INVALID PUSH1 0x80 PUSH1 0x40 MSTORE CALLVALUE DUP1 ISZERO PUSH2 0x10 JUMPI PUSH1 0x0 DUP1 REVERT JUMPDEST POP PUSH1 0x4 CALLDATASIZE LT PUSH2 0x36 JUMPI PUSH1 0x0 CALLDATALOAD PUSH1 0xE0 SHR DUP1 PUSH4 0x9ECFBE1C EQ PUSH2 0x3B JUMPI DUP1 PUSH4 0xADEFC37B EQ PUSH2 0x6B JUMPI JUMPDEST PUSH1 0x0 DUP1 REVERT JUMPDEST PUSH2 0x55 PUSH1 0x4 DUP1 CALLDATASIZE SUB DUP2 ADD SWAP1 PUSH2 0x50 SWAP2 SWAP1 PUSH2 0x128 JUMP JUMPDEST PUSH2 0x9B JUMP JUMPDEST PUSH1 0x40 MLOAD PUSH2 0x62 SWAP2 SWAP1 PUSH2 0x18A JUMP JUMPDEST PUSH1 0x40 MLOAD DUP1 SWAP2 SUB SWAP1 RETURN JUMPDEST PUSH2 0x85 PUSH1 0x4 DUP1 CALLDATASIZE SUB DUP2 ADD SWAP1 PUSH2 0x80 SWAP2 SWAP1 PUSH2 0xE8 JUMP JUMPDEST PUSH2 0xBD JUMP JUMPDEST PUSH1 0x40 MLOAD PUSH2 0x92 SWAP2 SWAP1 PUSH2 0x18A JUMP JUMPDEST PUSH1 0x40 MLOAD DUP1 SWAP2 SUB SWAP1 RETURN JUMPDEST PUSH1 0x0 DUP2 DUP4 DUP6 PUSH2 0xAA SWAP2 SWAP1 PUSH2 0x1A5 JUMP JUMPDEST PUSH2 0xB4 SWAP2 SWAP1 PUSH2 0x1A5 JUMP JUMPDEST SWAP1 POP SWAP4 SWAP3 POP POP POP JUMP JUMPDEST PUSH1 0x0 DUP2 DUP4 PUSH2 0xCB SWAP2 SWAP1 PUSH2 0x1A5 JUMP JUMPDEST SWAP1 POP SWAP3 SWAP2 POP POP JUMP JUMPDEST PUSH1 0x0 DUP2 CALLDATALOAD SWAP1 POP PUSH2 0xE2 DUP2 PUSH2 0x277 JUMP JUMPDEST SWAP3 SWAP2 POP POP JUMP JUMPDEST PUSH1 0x0 DUP1 PUSH1 0x40 DUP4 DUP6 SUB SLT ISZERO PUSH2 0xFF JUMPI PUSH2 0xFE PUSH2 0x272 JUMP JUMPDEST JUMPDEST PUSH1 0x0 PUSH2 0x10D DUP6 DUP3 DUP7 ADD PUSH2 0xD3 JUMP JUMPDEST SWAP3 POP POP PUSH1 0x20 PUSH2 0x11E DUP6 DUP3 DUP7 ADD PUSH2 0xD3 JUMP JUMPDEST SWAP2 POP POP SWAP3 POP SWAP3 SWAP1 POP JUMP JUMPDEST PUSH1 0x0 DUP1 PUSH1 0x0 PUSH1 0x60 DUP5 DUP7 SUB SLT ISZERO PUSH2 0x141 JUMPI PUSH2 0x140 PUSH2 0x272 JUMP JUMPDEST JUMPDEST PUSH1 0x0 PUSH2 0x14F DUP7 DUP3 DUP8 ADD PUSH2 0xD3 JUMP JUMPDEST SWAP4 POP POP PUSH1 0x20 PUSH2 0x160 DUP7 DUP3 DUP8 ADD PUSH2 0xD3 JUMP JUMPDEST SWAP3 POP POP PUSH1 0x40 PUSH2 0x171 DUP7 DUP3 DUP8 ADD PUSH2 0xD3 JUMP JUMPDEST SWAP2 POP POP SWAP3 POP SWAP3 POP SWAP3 JUMP JUMPDEST PUSH2 0x184 DUP2 PUSH2 0x239 JUMP JUMPDEST DUP3 MSTORE POP POP JUMP JUMPDEST PUSH1 0x0 PUSH1 0x20 DUP3 ADD SWAP1 POP PUSH2 0x19F PUSH1 0x0 DUP4 ADD DUP5 PUSH2 0x17B JUMP JUMPDEST SWAP3 SWAP2 POP POP JUMP JUMPDEST PUSH1 0x0 PUSH2 0x1B0 DUP3 PUSH2 0x239 JUMP JUMPDEST SWAP2 POP PUSH2 0x1BB DUP4 PUSH2 0x239 JUMP JUMPDEST SWAP3 POP DUP3 PUSH32 0x8000000000000000000000000000000000000000000000000000000000000000 ADD DUP3 SLT PUSH1 0x0 DUP5 SLT ISZERO AND ISZERO PUSH2 0x1F6 JUMPI PUSH2 0x1F5 PUSH2 0x243 JUMP JUMPDEST JUMPDEST DUP3 PUSH32 0x7FFFFFFFFFFFFFFFFFFFFFFFFFFFFFFFFFFFFFFFFFFFFFFFFFFFFFFFFFFFFFFF ADD DUP3 SGT PUSH1 0x0 DUP5 SLT AND ISZERO PUSH2 0x22E JUMPI PUSH2 0x22D PUSH2 0x243 JUMP JUMPDEST JUMPDEST DUP3 DUP3 SUB SWAP1 POP SWAP3 SWAP2 POP POP JUMP JUMPDEST PUSH1 0x0 DUP2 SWAP1 POP SWAP2 SWAP1 POP JUMP JUMPDEST PUSH32 0x4E487B7100000000000000000000000000000000000000000000000000000000 PUSH1 0x0 MSTORE PUSH1 0x11 PUSH1 0x4 MSTORE PUSH1 0x24 PUSH1 0x0 REVERT JUMPDEST PUSH1 0x0 DUP1 REVERT JUMPDEST PUSH2 0x280 DUP2 PUSH2 0x239 JUMP JUMPDEST DUP2 EQ PUSH2 0x28B JUMPI PUSH1 0x0 DUP1 REVERT JUMPDEST POP JUMP INVALID LOG2 PUSH5 0x6970667358 0x22 SLT KECCAK256 0xEE 0xA7 SWAP13 0x2A SWAP12 ADDMOD 0xAA PUSH3 0x6CDD43 0xD7 ISZERO PUSH17 0xE4103B7ECAE70978E9AFEB657BFFB40E3C SWAP6 PUSH5 0x736F6C6343 STOP ADDMOD SMOD STOP CALLER "
		},
		"gasEstimates": {
			"creation": {
				"codeDepositCost": "141600",
				"executionCost": "190",
				"totalCost": "141790"
			},
			"external": {
				"sub(int256,int256)": "infinite",
				"sub(int256,int256,int256)": "infinite"
			}
		},
		"methodIdentifiers": {
			"sub(int256,int256)": "adefc37b",
			"sub(int256,int256,int256)": "9ecfbe1c"
		}
	},
	"abi": [
		{
			"inputs": [
				{
					"internalType": "int256",
					"name": "a",
					"type": "int256"
				},
				{
					"internalType": "int256",
					"name": "b",
					"type": "int256"
				},
				{
					"internalType": "int256",
					"name": "c",
					"type": "int256"
				}
			],
			"name": "sub",
			"outputs": [
				{
					"internalType": "int256",
					"name": "",
					"type": "int256"
				}
			],
			"stateMutability": "pure",
			"type": "function"
		},
		{
			"inputs": [
				{
					"internalType": "int256",
					"name": "a",
					"type": "int256"
				},
				{
					"internalType": "int256",
					"name": "b",
					"type": "int256"
				}
			],
			"name": "sub",
			"outputs": [
				{
					"internalType": "int256",
					"name": "",
					"type": "int256"
				}
			],
			"stateMutability": "pure",
			"type": "function"
		}
	]
}